:020000040800F2
:1000000000500020316E0008AD650008B56500089D
:10001000BD650008C5650008CD650008000000004A
:10002000000000000000000000000000D56500088E
:10003000E165000800000000ED650008F9650008B2
:10004000796E0008796E0008796E0008796E0008F4
:10005000796E0008796E0008796E0008796E0008E4
:10006000796E0008796E0008796E0008796E0008D4
:10007000796E0008796E000809660008796E00083C
:10008000796E00081D660008796E0008796E000818
:10009000796E0008796E0008796E0008796E0008A4
:1000A000796E0008796E0008796E0008796E000894
:1000B00031660008796E000845660008796E000810
:1000C000796E0008796E0008796E0008796E000874
:1000D000796E0008596600086D660008796E0008A0
:1000E000796E0008796E0008796E00080000000043
:1000F0000000000000000000000000000000000000
:0C01000000000000000000005FF808F1A3
:1001100010B5054C237833B9044B13B10448AFF341
:1001200000800123237010BD20000020000000008B
:10013000BCC4000808B5034B1BB103490348AFF327
:10014000008008BD0000000024000020BCC400089E
:1001500070B54FF0FF0C4CF4E06C1CEA11541DBF5D
:100160001CEA135594EA0C0F95EA0C0F00F0DEF828
:100170002C4481EA030621EA4C5123EA4C5350EA0D
:10018000013518BF52EA033541F4801143F480135E
:1001900038D0A0FB02CE4FF00005E1FB02E506F0EF
:1001A0000042E0FB03E54FF00006E1FB03569CF044
:1001B000000F18BF4EF0010EA4F1FF04B6F5007F4A
:1001C00064F5407404D25FEA4E0E6D4146EB0606BC
:1001D00042EAC62141EA55514FEAC52040EA5E5045
:1001E0004FEACE2EB4F1FD0C88BFBCF5E06F1ED8EF
:1001F000BEF1004F08BF5FEA500E50F1000041EB26
:10020000045170BD06F0004646EA010140EA0200D2
:1002100081EA0301B4EB5C04C2BFD4EB0C0541EAF4
:10022000045170BD41F480114FF0000E013C00F309
:10023000AB8014F1360FDEBF002001F0004170BD2D
:10024000C4F10004203C35DA0C341BDC04F1140446
:10025000C4F1200500FA05F320FA04F001FA05F2D2
:1002600040EA020001F0004221F0004110EBD3709F
:1002700021FA04F642EB06015EEA430E08BF20EACB
:10028000D37070BDC4F10C04C4F1200500FA04F36E
:1002900020FA05F001FA04F240EA020001F0004100
:1002A00010EBD37041F100015EEA430E08BF20EA73
:1002B000D37070BDC4F1200500FA05F24EEA020EBB
:1002C00020FA04F301FA05F243EA020321FA04F0EA
:1002D00001F0004121FA04F220EA020000EBD370A1
:1002E0005EEA430E08BF20EAD37070BD94F0000FA1
:1002F0000FD101F00046400041EB010111F4801FD5
:1003000008BF013CF7D041EA060195F0000F18BF85
:10031000704703F00046520043EB030313F4801FC1
:1003200008BF013DF7D043EA0603704794EA0C0F7B
:100330000CEA135518BF95EA0C0F0CD050EA410691
:1003400018BF52EA4306D1D181EA030101F000410E
:100350004FF0000070BD50EA410606BF1046194636
:1003600052EA430619D094EA0C0F02D150EA013642
:1003700013D195EA0C0F05D152EA03361CBF104683
:1003800019460AD181EA030101F0004141F0FE4122
:1003900041F470014FF0000070BD41F0FE4141F4A6
:1003A000780170BD81F0004102E000BF83F000439E
:1003B00030B54FEA41044FEA430594EA050F08BF00
:1003C00090EA020F1FBF54EA000C55EA020C7FEAC4
:1003D000645C7FEA655C00F0E2804FEA5454D4EB41
:1003E0005555B8BF6D420CDD2C4480EA020281EA0B
:1003F000030382EA000083EA010180EA020281EA43
:100400000303362D88BF30BD11F0004F4FEA013194
:100410004FF4801C4CEA113102D0404261EB4101A3
:1004200013F0004F4FEA03334CEA133302D0524229
:1004300063EB430394EA050F00F0A780A4F10104E5
:10044000D5F1200E0DDB02FA0EFC22FA05F280181F
:1004500041F1000103FA0EF2801843FA05F3594105
:100460000EE0A5F120050EF1200E012A03FA0EFC84
:1004700028BF4CF0020C43FA05F3C01851EBE371AE
:1004800001F0004507D54FF0000EDCF1000C7EEBCB
:1004900000006EEB0101B1F5801F1BD3B1F5001F09
:1004A0000CD349085FEA30004FEA3C0C04F1010428
:1004B0004FEA445212F5800F80F09A80BCF1004F51
:1004C00008BF5FEA500C50F1000041EB045141EAD3
:1004D000050130BD5FEA4C0C404141EB0101013C9C
:1004E00028BFB1F5801FE9D291F0000F04BF01468B
:1004F0000020B1FA81F308BF2033A3F10B03B3F15D
:1005000020020CDA0C3208DD02F1140CC2F10C02EC
:1005100001FA0CF021FA02F10CE002F11402D8BF4A
:10052000C2F1200C01FA02F120FA0CFCDCBF41EA16
:100530000C019040E41AA2BF01EB0451294330BDE5
:100540006FEA04041F3C1CDA0C340EDC04F11404C2
:10055000C4F1200220FA04F001FA02F340EA030099
:1005600021FA04F345EA030130BDC4F10C04C4F1DF
:10057000200220FA02F001FA04F340EA03002946BF
:1005800030BD21FA04F0294630BD94F0000F83F409
:10059000801306BF81F480110134013D4EE77FEAEC
:1005A000645C18BF7FEA655C29D094EA050F08BF38
:1005B00090EA020F05D054EA000C04BF1946104619
:1005C00030BD91EA030F1EBF0021002030BD5FEA5D
:1005D000545C05D14000494128BF41F0004130BD85
:1005E00014F580043CBF01F5801130BD01F00045D9
:1005F00045F0FE4141F470014FF0000030BD7FEA4C
:10060000645C1ABF194610467FEA655C1CBF0B4646
:10061000024650EA013406BF52EA033591EA030F5D
:1006200041F4002130BD00BF90F0000F04BF002155
:10063000704730B54FF4806404F132044FF0000588
:100640004FF0000150E700BF90F0000F04BF002101
:10065000704730B54FF4806404F1320410F0004567
:1006600048BF40424FF000013EE700BF42004FEA62
:10067000E2014FEA31014FEA02701FBF12F07F43DF
:1006800093F07F4F81F06051704732F07F4208BF96
:10069000704793F07F4F04BF41F40021704730B59D
:1006A0004FF4607401F0004521F000411CE700BFE9
:1006B00050EA010208BF704730B54FF000050AE06C
:1006C00050EA010208BF704730B511F0004502D56D
:1006D000404261EB41014FF4806404F132045FEA6F
:1006E000915C3FF4D8AE4FF003025FEADC0C18BF18
:1006F00003325FEADC0C18BF033202EBDC02C2F10A
:10070000200300FA03FC20FA02F001FA03FE40EA9B
:100710000E0021FA02F11444BDE600BF4FEA410287
:10072000B2F1E04324BFB3F5001CDCF1FE5C0DD94F
:1007300001F0004C4FEAC0024CEA5070B2F1004F99
:1007400040EB830008BF20F00100704711F0804F9C
:1007500021D113F13872BCBF01F00040704741F461
:1007600080114FEA5252C2F11802C2F1200C10FA65
:100770000CF320FA02F018BF40F001004FEAC12349
:100780004FEAD32303FA0CFC40EA0C0023FA02F3ED
:100790004FEA4303CCE77FEA625307D150EA0133C3
:1007A0001EBF4FF0FE4040F44000704701F0004093
:1007B00040F0FE4040F40000704700BF80F0004071
:1007C00002E000BF81F0004142001FBF5FEA410329
:1007D00092EA030F7FEA226C7FEA236C6AD04FEA29
:1007E0001262D2EB1363C1BFD2184140484041406E
:1007F000B8BF5B42192B88BF704710F0004F40F420
:10080000000020F07F4018BF404211F0004F41F43B
:10081000000121F07F4118BF494292EA030F3FD007
:10082000A2F1010241FA03FC10EB0C00C3F120031A
:1008300001FA03F100F0004302D5494260EB4000A9
:10084000B0F5000F13D3B0F1807F06D340084FEA14
:10085000310102F10102FE2A51D2B1F1004F40EB09
:10086000C25008BF20F0010040EA03007047490071
:1008700040EB0000013A28BFB0F5000FEDD2B0FA0E
:1008800080FCACF1080CB2EB0C0200FA0CF0AABF31
:1008900000EBC25052421843BCBFD04018437047CF
:1008A00092F0000F81F4000106BF80F400000132D5
:1008B000013BB5E74FEA41037FEA226C18BF7FEAAC
:1008C000236C21D092EA030F04D092F0000F08BFEE
:1008D0000846704790EA010F1CBF0020704712F0D5
:1008E0007F4F04D1400028BF40F00040704712F114
:1008F00000723CBF00F50000704700F0004343F079
:10090000FE4040F4000070477FEA226216BF0846AE
:100910007FEA23630146420206BF5FEA412390EA71
:10092000010F40F4800070474FF0000304E000BF67
:1009300010F0004348BF40425FEA000C08BF704718
:1009400043F0964301464FF000001CE050EA0102DC
:1009500008BF70474FF000030AE000BF50EA0102F1
:1009600008BF704711F0004302D5404261EB4101DE
:100970005FEA010C02BF84460146002043F0B64303
:1009800008BFA3F18053A3F50003BCFA8CF2083A28
:10099000A3EBC25310DB01FA02FC634400FA02FC31
:1009A000C2F12002BCF1004F20FA02F243EB020038
:1009B00008BF20F00100704702F1200201FA02FC9A
:1009C000C2F1200250EA4C0021FA02F243EB02008D
:1009D00008BF20EADC7070474FF0FF0C1CEAD052D1
:1009E0001EBF1CEAD15392EA0C0F93EA0C0F6FD092
:1009F0001A4480EA010C400218BF5FEA41211ED070
:100A00004FF0006343EA501043EA5111A0FB01315B
:100A10000CF00040B1F5000F3EBF490041EAD37130
:100A20005B0040EA010062F17F02FD2A1DD8B3F1AC
:100A3000004F40EBC25008BF20F00100704790F01B
:100A4000000F0CF0004C08BF49024CEA502040EA6D
:100A500051207F3AC2BFD2F1FF0340EAC250704733
:100A600040F400004FF00003013A5DDC12F1190F71
:100A7000DCBF00F000407047C2F10002410021FAE3
:100A800002F1C2F1200200FA02FC5FEA310040F1FB
:100A9000000053EA4C0308BF20EADC70704792F074
:100AA000000F00F0004C02BF400010F4000F013AAC
:100AB000F9D040EA0C0093F0000F01F0004C02BFA7
:100AC000490011F4000F013BF9D041EA0C018FE716
:100AD0000CEAD15392EA0C0F18BF93EA0C0F0AD01C
:100AE00030F0004C18BF31F0004CD8D180EA010042
:100AF00000F00040704790F0000F17BF90F0004FDB
:100B0000084691F0000F91F0004F14D092EA0C0FBC
:100B100001D142020FD193EA0C0F03D14B0218BF4F
:100B2000084608D180EA010000F0004040F0FE4095
:100B300040F40000704740F0FE4040F44000704731
:100B40004FF0FF0C1CEAD0521EBF1CEAD15392EAB0
:100B50000C0F93EA0C0F69D0A2EB030280EA010CA0
:100B600049024FEA402037D04FF0805343EA111139
:100B700043EA10130CF000408B4238BF5B0042F197
:100B80007D024FF4000C8B4224BF5B1A40EA0C003C
:100B9000B3EB510F24BFA3EB510340EA5C00B3EB6E
:100BA000910F24BFA3EB910340EA9C00B3EBD10F5C
:100BB00024BFA3EBD10340EADC001B0118BF5FEAAE
:100BC0001C1CE0D1FD2A3FF650AF8B4240EBC250D7
:100BD00008BF20F0010070470CF0004C4CEA502098
:100BE0007F32C2BFD2F1FF0340EAC250704740F4E7
:100BF00000004FF00003013A37E792F0000F00F0D9
:100C0000004C02BF400010F4000F013AF9D040EA56
:100C10000C0093F0000F01F0004C02BF490011F4EA
:100C2000000F013BF9D041EA0C0195E70CEAD153E2
:100C300092EA0C0F08D142027FF47DAF93EA0C0FC9
:100C40007FF470AF084676E793EA0C0F04D14B02AD
:100C50003FF44CAF08466EE730F0004C18BF31F05F
:100C6000004CCAD130F000427FF45CAF31F0004359
:100C70007FF43CAF5FE700BF4FF0FF3C06E000BFF2
:100C80004FF0010C02E000BF4FF0010C4DF804CD15
:100C90004FEA40024FEA41037FEA226C18BF7FEA25
:100CA000236C11D001B052EA530C18BF90EA010F27
:100CB00058BFB2EB030088BFC81738BF6FEAE170B6
:100CC00018BF40F0010070477FEA226C02D15FEA52
:100CD000402C05D17FEA236CE4D15FEA412CE1D0BE
:100CE0005DF8040B704700BF844608466146FFE785
:100CF0000FB5FFF7C9FF002848BF10F1000F0FBD67
:100D00004DF808EDFFF7F4FF0CBF012000205DF85F
:100D100008FB00BF4DF808EDFFF7EAFF34BF0120E4
:100D200000205DF808FB00BF4DF808EDFFF7E0FF7D
:100D300094BF012000205DF808FB00BF4DF808EDCE
:100D4000FFF7D2FF94BF012000205DF808FB00BF31
:100D50004DF808EDFFF7C8FF34BF012000205DF813
:100D600008FB00BF42000ED2B2F1FE4F0BD34FF092
:100D70009E03B3EB126209D44FEA002343F0004311
:100D800023FA02F070474FF00000704712F1610F34
:100D900001D1420202D14FF0FF3070474FF0000006
:100DA000704700BF80B584B000AF3B1D00221A60C1
:100DB0005A609A60184B194A1A60174B00229A60C1
:100DC000154B00221A73144B00221A75124B4FF464
:100DD0006022DA61104B00225A600F4B01221A6127
:100DE0000D4806F0D1F80346002B01D004F0CAFAF2
:100DF00000237B600123BB600023FB603B1D194681
:100E0000054806F059FB0346002B01D004F0BAFA5E
:100E100000BF1037BD4680BD3C00002000240140CB
:100E200080B588B000AF786007F1100300221A6027
:100E30005A609A60DA607B681B68144A934221D139
:100E4000134B9B69124A43F400739361104B9B69E7
:100E500003F40073FB60FB680D4B9B690C4A43F085
:100E6000040393610A4B9B6903F00403BB60BB68F6
:100E700001233B6103237B6107F1100319460548F9
:100E800007F0F2FA00BF2037BD4680BD00240140C4
:100E9000001002400008014080B500AF064806F08F
:100EA0004BF94FF0FF31044806F0F4F9024806F020
:100EB000F7FA0346184680BD3C00002080B582B09A
:100EC00000AF104B5B690F4A43F0010353610D4BB8
:100ED0005B6903F001037B607B68002200210E2028
:100EE00006F079FD0E2006F092FD0022002111206F
:100EF00006F071FD112006F08AFD00BF0837BD46DF
:100F000080BD00BF0010024080B582B000AF7860A5
:100F100039607B684FF44872A3F878207B683968A1
:100F2000184604F035FA00BF0837BD4680BD80B5CD
:100F300082B000AF78607B68184605F076F803460B
:100F400018460837BD4680BD80B582B000AF7860D6
:100F50007B68184605F07AF8034618460837BD4600
:100F600080BD80B584B002AF786005F0DFFF024637
:100F70007B685A677868002300930023002244218D
:100F800005F099F8034618460837BD4680BD80B580
:100F900086B002AF786039607F23FB733B689B7833
:100FA0000B2B14D00B2B1ADC092B02D00A2B07D0E9
:100FB00015E01F23FB737B686422A3F8782016E0FA
:100FC0003F23FB737B68C822A3F878200FE05F23E0
:100FD000FB737B684FF4C872A3F8782007E07F2387
:100FE000FB737B684FF44872A3F8782000BF3B681E
:100FF00093F901307D2B02DD3B687D225A703B68FE
:1010000093F9013013F1370F02DA3B68C9225A70A5
:101010003B6893F900307D2B02DD3B687D221A701E
:101020003B6893F9003013F1370F02DA3B68C922AD
:101030001A703B6893F90130DBB23B733B6893F95C
:101040000030DBB27B73FB7BBB73786807F10C026B
:101050000023009303234E2105F02DF80346184684
:101060001037BD4680BD80B582B000AF786005F016
:101070005DFF02467B685B6FD31A7A68B2F878200E
:1010800093422CBF01230023DBB218460837BD462C
:1010900080BD80B584B002AF78600B46FB70786885
:1010A000F97809230193002300930023BE2205F061
:1010B0006CF8034618460837BD4680BD80B588B039
:1010C00000AF78604B4BBB610123FB757B6807F178
:1010D0000C010922184605F0ECF80346092B7FD1D4
:1010E00007F10C030821184604F068FF03461A466E
:1010F0003B7D9A4276D13B7B1AB27B7B1BB21B02B3
:101100001BB213431BB2FB83B7F91E30002B04DA6A
:10111000FB8B5B42FB83FF23FB753B7C5B11DBB2EC
:1011200003F00303DBB20933BB75BB7D093B032B23
:101130004CD801A252F823F04911000863110008AD
:1011400081110008AB110008FB8BDB089BB21A462B
:10115000322302FB03F3BB617B68092283F87A2008
:1011600037E0FB8B9B089BB21A4613469B00134447
:101170009A001344BB617B680A2283F87A2028E036
:10118000FB8B5B089BB21A4613465B019B1A9B00C4
:101190001344194A82FB03129210DB17D31ABB6166
:1011A0007B680B2283F87A2013E0FB8B40F27122DC
:1011B00002FB03F3114A82FB03125211DB17D31A0D
:1011C000BB617B680C2283F87A2002E00123FB7567
:1011D00000BF97F91720BB6902FB03F3BB6102E074
:1011E00000BF00E000BFBB691BB218462037BD46F8
:1011F00080BD00BFF0D8FFFF676666661F85EB51B4
:1012000080B58AB000AF07F1140300221A605A605B
:101210009A60DA60504B9B694F4A43F01003936128
:101220004D4B9B6903F010033B613B694A4B9B6943
:10123000494A43F020039361474B9B6903F0200325
:10124000FB60FB68444B9B69434A43F00403936192
:10125000414B9B6903F00403BB60BB683E4B9B6939
:101260003D4A43F0080393613B4B9B6903F008033D
:101270007B607B6800221021384807F04CFB00227D
:101280004FF47441364807F046FB4FF460437B61EE
:101290000023BB610123FB6107F1140319463148A8
:1012A00007F0E2F801237B610023BB610123FB61AE
:1012B00007F1140319462C4807F0D6F810237B6178
:1012C0000123BB610023FB6102233B6207F114038E
:1012D0001946224807F0C8F84FF480637B61112358
:1012E000BB610023FB6102233B6207F11403194633
:1012F0001B4807F0B9F84FF4E0437B610123BB6161
:101300000023FB6102233B6207F1140319461448D2
:1013100007F0AAF84FF400437B610123BB6102236D
:10132000FB6102233B6207F1140319460C4807F0E6
:101330009BF80E4B5B687B627B6A43F0E0637B62E9
:101340007B6A43F400437B62084A7B6A536000BFB8
:101350002837BD4680BD00BF001002400008014094
:10136000000C014000100140001401400000014049
:1013700080B485B000AF03463960FB713B681B88C1
:10138000DAB2FB795340FB7397F90F301B015AB265
:1013900097F90F3053405BB2FB733B681B881B0A05
:1013A0009BB21AB2FB7B1BB21B021BB253401AB298
:1013B000FB7B1BB2DB001BB253401AB2FB7B1B0949
:1013C000DBB21BB253401BB29AB23B681A8000BF1B
:1013D0001437BD4680BC704780B483B000AF7860DE
:1013E0007B684FF6FF721A8000BF0C37BD4680BC89
:1013F000704780B584B000AF78600B467B8007F102
:101400000E031846FFF7E8FF09E07B685A1C7A6074
:101410001B7807F10E0211461846FFF7A9FF7B88DB
:101420005A1E7A80002BF0D1FB8918461037BD4632
:1014300080BD80B586B000AFF860B9601346FB8010
:10144000BB687B6107E07B695A1C7A611B78F9688D
:101450001846FFF78DFFFB885A1EFA80002BF2D149
:1014600000BF00BF1837BD4680BD000080B483B008
:1014700000AF78607B6800221A607B6800225A60A7
:101480007B680E4A9A607B680D4ADA607B680D4A79
:101490001A617B680C4A5A617B680C4A9A617B68C6
:1014A0000B4ADA617B680B4A1A627B680A4A5A6205
:1014B00000BF0C37BD4680BC704700BF67E6096AB5
:1014C00085AE67BB72F36E3C3AF54FA57F520E5165
:1014D0008C68059BABD9831F19CDE05B80B4CFB07E
:1014E00000AF07F59C73A3F59A73186007F59C731A
:1014F000A3F59C73196007F59C73A3F59A731B6899
:101500009B68C7F8343107F59C73A3F59A731B6881
:10151000DB68C7F8303107F59C73A3F59A731B6835
:101520001B69C7F82C3107F59C73A3F59A731B68E8
:101530005B69C7F8283107F59C73A3F59A731B689C
:101540009B69C7F8243107F59C73A3F59A731B6850
:10155000DB69C7F8203107F59C73A3F59A731B6804
:101560001B6AC7F81C3107F59C73A3F59A731B68B7
:101570005B6AC7F818310023C7F8143116E0D7F8B2
:1015800014319B0007F59C72A2F59C7212681344FB
:10159000196807F59C73A3F59673D7F8142143F8DF
:1015A0002210D7F814310133C7F81431D7F81431A9
:1015B0000F2BE4DD1023C7F8143169E0D7F814319C
:1015C0009A1E07F59C73A3F5967353F822304FEAE1
:1015D0007342D7F81431991E07F59C73A3F59673DF
:1015E00053F821304FEAF3435A40D7F81431991E8B
:1015F00007F59C73A3F5967353F821309B0A5A4064
:10160000D7F81431D91F07F59C73A3F5967353F8D7
:1016100021301A44D7F81431A3F10F0107F59C7358
:10162000A3F5967353F821304FEAF311D7F814312C
:10163000A3F10F0007F59C73A3F5967353F82030C0
:101640004FEAB3435940D7F81431A3F10F0007F51F
:101650009C73A3F5967353F82030DB084B401A4473
:10166000D7F81431A3F1100107F59C73A3F5967315
:1016700053F82130D11807F59C73A3F59673D7F86A
:10168000142143F82210D7F814310133C7F814316C
:10169000D7F814313F2B91DD0023C7F8143178E0DF
:1016A000D7F824314FEAB312D7F824314FEAF323A5
:1016B0005A40D7F824314FEA73635A40D7F81831AB
:1016C0001A44D7F82411D7F820311940D7F824311B
:1016D000D843D7F81C3103404B401A446E49D7F821
:1016E000143151F823301A4407F59C73A3F596730F
:1016F000D7F8141153F821301344C7F81031D7F834
:1017000034314FEAB302D7F834314FEA73335A40D9
:10171000D7F834314FEAB3535A40D7F83011D7F8DD
:101720002C315940D7F834311940D7F83001D7F867
:101730002C3103404B401344C7F80C31D7F81C310F
:10174000C7F81831D7F82031C7F81C31D7F8243141
:10175000C7F82031D7F82821D7F810311344C7F83B
:101760002431D7F82C31C7F82831D7F83031C7F8F1
:101770002C31D7F83431C7F83031D7F81021D7F8E9
:101780000C311344C7F83431D7F814310133C7F89A
:101790001431D7F814313F2B82DD07F59C73A3F584
:1017A0009A731B689A68D7F834311A4407F59C730A
:1017B000A3F59A731B689A6007F59C73A3F59A7357
:1017C0001B68DA68D7F830311A4407F59C73A3F523
:1017D0009A731B68DA6007F59C73A3F59A731B680C
:1017E0001A69D7F82C311A4407F59C73A3F59A733C
:1017F0001B681A6107F59C73A3F59A731B685A69F5
:10180000D7F828311A4407F59C73A3F59A731B681F
:101810005A6107F59C73A3F59A731B689A69D7F808
:1018200024311A4407F59C73A3F59A731B689A61D7
:1018300007F59C73A3F59A731B68DA69D7F8203112
:101840001A4407F59C73A3F59A731B68DA6107F5D0
:101850009C73A3F59A731B681A6AD7F81C311A4453
:1018600007F59C73A3F59A731B681A6207F59C73BE
:10187000A3F59A731B685A6AD7F818311A4407F50A
:101880009C73A3F59A731B685A6200BF07F59E7795
:10189000BD4680BC704700BFD8C4000880B59CB06E
:1018A00000AFF860B9607A60BB68FB66FB681B68D4
:1018B000FB65FB681A687B68DB001A44FB681A60EA
:1018C000FB681B68FA6D9A4204D9FB685B685A1C76
:1018D000FB685A60FB6DDB0803F03F03BB6657E013
:1018E000BB6EC3F140037B667A687B6E9A4201D27D
:1018F0007B687B66FB6803F12802BB6E13447A6E3B
:10190000F96E18460AF0CCFDBA6E7B6E1344BB66C6
:10191000FA6E7B6E1344FB667A687B6ED31A7B602B
:10192000BB6E402B34D1FB682833BB6500233B667C
:1019300023E03B6E9B00BA6D13447B6507F11002F8
:101940003B6E9B0013443B657B6D03331A783B6D04
:101950001A707B6D9A1C3B6D013312781A707B6D87
:101960005A1C3B6D023312781A703B6D03337A6D4B
:1019700012781A703B6E01333B663B6E0F2BD8DD3D
:1019800007F110031946F868FFF7A8FD0023BB66AE
:101990007B68002BA4D100BF00BF7037BD4680BD5F
:1019A00080B598B000AF786039607B681B68DB0851
:1019B00003F03F03FB65FB6DC3F1770303F03F03C7
:1019C0000133BB657B6808337B6580233B7307F17C
:1019D0000C0301334722002118460AF035FD7B68CD
:1019E0001A68BB6D0733D2B260333B4403F8542C02
:1019F0007B681B681A0ABB6D0633D2B260333B4466
:101A000003F8542C7B681B681A0CBB6D0533D2B2EB
:101A100060333B4403F8542C7B681B681A0EBB6D83
:101A20000433D2B260333B4403F8542C7B685A68C9
:101A3000BB6D0333D2B260333B4403F8542C7B6854
:101A40005B681A0ABB6D0233D2B260333B4403F8C1
:101A5000542C7B685B681A0CBB6D0133D2B26033C7
:101A60003B4403F8542C7B685B681B0ED9B207F12A
:101A70000C02BB6D13440A461A70BB6D03F10802D9
:101A800007F10C0319467868FFF708FF7B6DDA78D9
:101A90003B681A703B6801337A6D92781A703B6824
:101AA00002337A6D52781A703B6803337A6D12787C
:101AB0001A703B6804337A6DD2791A703B6805332B
:101AC0007A6D92791A7000BF6037BD4680BD000004
:101AD00080B483B000AF0346FB71FA7913465B0014
:101AE0001344DB00034A134418460C37BD4680BC40
:101AF000704700BFC803002080B483B000AF034626
:101B0000FB71FB7940F2231202FB03F3034A1344F7
:101B100018460C37BD4680BC704700BF2804002023
:101B2000B0B5A0B000AFF860B9607A60FB70FB6838
:101B3000002B05D0FB681B7803F00103002B01D1BB
:101B400000234FE0FB685A78BB681A70FB68D3E942
:101B50000223C7E90423BB68013307F11001062201
:101B600018460AF09DFCFB68D3E90223541C43F19C
:101B70000005FB68C3E9024507F118031846FFF7A3
:101B800075FCFB6803F1100107F1180320221846C9
:101B9000FFF784FEFA7807F1180379681846FFF713
:101BA0007DFE97F8942007F11803D7F89010184697
:101BB000FFF774FE07F118030222D7F898101846B1
:101BC000FFF76CFE07F118030722B9681846FFF704
:101BD00065FEBB68DA1D07F1180311461846FFF7CA
:101BE000DFFE0D2318468037BD46B0BD80B483B0FC
:101BF00000AF78600B46FB7002E0FB78013BFB70A6
:101C0000FB78012B06D9FB78013B7A6813441B78DB
:101C1000002BF2D0FB7818460C37BD4680BC7047CD
:101C2000B0B5AAB000AFF860B9607A60FB68002B6D
:101C300001D101233EE17B680233C7F8A0307B6805
:101C400003F58B73C7F89C30D7F89C300733C7F87F
:101C5000983007F12C031846FFF708FCFB6803F1E6
:101C6000100107F12C0320221846FFF717FE07F199
:101C70002C030A22D7F8A0101846FFF70FFE7B6846
:101C800003F10C017B68DB781A4607F12C03184638
:101C9000FFF704FE7B6803F58A7107F12C0302222B
:101CA0001846FFF7FBFD07F12C030722D7F89C101D
:101CB0001846FFF7F3FD07F1240207F12C03114644
:101CC0001846FFF76DFE07F124030622D7F8981097
:101CD00018460AF0A9FB0346002B05D0FB68022238
:101CE00083F834200023E5E0D7F89C301B7887F890
:101CF00097304FF000024FF00003C7E90623D7F8F2
:101D00009C30591C07F11803062218460AF0C8FB3C
:101D1000BB68002B05D1FB68032283F83420002325
:101D2000C8E00023A7F8A6302BE07B68D979B7F884
:101D3000A620B8681346DB001344034403331B7822
:101D4000994219D17B68197AB7F8A620B86813466A
:101D5000DB001344034404331B7899420CD1B7F8D9
:101D6000A620B9681346DB0013440B4402331B78EA
:101D700097F897209A420BD0B7F8A6300133A7F80E
:101D8000A630BB681B88B7F8A6209A42CDD300E0E6
:101D900000BFBB681B88B7F8A6209A4246D1BB6833
:101DA0001B880F2B05D9FB68042283F834200023FD
:101DB00080E0D7E906234149541843F10005FB6848
:101DC000D3E90223944275EB030305D2FB68052295
:101DD00083F8342000236DE0B7F8A6207B68D8791B
:101DE000B9681346DB0013440B44033302461A70F0
:101DF000B7F8A6207B68187AB9681346DB0013444D
:101E00000B44043302461A70B7F8A620B96813468B
:101E1000DB0013440B44023397F897201A70BB6819
:101E20001B8801339AB2BB681A8021E04FF0000290
:101E30004FF00003C7E90423B7F8A6201346DB00E0
:101E40001344BA681344591D07F1100306221846BB
:101E50000AF026FBD7E90623D7E90401904271EB8B
:101E6000030305D3FB68062283F83420002321E016
:101E7000B7F8A6201346DB001344BA681344581D74
:101E8000D7F89C300133062219460AF009FBD7E93E
:101E90000623F968D1E90201904271EB030304D2F1
:101EA000D7E90623F968C1E90223FB68012283F818
:101EB000342001231846A837BD46B0BD808D5B0095
:101EC000F0B58FB004AFF8607B600B46FB72134631
:101ED000BB727B681B7B03F00203002B14BF012342
:101EE000002387F8263097F8263083F00103DBB211
:101EF000002B0CD07B681B69002B08D07B681B690A
:101F00001B7803F00103002B01D0012300E0002324
:101F100087F8253097F8253003F0010387F825303E
:101F200097F82530002B01D00D2300E0002387F81F
:101F300024300A2387F8273097F82630002B06D064
:101F4000FB68FE229A70062387F8273002E0FB68C0
:101F5000FD229A7097F82630002B0AD1FB680C33CB
:101F600097F8442011461846FFF740FE03461A46EC
:101F700001E097F84020FB68DA70FB68FA7ADA71C2
:101F8000FB68BA7A1A72FB6800221A7197F825303A
:101F9000002B06D0FB681B7943F00103DAB2FB6823
:101FA0001A71FB6800225A717B689A79FB689A71F2
:101FB0007B689B790133DAB27B689A71FB689B7806
:101FC0003B76FB68DB787B7697F82630002B13D0C6
:101FD000FB689B79BB76FB68DB79FB76FB681B7A39
:101FE0003B77FB685A7A997A09020A43DB7A1B0429
:101FF0001343DBB27B7730E0FB681B79BB76FB6871
:102000005B79FB76FB689B793B77FB68DB797B77B9
:10201000FB681B7ABB77FB685A7A997A09020A43F4
:10202000DB7A1B041343DBB2FB77FB685A7A997A9D
:1020300009020A43DB7A1B0413431B12DBB287F845
:102040002030FB685A7A997A09020A43DB7A1B042A
:1020500013431B14DBB287F8213097F827309BB26B
:10206000013B9AB207F11803013311461846FFF7F6
:10207000C0F90346FB82FB6803F10C01FB68DB78C7
:102080001A4607F116031846FFF7D3F907F11602AF
:1020900097F8483011461846FFF76AF9F98AFB6845
:1020A0000C33FA68D2781344CAB21A70FB8A1B0A3E
:1020B00099B2FB6803F10C02FB68DB78013313442F
:1020C000CAB21A70FA8AFB681A8097F82530002B7A
:1020D0001AD07B681C69FB6803F58B75FB680C33B1
:1020E000FA68D278F9680C31F868C078014497F83A
:1020F000276007F1180002910192009333460246CF
:1021000029462046FFF70CFDFB68DB781A4697F856
:1021100027309BB213449AB297F824309BB21344F1
:102120009BB202339BB218462C37BD46F0BD80B53A
:1021300088B004AF7860084611461A460346FB7023
:102140000B46BB7013467B707B781846FFF7C0FCCC
:10215000F860BA78F97897F8203002933B7F0193C2
:102160003B7E0093FB687868FFF7AAFE034618469B
:102170001037BD4680BD80B586B004AF7860084694
:1021800011461A460346FB700B46BB7013467B7024
:10219000BA78F9783B7D02933B7C01937B7800937E
:1021A00000237868FFF7C3FF034618460837BD468B
:1021B00080BD80B483B000AF78607B689B780133CA
:1021C000DAB27B689A7000BF0C37BD4680BC70479E
:1021D00080B586B000AF786039603B68DB78FB7310
:1021E0003B689B78FE2B3AD10023FB750523BB751A
:1021F0003B689A787B681A707B680133FA7B1A70A7
:102200007B6802333A6892791A707B6803333A68C4
:10221000D2791A707B6804333A68127A1A703B6874
:102220005A7A997A09020A43DB7A1B0413431A4645
:102230007B680533D2B21A707B68981D3B6803F146
:102240000C013B68DB781A460AF02AF9BB7D3A6834
:10225000D278134401337A6813443B616CE03B68E5
:102260000C33FA7B11461846FFF7C0FC0346FB739C
:102270000923BB753B689A787B681A707B680133C9
:10228000FA7B1A707B6802333A6812791A707B689D
:1022900003333A6852791A707B6804333A6892794A
:1022A0001A707B6805333A68D2791A707B680633F6
:1022B0003A68127A1A703B685A7A997A09020A4384
:1022C000DB7A1B0413431A467B680733D2B21A70B9
:1022D0003B685A7A997A09020A43DB7A1B04134352
:1022E0001A0A7B680833D2B21A703B685A7A997A14
:1022F00009020A43DB7A1B0413431A0C7B68093377
:10230000D2B21A707B6803F10A003B680C33FA7B87
:1023100019460AF0C5F8BA7DFB7B134401337A688D
:1023200013443B613B681B7903F00103002B01D090
:102330000D2300E00023FB753B681B889BB2DAB2DB
:102340003B691A703B681B889BB21B0A9AB23B69B7
:102350000133D2B21A70FB7D002B08D03B69981C68
:102360003B6803F58B73FA7D19460AF099F8BB7D3B
:102370009AB2FB7B9BB213449AB2FB7D9BB213448F
:102380009BB203339BB218461837BD4680BD80B55B
:1023900084B000AF78600023FB8107F10E0318467C
:1023A000FFF71AF8FA897B681A8000BF1037BD461C
:1023B00080BD80B584B000AF78600B46FB707B6851
:1023C0001B889BB2FB8107F10E02FB781146184671
:1023D000FEF7CEFFFA897B681A8000BF1037BD4632
:1023E00080BD000080B487B000AF786000237B61BF
:1023F00006233B6125E07A693B69134401335B089E
:10240000FB601E49FA6813465B0013449B000B44B3
:102410001B687A689A4203D2FB68013B3B6110E07B
:102420001649FA6813465B0013449B000B441B6873
:102430007A689A4202D9FB687B6102E0FB687B61A3
:1024400003E07A693B699A42D5D30C497A6913460D
:102450005B0013449B000B441B687A689A4201D0CE
:10246000002306E07A6913465B0013449B00034A8D
:10247000134418461C37BD4680BC7047D8C50008B9
:1024800080B588B000AFF860B9603B601346FB715F
:10249000BB6800221A70BB68DB78102B00F27F82C9
:1024A00001A252F823F000BFED240008ED2400083B
:1024B0004B250008B1250008E5250008FD2500088A
:1024C000152600082D260008452600089F2600082E
:1024D000EB260008472700087F2700081728000878
:1024E00017280008D9280008D9280008FB79FD2BF7
:1024F00013D1BB680222DA70FB680022DA70FB6835
:10250000FA799A70BB681B7B23F00103DAB2BB68CF
:102510001A73F868FFF73BFF38E2FB79FE2B40F0B7
:102520003582BB680222DA70FB680022DA70FB6831
:10253000FA799A70BB681B7B43F00103DAB2BB687F
:102540001A73F868FFF723FF20E2BB681B78002BA3
:102550000FD0BB685B780133DAB2BB685A70B868D9
:10256000FFF727FEBB6800221A70BB680122DA70F1
:1025700015E2FB68FA79DA70BB6800221A71FB7900
:102580001946F868FFF715FFBB681B7B03F00103D2
:10259000002B09D0FB6800221A71FB6800225A71D7
:1025A000BB680522DA70FAE1BB680322DA70F6E153
:1025B000FB68FA791A71FB681B79012B09D9B86895
:1025C000FFF7F7FDBB6800221A70BB680122DA70C2
:1025D000E5E1FB791946F868FFF7EBFEBB680422DA
:1025E000DA70DCE1FB68FA795A71FB791946F86810
:1025F000FFF7DFFEBB680522DA70D0E1FB68FA79ED
:102600009A71FB791946F868FFF7D3FEBB6806227A
:10261000DA70C4E1FB68FA79DA71FB791946F86877
:10262000FFF7C7FEBB680722DA70B8E1FB68FA79EA
:102630001A72FB791946F868FFF7BBFEBB680822DF
:10264000DA70ACE1FB7923F07F43FA68D9B200205D
:1026500001435172190AC9B20020014391721B0C47
:10266000DBB200210B43D372FB791946F868FFF700
:10267000A0FEBB681B7B03F00103002B0BD0FB68A3
:10268000DB78002B03D0BB680B22DA7087E1BB68D4
:102690000C22DA7083E1BB680922DA707FE1FB6803
:1026A0005A7A997A09020A43DB7A1B0413431A46C1
:1026B000FB791B02134323F07F42FB68D1B2002059
:1026C00001435972110AC9B2002001439972120CD8
:1026D000D2B200210A43DA72FB791946F868FFF793
:1026E00068FEBB680A22DA7059E1FB685A7A997A67
:1026F00009020A43DB7A1B0413431A46FB791B04C5
:10270000134323F07F42FB68D1B20020014359728A
:10271000110AC9B2002001439972120CD2B20021F1
:102720000A43DA72FB791946F868FFF742FEFB6844
:10273000DB78002B03D0BB680B22DA702FE1BB687B
:102740000C22DA702BE1FB6803F10C02BB681B79E9
:10275000591CC8B2B96808711344FA791A70FB7928
:102760001946F868FFF725FEBB681A79FB68DB7825
:102770009A4240F00D81BB680C22DA7008E1FB68D8
:102780005A7A997A09020A43DB7A1B0413431846E2
:10279000FFF728FEB861BB69002B07D1BB680E228A
:1027A000DA70FB68FA7983F81421F3E0BB691B79CE
:1027B000FB75FB7D1946F868FFF7FBFDFA79FB68AE
:1027C0001B889BB2DBB29A4203D0BB680E22DA7040
:1027D00002E0BB680D22DA70FB68FA7983F81421F5
:1027E000BB69002B00F0D680BB681A79BB699B7966
:1027F0009A4280F0CF80FB680C33BA68127998183F
:10280000BB699B791A46BB681B79D31A1A4600210B
:1028100009F01AFEBEE0BB68DB780E2B08D0FB790E
:102820009AB2FB681B889BB21B0A9BB29A4203D0E8
:10283000BB6802221A7002E0BB6801221A70FB68B2
:10284000FA7983F81521FB681B7903F00103002B4B
:1028500011D0BB681B78022B03D1BB681022DA7041
:1028600005E0BB680F22DA70BB6800221A70BB68F3
:102870000D225A7390E0BB681B69002B1FD0BB6808
:102880001B691B6B002B13D0BB681B691A6BFB68A1
:10289000597A987A00020143DB7A1B040B431946EC
:1028A000B8689047034683F00103DBB2002B06D0E3
:1028B000BB681B78022B02D0BB6803221A70BB686E
:1028C0000122DA703B68002B66D040F22312F968CF
:1028D000386809F0E5FD5FE0BB685B7BC3F10D0381
:1028E000FA681344FA7983F81621BB685B7B013BD5
:1028F000DAB2BB685A73BB685B7B002B4ED1BB68F6
:102900001869BB685B69FA681946FFF789F90346DD
:10291000FB77FB7F83F00103DBB2002B17D0BB6892
:102920001B691B6B002B12D0BB681B691A6BFB6801
:10293000597A987A00020143DB7A1B040B4319464B
:10294000B86890470346002B01D00123FB77BB6892
:10295000DB78102B03D1BB6802221A7009E0FB7FE1
:10296000002B03D0BB6801221A7002E0BB6803226F
:102970001A70BB680122DA703B68002B0ED040F25F
:102980002312F968386809F08BFD07E000BF06E004
:1029900000BF04E000BF02E000BF00E000BFBB6872
:1029A0001B78012B10D1FB689A79BB685A71BB6800
:1029B0001B89002B02D1BB6800225A81BB681B898E
:1029C00001339AB2BB681A813B68002B03D0FB68C5
:1029D000DA783B68DA70BB6A002B1AD0BB68DA7809
:1029E000BB6ADA70BB681A79BB6A1A71BB685B791B
:1029F0000133DAB2BB6A5A71BB681A89BB6A1A81A1
:102A0000BB689B781A46BB6A5A81BB681A7BBB6A53
:102A10001A73BB6800229A70BB681B78022B11D115
:102A20003B68002B0ED0FB6893F814311AB2FB6898
:102A300093F815311BB21B021BB213431BB29AB29F
:102A40003B681A80BB681B7818462037BD4680BD9E
:102A500090B587B002AFBA607B600346FB730B464C
:102A6000BB73FB7B1846FFF747F80446FB7B184611
:102A7000FFF72EF80146BA7B7B680093BB682046BF
:102A8000FFF7FEFC034618461437BD4690BD80B5DF
:102A900088B000AFBA607B600346FB730B46BB7324
:102AA000B97BF87B7B68BA68FFF7D2FF0346FB77F8
:102AB000FB7F022B02D0FB7F032B20D1FB7B184630
:102AC000FFF71AF8B861FB7B1846FFF701F8786149
:102AD0007869FFF76EFB7B6900221A707B6901221F
:102AE000DA70BB7BFD2B08D17B690222DA70BB69EF
:102AF0000022DA70B869FFF74AFC002300E0FB7F90
:102B000018462037BD4680BD80B584B000AF7860E0
:102B100039607B68DB78092B28BF0923FB73092206
:102B20000021386809F090FC7B680C33FA7B194669
:102B3000386809F0B5FC00BF1037BD4680BD80B5D0
:102B40008EB002AF3A601A460346FB710B46BB716A
:102B500013467B717B6CFB60BB6C3B61FB6C7B61E8
:102B60003B6DBB617B6DFB61BB6D3B62FB6D7B6253
:102B7000BB8F3B857B7987F82A3097F8383087F808
:102B80002B3097F8403087F82C303B680C3307F136
:102B90000C012122184609F083FC3B68002242F018
:102BA0004C025A7200229A720022DA72BA79F979CA
:102BB000982301932123009321233868FFF7DBFA40
:102BC000034618463037BD4680BD80B584B000AF9F
:102BD000786039607B68DB78212B28BF2123FB7369
:102BE00021220021386809F02FFC7B680C33FA7B26
:102BF0001946386809F054FC00BF1037BD4680BD47
:102C000080B584B000AF786039607B68DB78002BDA
:102C100014BF01230023DBB2FB73012200213868BB
:102C200009F012FC7B680C33FA7B1946386809F00E
:102C300037FC00BF1037BD4680BD80B58AB002AFFB
:102C40003A601A460346FB710B46BB7113467B7113
:102C5000FB6BBB603B6DFB60BB8E3B823B8F7B8223
:102C6000B7F84030BB82B7F84430FB82B7F84C303D
:102C70003B837B79BB7697F82830FB7697F82C302E
:102C80003B7797F830307B7797F84830BB773B68D5
:102C90000C3307F108011722184609F001FC3B68C4
:102CA000002242F065025A7200229A720022DA7201
:102CB000BA79F979C223019317230093172338684F
:102CC000FFF759FA034618462037BD4680BD80B548
:102CD00086B002AF3A601A460346FB710B46BB71E1
:102CE00013467B71BB69BB607B793B733B7F7B7316
:102CF0003B680C3307F108010622184609F0D0FBA7
:102D00003B68002242F066025A7200229A72002248
:102D1000DA72BA79F97986230193062300930623A0
:102D20003868FFF728FA034618461037BD4680BDBD
:102D300080B584B000AF786039607B68DB78062BA3
:102D400028BF0623FB7306220021386809F07CFBAC
:102D50007B680C33FA7B1946386809F0A1FB00BF89
:102D60001037BD4680BD80B586B002AF3A601A46C6
:102D70000346FB710B46BB7113467B717B793B733A
:102D80003B7E7B733B680C33BA891A803B68002218
:102D900042F067025A7200229A720022DA72BA79FD
:102DA000F979512301930223009302233868FFF736
:102DB000E2F9034618461037BD4680BD80B584B0A1
:102DC00000AF786039607B68DB78022B28BF022374
:102DD000FB7302220021386809F036FB7B680C3354
:102DE000FA7B1946386809F05BFB00BF1037BD4617
:102DF00080BD80B58AB002AFBA607B600346FB73CA
:102E00000B46BB737B683B61BB6A7B61FB6ABB6142
:102E10003B6BFB61BB680C3307F1100110221846B5
:102E200009F03EFBBB68002262F02F025A720022BA
:102E300042F005029A720022DA72BA7BF97BAC2367
:102E40000193102300931023B868FFF794F9034609
:102E500018462037BD4680BD80B584B000AF78608D
:102E600039607B68DB78102B28BF1023FB7310229E
:102E70000021386809F0E8FA7B680C33FA7B1946C0
:102E8000386809F00DFB00BF1037BD4680BD00005B
:102E900080B500AF03F0F2FF00F088F8FEF7B0F95C
:102EA000FEF70CF803F0C4FA03F0F0FB03F05CFE4D
:102EB00003F030FE03F0ACFCFDF774FF00F06CF99A
:102EC00004F034F802462C4B1B68D31A41F28732C7
:102ED000934213D9294B1B78032B03D0274B1B7824
:102EE000072B0BD1264B1B78002B07D1244B01223B
:102EF0001A7004F01BF803461F4A1360214BB3F904
:102F00000030214A93421BDB1E4BB3F9003043F2E1
:102F1000D302934214DC1B4BB3F900301846FDF783
:102F200007FD034619491846FDF756FD03461A46A4
:102F3000174B1A60114B1B78032B01D101F0A4FF32
:102F4000144B1B78DBB2002B06D0124B00221A70F8
:102F50001149124800F082FE114B1B78DBB2002BA6
:102F600006D00F4B00221A700E490F4800F076FE73
:102F7000024800F0F1F9A3E7980300207503002050
:102F80008C0300200800002085EAFFFF0AD7233CBD
:102F900080030020F400002000380140F8000020E9
:102FA000F5000020004400403402002080B594B0B9
:102FB00000AF07F1280328220021184609F044FA3F
:102FC00007F1140300221A605A609A60DA601A61ED
:102FD0003B1D00221A605A609A60DA600223BB62CD
:102FE0000123BB631023FB6302237B640023BB64C8
:102FF0004FF46013FB6407F12803184605F0BCFC8E
:103000000346002B01D002F0BDF90F237B610223A0
:10301000BB610023FB614FF480633B6200237B6252
:1030200007F114030221184605F028FF0346002B80
:1030300001D002F0A7F902237B604FF44043FB600C
:103040003B1D184606F0A8F80346002B01D002F0FD
:1030500099F900BF5037BD4680BD000098B500AF5C
:10306000174B1B6817491846FDF7B6FC03461C466C
:10307000FDF712FF03461846FDF756FC03461249BA
:103080001846FDF7A9FC034610491846FDF758FD00
:1030900003460F491846FDF79FFC03461946204694
:1030A000FDF792FB03464FF081411846FDF748FDBE
:1030B00003461A46024B1A60014B1B68184698BD1E
:1030C0009C03002000004040CDCC044100F07F452F
:1030D0003333534080B582B000AF03F027FF386030
:1030E00003F024FF78600AE0FFF7B8FF0346254AA3
:1030F000136003F01BFF78600A2003F021FF7A6859
:103100003B68D31AB3F5FA7FEED31E4B1B681E49FA
:103110001846FDF7FFFD0346002B17D0194B1B681F
:103120001A491846FDF714FE0346002B0ED0002264
:103130001021174805F0EFFB1E2003F001FF0122CC
:103140004FF40041134805F0E6FB17E00D4B1B68F8
:103150000D491846FDF7FCFD0346002B00D10DE09C
:10316000012210210A4805F0D6FB1E2003F0E8FEDC
:1031700000224FF40041074805F0CDFB00BF08379F
:10318000BD4680BD880300203333F340000040403B
:1031900000080140000C014080B582B000AF204B18
:1031A0007B607B681B68B3F1A53F0ED17B685B68D1
:1031B0009AB21C4B1A807B689B689AB21A4B1A8091
:1031C0007B68DB68DAB2194B1A70184B1B78002B3E
:1031D00002D044F61F6200E00022154B1A80134B08
:1031E0001B78184603F02CFC0021124806F064FB03
:1031F0000821104806F060FB00F086F801220E4915
:103200000E4808F04EFA01F097FD01F0D9FD034693
:103210000B4A1360FFF75EFF00BF0837BD4680BD55
:1032200000FC01080A0000200C000020940300208C
:10323000840300201C09002071030020800B002063
:103240008003002080B582B000AF03F06FFE78608D
:10325000234B1B78DBB2002B36D1224B1B78022B81
:1032600023D0022B39DC002B02D0012B09D034E013
:1032700000F03CF81C4A7B6813601A4B01221A705C
:103280002BE0194B1B687A68D31AD22B1ED9144B2A
:103290001B78DBB2012B1BD000F036F8124A7B689A
:1032A0001360104B02221A7010E00D4B1B78DBB23A
:1032B000022B0FD00C4B1B687A68D31A642B0BD9E6
:1032C000084B00221A7007E000BF06E000BF04E0D0
:1032D00000BF02E000BF00E000BF0837BD4680BD70
:1032E00074030020A0030020A403002080B500AFD9
:1032F000252004F09AFB034808F016F901F076FC4B
:1033000000BF80BD380B002080B500AF0F4B93F895
:103310003D30DBB2012B10D10C4806F039FA0B4BD3
:103320001B686FF001021A611E2004F07EFB074843
:1033300006F07EF9054803F04BFB03F0EBFB01229E
:103340000349044808F0ADF900BF80BD840A00209D
:1033500070030020380B002080B592B000AF786079
:103360007B681B78082B00F2748401A252F823F0CA
:10337000953300082F340008B73400086936000878
:10338000E3360008AD380008893A0008DD3300084C
:10339000613B0008FFF756FF03F0C8FD0346A54A4E
:1033A0001360A54B1B78DBB2002B00F02984A34BE4
:1033B0001B78002B04D07B6801221A7000F020BC1F
:1033C0009E4B5B78002B04D07B6803221A7000F0C0
:1033D00017BC7B6802221A7000F012BC984B1B7855
:1033E000002B0AD040F2AA5001F058F940F2DC500C
:1033F00001F088F9924B00221A70904BDB78002B79
:1034000004D0904B1B88B3F57A7F0AD08B4B9B7806
:10341000002B00F011848B4B1B88B3F5FA6F40F042
:103420000B8440F2DC5001F06DF900F005BCEFF3C5
:103430001083FB62FB6A7B6372B600BF824B1B7812
:103440001A466FF0100313411A46804B1B68134055
:103450007E4A13607B6B3B633B6B83F3108800BF3A
:10346000764BDB78002B02D040F2DC5301E04FF4C6
:103470007A73184601F046F9704B1B78002B08D080
:1034800040F2726001F00AF903F050FD0346694A08
:10349000136003F04BFD0246664B1B68D31A41F2E2
:1034A0007072934240F2CA83694B00221A707B68A3
:1034B00002221A70C2E3664B1B78032B00F2C08312
:1034C00001A252F823F000BFD9340008E934000803
:1034D0002F3500080F36000840F2AA5001F0DEF840
:1034E0005B4B01221A70A4E05A4B1B78002B07D1CA
:1034F00003F01CFD0346584A1360564B01221A7014
:1035000003F014FD0246544B1B68D31AB3F5C87F71
:10351000C0F08A804FF4FA6001F0F4F803F006FD81
:103520000346444A13604A4B02221A707CE0434B24
:103530001B78002B0CD0474B00221A707B680122AD
:103540001A70434B00221A70444B00221A7070E02C
:103550003A4B5B78002B15D03E4B00221A7040F29C
:10356000DC5001F0CFF803F0E1FC0346314A136070
:103570007B6803221A70364B00221A70374B0022E8
:103580001A7056E02D4B9B78002B13D040F2DC5084
:1035900001F0B8F8324B00221A702E4B00221A703C
:1035A0002D4B00221A607B6806221A70284B0022DD
:1035B0001A703EE003F0BAFC02461E4B1B68D31A99
:1035C000B3F57A5F32D940F2DC5001F09BF8244B1E
:1035D00000221A70214B1B78002B06D0214B0122B0
:1035E0001A707B6808221A7023E01C4B01221A70A3
:1035F000174B03221A70184B00221A60154B002239
:103600001A7003F093FC03460A4A136011E003F0BA
:103610008DFC0246074B1B68D31AB3F5FA7F07D31C
:103620000B4B00221A7003E000BF09E300BF07E361
:1036300000BF05E3A80300207403002074000020ED
:10364000040000206C00002000000020780300200F
:10365000AC030020AD030020B0030020B403002021
:10366000B503002095030020EFF310837B627B6A93
:10367000BB6372B600BFB14B1B781A4610231341CF
:103680001A46AF4B1B681343AD4A1360BB6BBB625A
:10369000BB6A83F3108800BFAA4B1B78002B03D0B2
:1036A0007B6801221A70D4E2A74B1B8840F2DC52DF
:1036B000934208D040F2DC5001F024F803F036FCCD
:1036C0000346A24A136003F031FC02469F4B1B687D
:1036D000D31AC72B40F2B68240F2AA5000F0DEFFA8
:1036E000B0E29B4B1B78052B00F2AE8201A252F890
:1036F00023F000BF0D370008273700085B370008AC
:1037000089370008B53700087F3800084FF47A7011
:1037100000F0F8FF03F00AFC03468C4A13608C4B60
:1037200001221A70C1E003F001FC0246874B1B68BE
:10373000D31AC82B04D8834BDB78002B00F0AC8065
:1037400040F2DC5000F0DEFF03F0F0FB03467F4A5E
:1037500013607F4B02221A709EE003F0E7FB0246E3
:103760007A4B1B68D31AB3F5967F40F2978040F2EC
:10377000726000F093FF03F0D9FB0346734A1360B5
:10378000734B03221A7089E003F0D0FB02466F4BA3
:103790001B68D31AC82B40F283804FF4FA6000F004
:1037A000B1FF03F0C3FB03466A4A1360684B04226F
:1037B0001A7075E0634B9B78002B10D0644B00228D
:1037C0001A7040F2DC5000F09DFF634B00221A702B
:1037D0007B6806221A70614B00221A7065E0594B13
:1037E0005B78002B1CD05E4B1B78002B03D15C4B0D
:1037F00001221A701FE05A4B1B78022B1BD1584B29
:1038000000221A7040F2DC5000F07CFF504B002286
:103810001A707B6803221A70504B00221A7044E021
:10382000484B5B78002B06D14D4B1B78012B02D106
:103830004B4B02221A7003F079FB0246454B1B6882
:10384000D31AB3F5FA5F2DD940F2DC5000F05AFFDD
:10385000424B1B78002B06D0424B01221A707B682A
:1038600008221A701EE03D4B01221A70384B0522C7
:103870001A7003F05BFB0346344A136012E003F056
:1038800055FB0246314B1B68D31AB3F5FA7F0BD9AF
:103890002F4B00221A7007E000BFD5E100BFD3E133
:1038A00000BFD1E100BFCFE100BFCDE1284B1B78C5
:1038B000052B00F2CB8101A252F823F0D538000885
:1038C000EF380008233900086939000895390008E5
:1038D0005F3A00084FF47A7000F014FF03F026FB03
:1038E00003461A4A13601A4B01221A70CBE003F008
:1038F0001DFB0246154B1B68D31AC82B04D8114B6D
:10390000DB78002B00F0B88040F2DC5000F0FAFECB
:1039100003F00CFB03460D4A13600D4B02221A7094
:10392000AAE040F2726000F0B9FE03F0FFFA03462D
:10393000064A1360064B03221A70A4E00000002020
:1039400078030020740000206C000020A8030020F1
:10395000AC030020B8030020B5030020B40300200E
:10396000BC0300209503002003F0E0FA0246A54BBB
:103970001B68D31AC82B40F281804FF4FA6000F024
:10398000C1FE03F0D3FA03469F4A13609F4B042203
:103990001A7073E09E4B9B78002B10D09B4B00223B
:1039A0001A7040F2DC5000F0ADFE9A4B00221A7003
:1039B0007B6806221A70984B00221A7063E0944BC1
:1039C0005B78002B14D0954B1B78002B08D1934BC0
:1039D00001221A7003F0AAFA03468B4A136017E01B
:1039E0008E4B1B78022B13D18C4B00221A700FE0E8
:1039F000874B5B78002B0BD1884B1B78012B07D1B1
:103A0000864B02221A7003F091FA03467E4A136035
:103A100003F08CFA02467C4B1B68D31AB3F5FA5FAD
:103A20002ED97E4B00221A7040F2DC5000F06AFE64
:103A3000794B1B78002B06D0794B01221A707B68DA
:103A400008221A701CE0744B01221A706F4B052279
:103A50001A7003F06BFA03466A4A136010E003F031
:103A600065FA0246674B1B68D31AB3F5FA7F09D98A
:103A7000664B00221A7005E000BFE7E000BFE5E0FA
:103A800000BFE3E000BFE1E0EFF31083FB61FB69FF
:103A9000FB6372B600BF634B1B781A466FF01003CE
:103AA00013411A46604B1B6813405F4A1360FB6B5F
:103AB0003B623B6A83F3108800BF554B1B78002B99
:103AC00005D0524B00221A707B6801221A7040F216
:103AD000726000F0E3FD4E4B9B78002B0BD04B4BFC
:103AE0001B78002B07D103F021FA0346454A1360E7
:103AF000464B01221A70454B1B78012B0FD103F066
:103B000015FA02463F4B1B68D31AB3F5FA7F06D964
:103B10004FF47A7000F0F6FD3C4B02221A703C4BD9
:103B2000DB78002B0AD03A4B9B78002B06D1394B1F
:103B300001221A704FF4FA6000F0E4FD344BDB7898
:103B4000002B04D0324B9B78002B00F08180314B4E
:103B50001B78002B7CD040F2DC5000F0D3FD77E0E6
:103B600003F0E4F90246314B1B68D31AB3F5967F94
:103B700010D303F0DBF903462C4A13602C4B1B785F
:103B800083F00103DAB22A4B1A704FF4005129482E
:103B900004F0D9FE264B1B78002B17D0EFF31083CF
:103BA0007B617B693B6472B600BF1E4B1B781A4673
:103BB000102313411A461C4B1B6813431A4A136007
:103BC0003B6CBB61BB6983F3108818E0EFF3108393
:103BD000FB60FB687B6472B600BF124B1B781A4611
:103BE0006FF0100313411A460F4B1B6813400E4A27
:103BF00013607B6C3B613B6983F3108800BF28E056
:103C000000BF26E0A8030020B8030020AC0300207A
:103C100074000020B5030020B4030020BD03002081
:103C2000950300200000002078030020C00300203E
:103C3000C4030020000C014000BF0AE000BF08E000
:103C400000BF06E000BF04E000BF02E000BF00E0EC
:103C500000BF00BF4837BD4680BD00BF90B5ADF581
:103C6000237D02AF07F52073A3F51F73186007F5D6
:103C70002073A3F52073196007F52073A3F51F7354
:103C80001B685A7A997A09020A43DB7A1B041343A8
:103C9000B3F5BA6F00F0D380B3F5BA6F00F390823A
:103CA000002B00F0AC80002BC0F28A82672B00F35F
:103CB00087824C2BC0F284824C3B1B2B00F280820B
:103CC00001A252F823F000BF0D400008C1410008D6
:103CD000C1410008C1410008C1410008C1410008BC
:103CE000C1410008C1410008C1410008C1410008AC
:103CF000C1410008C1410008C1410008C14100089C
:103D0000C1410008C1410008C1410008C14100088B
:103D1000C1410008C1410008C1410008C14100087B
:103D2000C1410008C1410008393D0008C1410008F7
:103D30006B3D0008DF3D000807F51B7207F5207397
:103D4000A3F51F7311461868FEF75AFFA64B1B78A0
:103D5000DBB2002B05D1A44B02221A70A34B012227
:103D60001A70A34B07221A702AE207F5197207F599
:103D70002073A3F51F7311461868FEF7D9FF07F5E6
:103D80001973184600F02AFA97F86812D7F86432C7
:103D900007F590720120019000930B46A9210120A4
:103DA000FEF795FF07F5907207F1080311461846D4
:103DB000FEF70EFA0346A7F87A328E4B1B78DBB279
:103DC000002B40F0F6818B4B01221A70B7F87A2253
:103DD00007F108031946884807F088FCE9E107F570
:103DE000187207F52073A3F51F7311461868FEF7C4
:103DF000E5FF07F51873184600F05CFAE0E107F5F7
:103E0000157207F52073A3F51F7311461868FEF7A6
:103E10007BFE97F85932A7F87832B7F87832002B42
:103E200000F0C981704B1B78DBB2002B40F0C381DE
:103E30006D4B02221A706D4B01221A70BBE107F51F
:103E4000117207F52073A3F51F7311461868FFF769
:103E500003F8D7F84C3269491846FCF751FF03467E
:103E6000002B1CD0604B1B78DBB2002B04D05F4BC7
:103E70001B78FF2B40F0A181D7F844324FF07E51E0
:103E80001846FCF7A1FC03461846FCF76BFF0346F7
:103E9000DAB2564B1A70544B02221A708DE1D7F8E1
:103EA0004C324FF000011846FCF72AFF0346002B66
:103EB00030D0534B4FF4FA621A80EFF31083C7F8F7
:103EC0007032D7F87032C7F87C3272B600BF474BF9
:103ED0001B781A466FF00F0313411A46494B1B68B3
:103EE00002EA0304D7F850321846FCF73BFF0346BA
:103EF0002343444A1360D7F87C32C7F87432D7F8AA
:103F0000743283F3108800BF3E4B1B68184600F0E4
:103F100085FA55E1364B1B78082B0DD1334B1B78B6
:103F200001331846FCF704FD0246D7F84C32194617
:103F3000104600F0D1FA43E1D7F848422B4B1B78EA
:103F40001846FCF7F5FC034619462046FCF7D8FE58
:103F50000346002B09D1D7F848324FF0000118462C
:103F6000FCF7CEFE0346002B1FD0214B1B78032B02
:103F700009D1D7F84C321846FCF7F4FE0346DAB202
:103F80001B4B1A702EE01A4B1B78062B2AD1174BAD
:103F90001B7801331846FCF7CBFC0246D7F84C32AD
:103FA0001946104600F098FA1CE0D7F84C324FF052
:103FB00081411846FCF7A4FE0346002B09D1D7F82F
:103FC0004C3211491846FCF79BFE0346002B00D1EA
:103FD000F6E0D7F84832D7F84C221146184600F0E0
:103FE0007BFAEDE000BFEBE074030020000000204E
:103FF0007503002072030020380B002000008A4265
:1040000002000020780300200000A04007F5907215
:1040100007F52073A3F51F7311461868FEF7D5FD49
:1040200007F52073A3F5B0739B8BD32B40F0A280D0
:1040300007F52073A3F520731B68634A934240F091
:104040009980624B1B68184600F0E8F907F5207369
:10405000A3F5B073DB7FA92B40F0B18007F5207387
:10406000A3F5B0731B684FF000011846FCF748FE3B
:104070000346002B2AD1564B1B781846FCF758FCF8
:10408000024607F52073A3F5B0731B681946104666
:10409000FCF736FE0346002B18D04E4B1B78032B43
:1040A00003D14C4B04221A7063E04A4B1B78082B57
:1040B0005FD1474B1B7801331846FCF739FC0346A8
:1040C0004FF08141184600F007FA52E007F52073DF
:1040D000A3F5B0731B684FF000011846FCF710FE03
:1040E0000346002B1CD13A4B1B781846FCF720FCEA
:1040F000024607F52073A3F5B0731B6819461046F6
:10410000FCF708FE0346002B0AD007F52073A3F541
:10411000B0731B684FF08141184600F0DDF929E0CB
:1041200007F52073A3F5B0731B684FF00001184624
:10413000FCF7E6FD0346002B1CD0264B1B78032B17
:1041400003D1244B05221A7014E0224B1B78062B56
:1041500003D0204B1B78082B0CD11D4B1B7801334F
:104160001846FCF7E5FB03461B49184600F0B4F976
:1041700000E000BF164B1B78FF2B21D107F5207301
:10418000A3F520731B68104A934219D107F52073D9
:10419000A3F5B0735B694FF07E511846FCF714FB32
:1041A00003461846FCF7DEFD0346DAB2084B1A70E8
:1041B00006E000BF04E000BF02E000BF00E000BF77
:1041C00007F52177BD4690BD0038014078030020F7
:1041D00000000020750300200000A04080B586B0DC
:1041E00000AF78607B681B79032B54D801A252F88A
:1041F00023F000BF054200082342000841420008A6
:10420000554200087B681B681846FCF7ABFD034667
:104210009AB2234B1A80224B1A88224B1B685A638E
:1042200039E07B681B681846FCF79CFD03469AB290
:104230001D4B1A801C4B1A881A4B1B685A632AE0C4
:104240007B681B681846FCF78DFD0346DAB2174BF6
:104250001A7020E04FF0A533BB60114B1B88FB6048
:10426000114B1B883B61114B1B787B6107F10803E5
:10427000184600F081FC0D4B1B78002B02D044F651
:104280001F6200E000220A4B1A80084B1B78184678
:1042900002F0D6FB00BF00BF1837BD4680BD00BF8F
:1042A0000A0000201C0900200C00002094030020BC
:1042B0008403002080B5ADF5147D02AF07F51273BD
:1042C000A3F51173186007F51273A3F511731B683A
:1042D0001B780A2B65D801A252F823F00943000885
:1042E000A3430008134300081D43000827430008A8
:1042F000314300083B430008A34300084343000840
:10430000554300087D43000840F2726000F0C6F992
:1043100047E040F2AA5000F0C1F942E04FF47A7051
:1043200000F0F0F93DE040F2DC5000F0EBF938E04D
:104330004FF4FA6000F0E6F933E0314B04221A70D2
:104340002FE040F2AA5000F0A9F940F2DC5000F052
:10435000D9F926E02B4B4FF480721A802A4B1B7838
:10436000002B01D0002201E044F61F62274B1A8087
:10437000264B1A88264B1B689A6312E0214B0022B9
:104380001A80214B1B78002B02D044F61F6200E0FC
:1043900000221E4B1A801D4B1A881D4B1B689A6306
:1043A00000BF07F51273A3F511731B681B7807F59F
:1043B000907201210091A9210120FEF7D4FC07F59C
:1043C000907207F1080311461846FDF701FF0346F6
:1043D000A7F846320F4B1B78DBB2002B0AD10D4BEE
:1043E00001221A70B7F8462207F1080319460A4855
:1043F00007F07CF900BF07F51277BD4680BD00BF0E
:10440000750300208603002094030020840300200D
:104410001C09002072030020380B0020B0B5ADF558
:104420001C7D0AAF07F51273A3F51173186007F529
:104430001273A3F511731868FCF776FA0546214B41
:104440001C68214B1B781846FCF76EFA034607F5EB
:1044500090724FF000010991089307941B4B06934B
:1044600005954FF0000304934FF0000303930023DE
:104470000293D3230193BE230093FF23A92101209C
:10448000FEF75DFB07F5907207F108031146184629
:10449000FDF79EFE0346A7F846320D4B1B78DBB2B4
:1044A000002B0AD10A4B01221A70B7F8462207F1F5
:1044B00008031946074807F019F900BF07F51277F6
:1044C000BD46B0BD880300200000002000509C467F
:1044D00072030020380B002090B5ADF5177D04AFB6
:1044E00007F51273A3F51173186007F51273A3F59E
:1044F00012731960224B1B781846FCF715FA044614
:10450000204B1B681846FCF70FFA034607F590721C
:10451000029307F51273A3F512731B68019307F555
:104520001273A3F511731B6800932346A921012080
:10453000FEF75FFC07F5907207F108031146184675
:10454000FDF746FE0346A7F8463207F51273A3F5BA
:1045500012734FF000011868FCF7D2FB0346002BE2
:1045600001D0094800E00948B7F8462207F10801E0
:10457000642307F00BF800BF07F51377BD4690BD25
:104580000000002078030020380B0020800B002062
:104590002DE9F041ADF5207D0CAF364B93F800E0EE
:1045A000344B5B78334AD278324989783248008874
:1045B000324C2488324D2D68324E3668B6B2DFF860
:1045C000C8C0DCF800C0C7F80CC0B7F80CC0C7F80A
:1045D0000CC0DFF8B8C0DCF800C0C7F808C097F816
:1045E00008C0C7F808C0DFF8A8C0BCF800C0C7F80A
:1045F00004C007F5947C44F62868CDF82880D7F8E5
:104600000480CDF82480D7F80880CDF82080D7F832
:104610000C80CDF81C8006960595049403900291B9
:104620000192009373466246A9210120FEF705FB23
:1046300007F5947207F1100311461846FDF7C8FDFF
:104640000346A7F84E32134B1B78DBB2002B0AD17E
:10465000104B01221A70B7F84E2207F110031946C9
:104660000D4807F043F800BF07F51477BD46BDE8D5
:10467000F08100BF74000020700000206C0000205A
:104680008003002004FC010808FC01080CFC010860
:104690008603002072030020380B002080B485B010
:1046A00000AF7860134B1B881A467B6893421BD07F
:1046B00040F2DC53FB607B6840F27262934203D1AC
:1046C0000D4B1B88FB6007E07B6840F2AA529342C7
:1046D00002D10A4B1B88FB60094B1B68FA685A63BE
:1046E0007B689AB2034B1A8000BF1437BD4680BC6A
:1046F000704700BF700000200A0000200C0000205E
:104700001C09002080B483B000AF7860094B1B887F
:104710001A467B68934207D0074B1B687A68DA63B6
:104720007B689AB2034B1A8000BF0C37BD4680BC31
:10473000704700BF6C0000201C09002080B582B0CB
:1047400000AF78607B681B681B4A934212D11B4BF9
:1047500019781B4B1B4A0020FEF799F90346002BE2
:1047600002D0194B01221A7001221449174806F091
:1047700098FF1DE07B681B68154A934218D1154BC2
:104780001978154B154A0120FEF781F90346002BD5
:1047900009D0124B9B68C3F31723B3F5BA6F02D14C
:1047A0000F4B01221A7001220A490E4806F079FFC8
:1047B00000BF0837BD4680BD0038014070030020AF
:1047C0001C020020F8000020F4000020380B00201C
:1047D00000440040710300205803002034020020F0
:1047E000F5000020800B002080B584B000AF786019
:1047F0007B685B6C03F00803002B0AD00023FB608E
:104800007B681B681B68FB607B681B685B68FB60E0
:10481000FB687B681B68074A934201D1064B00E0A6
:10482000064B01221946786806F03BFF00BF10379F
:10483000BD4680BD00380140700300207103002098
:1048400080B483B000AF78607B681B68094A9342EC
:1048500003D1094B00221A7007E07B681B68074AE6
:10486000934202D1064B00221A7000BF0C37BD469E
:1048700080BC7047003801407203002000440040B3
:104880007303002090B587B000AF78607B681B6829
:10489000374A934267D17B681B7F012B63D100218C
:1048A000786805F0B9FE78610421786805F0B4FEF7
:1048B00038617B685B6801331846FCF735F80346BE
:1048C0002C491846FCF788F803461C462A4B1B68FF
:1048D0001846FCF729F8034619462046FCF730F93C
:1048E0000346FB603869FCF71FF803461946F86871
:1048F000FCF772F80346BB60204B1B78DBB2002B41
:1049000027D11F49B868FCF723FA0346002B1CD0B7
:104910001C49B868FCF7FEF90346002B15D01A4B6A
:104920001B780A2B0AD1154B1B78DBB2002B02D166
:10493000124B01221A70154B01221A70124B1B7870
:104940000133DAB2104B1A700DE00F4B00221A70CF
:1049500009E0B86800F01EF8B868FCF703FA0346EF
:104960009AB20B4B1A8000BF1C37BD4690BD00BFEA
:104970000008004000247449140000207403002043
:104980000080474400A00945B40800200000002032
:104990000600002080B582B000AF78606449786876
:1049A000FBF710FF03461A46624B1B681946104678
:1049B000FCF7B0F90346002B00F0AE805C49786844
:1049C000FBF702FF03461A465A4B1B68194610466E
:1049D000FCF7BEF90346002B00F09E80564B1B7877
:1049E0000133DAB2544B1A70534B1B78042B40F24C
:1049F0009A80514B00221A704E4B1B684F49184643
:104A0000FCF7A6F90346002B2CD04A4B1B684C49F7
:104A10001846FCF77FF90346002B23D0494B1B783F
:104A2000002B1FD0484B1B78032B03D1464B04228D
:104A30001A7013E0444B1B78062B03D0424B1B78B3
:104A4000082B0BD1414B1B7801331846FBF770FF45
:104A500003464FF081411846FFF73EFD394B0022D7
:104A60001A7058E0334B1B6839491846FCF770F947
:104A70000346002B2BD02F4B1B6836491846FCF7FA
:104A800049F90346002B22D02E4B1B78002B1ED059
:104A90002D4B1B78032B03D12B4B05221A7012E0F0
:104AA000294B1B78062B03D0274B1B78082B0AD1E8
:104AB000264B1B7801331846FBF73AFF034626497D
:104AC0001846FFF709FD1F4B00221A7023E0194B0F
:104AD0001B6822491846FCF73BF90346002B00D11E
:104AE00021E0144B1B681E491846FCF713F90346D6
:104AF000002B00D117E0144B1B78032B07D0124B6F
:104B00001B78062B03D0104B1B78082B0BD10D4BB9
:104B100001221A7007E006E0064A7B681360064B24
:104B200000221A7000E000BF00BF0837BD4680BDFC
:104B300000002041B8080020BC0800200000AF445D
:104B40000000C844BD0800207503002000000020BC
:104B50000080ED44004003450000A0400000614497
:104B60000080894480B483B000AF786000BF0C3708
:104B7000BD4680BC70470000B0B58AB000AF786019
:104B800003F0E2FA00233B61174BBB610123FB6199
:104B900007F10C0207F110031146184603F0BCFBA5
:104BA0007B683B6200237B6215E07B6A9B0003F11C
:104BB000006101F5FE317B6A9B003A6A13441B6871
:104BC00000221C46154622462B46022003F04CFAD2
:104BD0007B6A01337B627B6A032BE6D903F0DAFA46
:104BE00000BF2837BD46B0BD00FC010880B590B0BD
:104BF00000AF07F1300300221A605A609A60DA6051
:104C000007F11C0300221A605A609A60DA601A6188
:104C100007F10C0300221A605A609A60DA603B1DAB
:104C200000221A605A60424B424A1A60404B3F22AF
:104C30005A603F4B00229A603D4B4FF6FF72DA609C
:104C40003B4B00221A613A4B00229A61384804F02B
:104C500093FC0346002B01D000F094FB4FF48053EB
:104C60003B6307F130031946314805F0CBFB03469F
:104C7000002B01D000F086FB2D4804F023FF0346F3
:104C8000002B01D000F07EFB0423FB6150233B622C
:104C900000237B620023BB620023FB6207F11C033D
:104CA0001946234805F075FC0346002B01D000F09F
:104CB00069FB0023FB6001233B6100237B61002330
:104CC000BB6107F10C0300221946194805F03CFAB4
:104CD0000346002B01D000F055FB0223FB600223AA
:104CE0003B6107F10C0304221946114805F02CFA28
:104CF0000346002B01D000F045FB00237B6000231E
:104D0000BB603B1D19460A4806F0F4FA0346002B27
:104D100001D000F037FB0021054804F0F9FF042121
:104D2000034804F035FF00BF4037BD4680BD00BFDB
:104D3000840A00200008004080B588B000AF1B4BFB
:104D4000BB601B4BBB614FF48063BB83194BFB60A3
:104D500000233B6128233B7507F1080319461648D9
:104D6000FCF7D2F81448FCF7EFF800BF1248FCF744
:104D7000DEF80346002BF9D1104A3B1D126811469C
:104D800019800233120C1A703B1D19460A48FCF7B1
:104D9000FEF800BF0848FCF7CAF80346002BF9D11B
:104DA00000BF00BF2037BD4680BD00BFD009002036
:104DB000000C01406D4E000878000020D4C40008AB
:104DC00080B582B000AF2848FCF7CBF800BF26487A
:104DD000FCF7ADF80346002BF9D100BF2248FCF7E1
:104DE00042F9034683F00103DBB2002BF6D1002128
:104DF0001D48FCF74EF900BF1B48FCF798F8034626
:104E0000002BF9D11848FCF759F90346BB80012162
:104E10001548FCF73EF900BF1348FCF788F8034635
:104E2000002BF9D11048FCF749F90346FB80B7F98C
:104E300006301846FBF77CFD03461846FBF716FCC8
:104E400007A3D3E90023FBF783F902460B4610467C
:104E50001946FBF763FC034618460837BD4680BD7C
:104E60007B14AE47E17A843F7800002080B582B0A1
:104E700000AF7860034800F0CDFA00BF0837BD46A8
:104E800080BD00BF7800002080B584B000AF4FF037
:104E90000003BB60434B1B681946B868FBF794FCE2
:104EA00003467B6040497868FBF752FF0346002BBE
:104EB00009D03E4B1B78002B02D044F61F6300E064
:104EC0000023FB6065E038497868FBF723FF034661
:104ED000002B11D036497868FBF730FF0346002BD2
:104EE0000AD0324B1B78002B02D044F2506301E011
:104EF0004FF4FA63FB604CE02D497868FBF70AFF3A
:104F00000346002B11D02B497868FBF717FF0346A7
:104F1000002B0AD0254B1B78002B02D04FF47A537C
:104F200001E04FF47A63FB6033E022497868FBF7D5
:104F3000F1FE0346002B0AD01F497868FBF7FEFEFE
:104F40000346002B03D042F21073FB6021E01A49A4
:104F50007868FBF7DFFE0346002B11D0174978680D
:104F6000FBF7ECFE0346002B0AD0104B1B78002BFE
:104F700002D040F6B83301E044F26823FB6008E059
:104F80000A4B1B78002B02D044F61F6300E000237D
:104F9000FB600B4B1B68FA689A6300BF1037BD4675
:104FA00080BD00BF800300200000A04194030020CA
:104FB00000007041000020410000A040000048C2F5
:104FC0001C09002080B500AF2A4B1B78052B4FD859
:104FD00001A252F823F000BF67500008F14F00080B
:104FE0000950000827500008375000085F5000089B
:104FF0002148FBF7B6FF01F099FF03461F4A1360F3
:105000001C4B02221A7033E001F090FF02461B4B4A
:105010001B68D31A184AB2F87820934225D3154B4F
:1050200003221A7021E000211348FCF732F8114BDB
:1050300004221A701CE01048FBF779FF034683F046
:105040000103DBB2002B12D00B48FCF737F8034604
:105050001A460B4B1A80074B00221A7007E0054BCB
:1050600000221A7004E000BF02E000BF00E000BFB1
:1050700000BF80BD8C03002078000020900300203A
:105080000800002090B583B000AF0423FB71FB79CA
:10509000C3F10803FF2242FA03F3BB71594B1B789B
:1050A0005BB25B005CB24FF48041574803F01CFCDC
:1050B0000346002B0CBF01230023DBB25BB223436A
:1050C0005BB2DAB24F4B1A704E4B1A78BB79134071
:1050D000DBB2BA799A4203D14C4B01221A7009E033
:1050E000484B1A78BB791340DBB2002B02D1474BF7
:1050F00000221A70464B1B785BB25B005CB24FF427
:105100000041414803F0F0FB0346002B0CBF012394
:105110000023DBB25BB223435BB2DAB23C4B1A70C2
:105120003B4B1A78BB791340DBB2BA799A4203D170
:10513000364B01225A7009E0354B1A78BB7913407F
:10514000DBB2002B02D1314B00225A70314B1B785D
:105150005BB25B005CB201212F4803F0C5FB034644
:10516000002B0CBF01230023DBB25BB223435BB2F5
:10517000DAB2284B1A70274B1A78BB791340DBB28E
:10518000BA799A4203D1214B01229A7009E0214B4E
:105190001A78BB791340DBB2002B02D11B4B0022E3
:1051A0009A701E4B1B785BB25B005CB24FF40051EF
:1051B000154803F099FB0346002B0CBF0123002385
:1051C000DBB25BB223435BB2DAB2144B1A70134BFF
:1051D0001A78BB791340DBB2BA799A4203D10B4BF0
:1051E0000122DA7009E00D4B1A78BB791340DBB26B
:1051F000002B02D1054B0022DA7000BF0C37BD46F0
:1052000090BD00BFBE0800200010014074000020C7
:10521000BF080020C008002000140140C108002081
:1052200080B584B000AF4D4B1B889BB201339AB25E
:105230004A4B1A80FFF726FFFFF7C4FE484B1B8836
:105240009BB2002B24D0464B1B889BB2013B9AB2E9
:10525000434B1A80424B1B889BB2002B18D1EFF3B3
:1052600010837B607B68FB6072B600BF3D4B1B7890
:105270001A466FF00F0313411A463B4B1B6813404D
:10528000394A1360FB68BB60BB6883F3108800BFBA
:10529000324B1B889BB2B3F5FA7F1FD34FF480418A
:1052A000324803F050FB2D4B00221A80304B1B7804
:1052B000DBB2002B04D02F494FF00000FFF70CF9B0
:1052C000284B1B78FF2B09D0264B1B78012B05D9C7
:1052D0004FF000014FF00000FFF7FEF8264B1B785F
:1052E000072B12D1254B1B88002B0ED0234B1B887C
:1052F000013B9AB2214B1A80204B1B88002B04D112
:105300001E4B32221A80FFF743F91D4B1B88002BDE
:105310001FD0174B1B78DBB2022B1AD1164B1B7810
:10532000072B16D0164B1B88013B9AB2144B1A80E0
:10533000134B1B88002B0CD10A4B1B78012B08D177
:105340000F4B4FF47A721A80074B1B681846FFF711
:1053500065F800BF1037BD4680BD00BF7C0300204C
:10536000020000200000002078030020000C014013
:105370007403002000008A42750300200E00002004
:105380001000002080B400AF72B600BF00BFFDE780
:1053900080B584B000AF786039603B689B8A1A465C
:1053A0007B68DA603B689B8A1A047B681A613B68F9
:1053B0009B8A1A467B685A613B681A697B689A60C7
:1053C0003B681A687B681A603B689A687B685A6019
:1053D0003B681A7B7B6883F83C207B6818683B68D5
:1053E0005B681A460E2105F0A3F97B68FB60012378
:1053F000FB72FB7A002B02D0FB68DB6801E0FB68E4
:105400001B69FA689268136100BF00BF1037BD4680
:1054100080BD000080B5AAB000AF78607B6893F8CB
:105420003A30012B04D0022B00F0618200F0BDBDA8
:105430007B68C7F8A430D7F8A43093F83230072B34
:1054400000F2508201A252F823F000BF6D54000810
:10545000CB540008255500088F5500083D5600081C
:1054600061570008B357000805580008D7F8A43062
:105470001B681B6840F2F312DA62D7F8A4301B688D
:1054800040F2F312DA60D7F8A430C7F8A030002356
:1054900087F89F3097F89F30002B03D0D7F8A030C3
:1054A000DB6802E0D7F8A0301B69D7F8A02092682B
:1054B000136100BFD7F8A43093F832300133DAB269
:1054C000D7F8A43083F832200FE2D7F8A4301B6855
:1054D0001B686322DA62D7F8A4301B686322DA60A3
:1054E000D7F8A430C7F89830012387F8973097F899
:1054F0009730002B03D0D7F89830DB6802E0D7F85C
:1055000098301B69D7F898209268136100BFD7F8CC
:10551000A43093F832300133DAB2D7F8A43083F8EC
:105520003220E2E1D7F8A430C7F89030D7F89030B5
:105530009B689A68D7F890305B691340002B14BFC2
:1055400001230023DBB2002B09D0D7F8A4300322BB
:1055500083F83B20D7F8A40000F03EFFC5E1D7F860
:10556000A4301B681B6840F2F312DA62D7F8A4304B
:105570001B6840F2F312DA60D7F8A43093F83230A7
:105580000133DAB2D7F8A43083F83220ADE1D7F88E
:10559000A4309B8E1A46D7F8A43013441B7E1A46BB
:1055A000D7F8A43093F8333042FA03F303F0010341
:1055B000002B01D0092200E04522D7F8A4301B6857
:1055C0001B68DA62D7F8A4309B8E1A46D7F8A4304D
:1055D00013441B7E1A46D7F8A43093F8333042FAAE
:1055E00003F303F00103002B01D0092200E0452260
:1055F000D7F8A4301B68DA60D7F8A430C7F88C302D
:10560000002387F88B3097F88B30002B03D0D7F826
:105610008C30DB6802E0D7F88C301B69D7F88C201F
:105620009268136100BFD7F8A43093F83230013389
:10563000DAB2D7F8A43083F8322056E1D7F8A43094
:105640009B8E1A46D7F8A43013441B7E1A46D7F80F
:10565000A43093F8333042FA03F303F00103002B34
:1056600001D0452200E00922D7F8A4301B681B684E
:10567000DA62D7F8A4309B8E1A46D7F8A4301344C8
:105680001B7E1A46D7F8A43093F8333042FA03F35E
:1056900003F00103002B01D0452200E00922D7F8D6
:1056A000A4301B68DA60D7F8A430C7F8843001232F
:1056B00087F8833097F88330002B03D0D7F88430F5
:1056C000DB6802E0D7F884301B69D7F88420926841
:1056D000136100BFD7F8A43093F833300133DAB246
:1056E000D7F8A43083F83320D7F8A43093F83330B8
:1056F000082B2FD1D7F8A430002283F83320D7F815
:10570000A4309B8E01339AB2D7F8A4309A86D7F88A
:10571000A4309A8ED7F8A430DB8E9A4214D1D7F8F1
:10572000A4301B8F002B09D0D7F8A430052283F8B2
:105730003220D7F8A43000229A86D6E0D7F8A430D9
:10574000032283F83A20D0E0D7F8A430032283F86C
:105750003220CAE0D7F8A430032283F83220C4E014
:10576000D7F8A4301B681B680922DA62D7F8A43086
:105770001B680922DA60D7F8A430FB67002387F89A
:105780007B3097F87B30002B02D0FB6FDB6801E0A9
:10579000FB6F1B69FA6F9268136100BFD7F8A430E2
:1057A00093F832300133DAB2D7F8A43083F83220DC
:1057B0009BE0D7F8A4301B681B680922DA62D7F88F
:1057C000A4301B680922DA60D7F8A4307B67012374
:1057D00087F8733097F87330002B02D07B6FDB684B
:1057E00001E07B6F1B697A6F9268136100BFD7F885
:1057F000A43093F832300133DAB2D7F8A43083F80A
:10580000322072E0D7F8A4301B681B683B22DA62B2
:10581000D7F8A4301B683B22DA60D7F8A430FB66C7
:10582000FB6E9B689A68FB6E5B691340002B14BF8C
:1058300001230023DBB2002B24D0D7F8A430DB8E69
:105840001A46D7F8A4309B8E1344D7F8A4201344EB
:105850001B7E5AB2D7F8A43093F83330194601238F
:105860008B405BB213435AB2D7F8A430DB8E194693
:10587000D7F8A4309B8E0B44D1B2D7F8A4201344A0
:105880000A461A76D7F8A430052283F83220D7F8D2
:10589000A43093F833300133DAB2D7F8A43083F868
:1058A0003320D7F8A43093F83330082B1CD1D7F825
:1058B000A430002283F83320D7F8A4309B8E013324
:1058C0009AB2D7F8A4309A86D7F8A4309A8ED7F82F
:1058D000A4301B8F9A4207D1D7F8A430032283F853
:1058E0003A2001E000BF00E000BF00BF61E37B6839
:1058F000BB66BB6E93F832300C2B00F2518301A2D1
:1059000052F823F03959000885590008CD5900088C
:10591000235A0008975A00082F5B0008775B00089D
:10592000BF5B0008135C00085B5C0008A35C000818
:10593000955D00082F5E0008BB6E1B681B6840F277
:10594000F312DA62BB6E1B6840F2F312DA60BB6ED0
:105950007B66002387F8633097F86330002B02D012
:105960007B6EDB6801E07B6E1B697A6E9268136167
:1059700000BFBB6E93F832300133DAB2BB6E83F8EE
:10598000322010E3BB6E1B681B686322DA62BB6EB9
:105990001B686322DA60BB6EFB65012387F85B300E
:1059A00097F85B30002B02D0FB6DDB6801E0FB6DEC
:1059B0001B69FA6D9268136100BFBB6E93F83230B9
:1059C0000133DAB2BB6E83F83220ECE2BB6E7B654A
:1059D0007B6D9B689A687B6D5B691340002B14BFDD
:1059E00001230023DBB2002B07D0BB6E032283F818
:1059F0003B20B86E00F0F0FCD5E2BB6E1B681B6864
:105A000040F2F312DA62BB6E1B6840F2F312DA6006
:105A1000BB6E93F832300133DAB2BB6E83F83220BA
:105A2000C1E2BB6E1B7E1A46BB6E93F8333042FA5E
:105A300003F303F00103002B09D0BB6E1B681B6846
:105A40000922DA62BB6E1B680922DA6008E0BB6ECD
:105A50001B681B684522DA62BB6E1B684522DA6050
:105A6000BB6E3B65002387F84F3097F84F30002B13
:105A700002D03B6DDB6801E03B6D1B693A6D9268BB
:105A8000136100BFBB6E93F832300133DAB2BB6EE4
:105A900083F8322087E2BB6E1B7E1A46BB6E93F8FA
:105AA000333042FA03F303F00103002B09D0BB6E3D
:105AB0001B681B684522DA62BB6E1B684522DA60F0
:105AC00008E0BB6E1B681B680922DA62BB6E1B68AC
:105AD0000922DA60BB6EBB64012387F8473097F870
