:020000040800F2
:1000000000500020816B0008FD62000805630008B5
:100010000D630008156300081D6300080000000060
:100020000000000000000000000000002563000840
:1000300031630008000000003D63000849630008C8
:10004000C96B0008C96B0008C96B0008C96B0008C0
:10005000C96B0008C96B0008C96B0008C96B0008B0
:10006000C96B0008C96B0008C96B0008C96B0008A0
:10007000C96B0008C96B000859630008C96B000808
:10008000C96B00086D630008C96B0008C96B0008E4
:10009000C96B0008C96B0008C96B0008C96B000870
:1000A000C96B0008C96B0008C96B0008C96B000860
:1000B00081630008C96B000895630008C96B0008DC
:1000C000C96B0008C96B0008C96B0008C96B000840
:1000D000C96B0008A9630008BD630008C96B00086C
:1000E000C96B0008C96B0008C96B0008000000005C
:1000F0000000000000000000000000000000000000
:0C01000000000000000000005FF808F1A3
:10010C0010B5054C237833B9044B13B10448AFF345
:10011C0000800123237010BD20000020000000008F
:10012C0078C2000808B5034B1BB103490348AFF371
:10013C00008008BD000000002400002078C20008E8
:10014C0080F0004002E000BF81F0004142001FBF80
:10015C005FEA410392EA030F7FEA226C7FEA236C89
:10016C006AD04FEA1262D2EB1363C1BFD21841407E
:10017C0048404140B8BF5B42192B88BF704710F014
:10018C00004F40F4000020F07F4018BF404211F0B7
:10019C00004F41F4000121F07F4118BF494292EA1F
:1001AC00030F3FD0A2F1010241FA03FC10EB0C004B
:1001BC00C3F1200301FA03F100F0004302D54942D8
:1001CC0060EB4000B0F5000F13D3B0F1807F06D385
:1001DC0040084FEA310102F10102FE2A51D2B1F17D
:1001EC00004F40EBC25008BF20F0010040EA030072
:1001FC007047490040EB0000013A28BFB0F5000FF2
:10020C00EDD2B0FA80FCACF1080CB2EB0C0200FAA7
:10021C000CF0AABF00EBC25052421843BCBFD040F6
:10022C001843704792F0000F81F4000106BF80F470
:10023C0000000132013BB5E74FEA41037FEA226C33
:10024C0018BF7FEA236C21D092EA030F04D092F0FE
:10025C00000F08BF0846704790EA010F1CBF002032
:10026C00704712F07F4F04D1400028BF40F000408F
:10027C00704712F100723CBF00F50000704700F0AF
:10028C00004343F0FE4040F4000070477FEA2262D6
:10029C0016BF08467FEA23630146420206BF5FEAA7
:1002AC00412390EA010F40F4800070474FF00003A7
:1002BC0004E000BF10F0004348BF40425FEA000C6E
:1002CC0008BF704743F0964301464FF000001CE016
:1002DC0050EA010208BF70474FF000030AE000BF6C
:1002EC0050EA010208BF704711F0004302D54042AA
:1002FC0061EB41015FEA010C02BF8446014600201C
:10030C0043F0B64308BFA3F18053A3F50003BCFA36
:10031C008CF2083AA3EBC25310DB01FA02FC6344E3
:10032C0000FA02FCC2F12002BCF1004F20FA02F2EA
:10033C0043EB020008BF20F00100704702F12002DD
:10034C0001FA02FCC2F1200250EA4C0021FA02F23E
:10035C0043EB020008BF20EADC7070474FF0FF0C43
:10036C001CEAD0521EBF1CEAD15392EA0C0F93EA3E
:10037C000C0F6FD01A4480EA010C400218BF5FEAE0
:10038C0041211ED04FF0006343EA501043EA511153
:10039C00A0FB01310CF00040B1F5000F3EBF49004D
:1003AC0041EAD3715B0040EA010062F17F02FD2A51
:1003BC001DD8B3F1004F40EBC25008BF20F0010034
:1003CC00704790F0000F0CF0004C08BF49024CEA4B
:1003DC00502040EA51207F3AC2BFD2F1FF0340EADD
:1003EC00C250704740F400004FF00003013A5DDC4E
:1003FC0012F1190FDCBF00F000407047C2F100028F
:10040C00410021FA02F1C2F1200200FA02FC5FEA7B
:10041C00310040F1000053EA4C0308BF20EADC70C5
:10042C00704792F0000F00F0004C02BF400010F437
:10043C00000F013AF9D040EA0C0093F0000F01F0E4
:10044C00004C02BF490011F4000F013BF9D041EA06
:10045C000C018FE70CEAD15392EA0C0F18BF93EA08
:10046C000C0F0AD030F0004C18BF31F0004CD8D132
:10047C0080EA010000F00040704790F0000F17BFB9
:10048C0090F0004F084691F0000F91F0004F14D0FF
:10049C0092EA0C0F01D142020FD193EA0C0F03D157
:1004AC004B0218BF084608D180EA010000F000405A
:1004BC0040F0FE4040F40000704740F0FE4040F435
:1004CC00400070474FF0FF0C1CEAD0521EBF1CEAD4
:1004DC00D15392EA0C0F93EA0C0F69D0A2EB0302F2
:1004EC0080EA010C49024FEA402037D04FF080538C
:1004FC0043EA111143EA10130CF000408B4238BF51
:10050C005B0042F17D024FF4000C8B4224BF5B1A5E
:10051C0040EA0C00B3EB510F24BFA3EB510340EAAC
:10052C005C00B3EB910F24BFA3EB910340EA9C005A
:10053C00B3EBD10F24BFA3EBD10340EADC001B01CA
:10054C0018BF5FEA1C1CE0D1FD2A3FF650AF8B426E
:10055C0040EBC25008BF20F0010070470CF0004C7B
:10056C004CEA50207F32C2BFD2F1FF0340EAC250A6
:10057C00704740F400004FF00003013A37E792F067
:10058C00000F00F0004C02BF400010F4000F013AC5
:10059C00F9D040EA0C0093F0000F01F0004C02BFC0
:1005AC00490011F4000F013BF9D041EA0C0195E729
:1005BC000CEAD15392EA0C0F08D142027FF47DAFC2
:1005CC0093EA0C0F7FF470AF084676E793EA0C0FB2
:1005DC0004D14B023FF44CAF08466EE730F0004CB0
:1005EC0018BF31F0004CCAD130F000427FF45CAF40
:1005FC0031F000437FF43CAF5FE700BF4FF0FF3CAE
:10060C0006E000BF4FF0010C02E000BF4FF0010C00
:10061C004DF804CD4FEA40024FEA41037FEA226CC9
:10062C0018BF7FEA236C11D001B052EA530C18BFEB
:10063C0090EA010F58BFB2EB030088BFC81738BF50
:10064C006FEAE17018BF40F0010070477FEA226C3E
:10065C0002D15FEA402C05D17FEA236CE4D15FEA3A
:10066C00412CE1D05DF8040B704700BF844608466E
:10067C006146FFE70FB5FFF7C9FF002848BF10F12F
:10068C00000F0FBD4DF808EDFFF7F4FF0CBF012074
:10069C0000205DF808FB00BF4DF808EDFFF7EAFFFE
:1006AC0034BF012000205DF808FB00BF4DF808EDB9
:1006BC00FFF7E0FF94BF012000205DF808FB00BFAE
:1006CC004DF808EDFFF7D2FF94BF012000205DF834
:1006DC0008FB00BF4DF808EDFFF7C8FF34BF012041
:1006EC0000205DF808FB00BF42000ED2B2F1FE4FB5
:1006FC000BD34FF09E03B3EB126209D44FEA0023E5
:10070C0043F0004323FA02F070474FF000007047AB
:10071C0012F1610F01D1420202D14FF0FF3070474C
:10072C004FF00000704700BF80B485B000AF0346A7
:10073C003960FB713B681B88DAB2FB795340FB7361
:10074C0097F90F301B015AB297F90F3053405BB237
:10075C00FB733B681B881B0A9BB21AB2FB7B1BB258
:10076C001B021BB253401AB2FB7B1BB2DB001BB249
:10077C0053401AB2FB7B1B09DBB21BB253401BB2BA
:10078C009AB23B681A8000BF1437BD4680BC7047D4
:10079C0080B483B000AF78607B684FF6FF721A802C
:1007AC0000BF0C37BD4680BC704780B584B000AF2D
:1007BC0078600B467B8007F10E031846FFF7E8FFC5
:1007CC0009E07B685A1C7A601B7807F10E0211460F
:1007DC001846FFF7A9FF7B885A1E7A80002BF0D1B0
:1007EC00FB8918461037BD4680BD80B586B000AF7A
:1007FC00F860B9601346FB80BB687B6107E07B69DE
:10080C005A1C7A611B78F9681846FFF78DFFFB8834
:10081C005A1EFA80002BF2D100BF00BF1837BD461C
:10082C0080BD000080B483B000AF78607B6800228C
:10083C001A607B6800225A607B680E4A9A607B685B
:10084C000D4ADA607B680D4A1A617B680C4A5A6162
:10085C007B680C4A9A617B680B4ADA617B680B4AAD
:10086C001A627B680A4A5A6200BF0C37BD4680BCCC
:10087C00704700BF67E6096A85AE67BB72F36E3CD2
:10088C003AF54FA57F520E518C68059BABD9831F4F
:10089C0019CDE05B80B4CFB000AF07F59C73A3F526
:1008AC009A73186007F59C73A3F59C73196007F590
:1008BC009C73A3F59A731B689B68C7F8343107F5D2
:1008CC009C73A3F59A731B68DB68C7F8303107F586
:1008DC009C73A3F59A731B681B69C7F82C3107F539
:1008EC009C73A3F59A731B685B69C7F8283107F5ED
:1008FC009C73A3F59A731B689B69C7F8243107F5A1
:10090C009C73A3F59A731B68DB69C7F8203107F554
:10091C009C73A3F59A731B681B6AC7F81C3107F507
:10092C009C73A3F59A731B685B6AC7F81831002394
:10093C00C7F8143116E0D7F814319B0007F59C72F8
:10094C00A2F59C7212681344196807F59C73A3F501
:10095C009673D7F8142143F82210D7F814310133C9
:10096C00C7F81431D7F814310F2BE4DD1023C7F876
:10097C00143169E0D7F814319A1E07F59C73A3F56E
:10098C00967353F822304FEA7342D7F81431991EFC
:10099C0007F59C73A3F5967353F821304FEAF34394
:1009AC005A40D7F81431991E07F59C73A3F596732A
:1009BC0053F821309B0A5A40D7F81431D91F07F548
:1009CC009C73A3F5967353F821301A44D7F814315D
:1009DC00A3F10F0107F59C73A3F5967353F821301F
:1009EC004FEAF311D7F81431A3F10F0007F59C73FC
:1009FC00A3F5967353F820304FEAB3435940D7F818
:100A0C001431A3F10F0007F59C73A3F5967353F8FB
:100A1C002030DB084B401A44D7F81431A3F11001F5
:100A2C0007F59C73A3F5967353F82130D11807F58D
:100A3C009C73A3F59673D7F8142143F82210D7F8BA
:100A4C0014310133C7F81431D7F814313F2B91DD31
:100A5C000023C7F8143178E0D7F824314FEAB312E9
:100A6C00D7F824314FEAF3235A40D7F824314FEA10
:100A7C0073635A40D7F818311A44D7F82411D7F8B1
:100A8C0020311940D7F82431D843D7F81C31034012
:100A9C004B401A446E49D7F8143151F823301A449C
:100AAC0007F59C73A3F59673D7F8141153F82130FE
:100ABC001344C7F81031D7F834314FEAB302D7F8E2
:100ACC0034314FEA73335A40D7F834314FEAB353C9
:100ADC005A40D7F83011D7F82C315940D7F8343167
:100AEC001940D7F83001D7F82C3103404B40134450
:100AFC00C7F80C31D7F81C31C7F81831D7F82031AA
:100B0C00C7F81C31D7F82431C7F82031D7F8282181
:100B1C00D7F810311344C7F82431D7F82C31C7F863
:100B2C002831D7F83031C7F82C31D7F83431C7F821
:100B3C003031D7F81021D7F80C311344C7F83431C1
:100B4C00D7F814310133C7F81431D7F814313F2BCF
:100B5C0082DD07F59C73A3F59A731B689A68D7F826
:100B6C0034311A4407F59C73A3F59A731B689A6089
:100B7C0007F59C73A3F59A731B68DA68D7F83031C4
:100B8C001A4407F59C73A3F59A731B68DA6007F592
:100B9C009C73A3F59A731B681A69D7F82C311A4405
:100BAC0007F59C73A3F59A731B681A6107F59C7380
:100BBC00A3F59A731B685A69D7F828311A4407F5BC
:100BCC009C73A3F59A731B685A6107F59C73A3F584
:100BDC009A731B689A69D7F824311A4407F59C73E9
:100BEC00A3F59A731B689A6107F59C73A3F59A7326
:100BFC001B68DA69D7F820311A4407F59C73A3F502
:100C0C009A731B68DA6107F59C73A3F59A731B68DA
:100C1C001A6AD7F81C311A4407F59C73A3F59A731A
:100C2C001B681A6207F59C73A3F59A731B685A6AC2
:100C3C00D7F818311A4407F59C73A3F59A731B68FF
:100C4C005A6200BF07F59E77BD4680BC704700BF57
:100C5C00ACC2000880B59CB000AFF860B9607A6097
:100C6C00BB68FB66FB681B68FB65FB681A687B68E6
:100C7C00DB001A44FB681A60FB681B68FA6D9A4229
:100C8C0004D9FB685B685A1CFB685A60FB6DDB0877
:100C9C0003F03F03BB6657E0BB6EC3F140037B66BA
:100CAC007A687B6E9A4201D27B687B66FB6803F1A3
:100CBC002802BB6E13447A6EF96E18460BF0C8FA14
:100CCC00BA6E7B6E1344BB66FA6E7B6E1344FB6686
:100CDC007A687B6ED31A7B60BB6E402B34D1FB6879
:100CEC002833BB6500233B6623E03B6E9B00BA6D4B
:100CFC0013447B6507F110023B6E9B0013443B656C
:100D0C007B6D03331A783B6D1A707B6D9A1C3B6DAF
:100D1C00013312781A707B6D5A1C3B6D02331278BA
:100D2C001A703B6D03337A6D12781A703B6E013377
:100D3C003B663B6E0F2BD8DD07F110031946F868A4
:100D4C00FFF7A8FD0023BB667B68002BA4D100BF76
:100D5C0000BF7037BD4680BD80B598B000AF7860DD
:100D6C0039607B681B68DB0803F03F03FB65FB6D98
:100D7C00C3F1770303F03F030133BB657B68083392
:100D8C007B6580233B7307F10C0301334722002161
:100D9C0018460BF031FA7B681A68BB6D0733D2B278
:100DAC0060333B4403F8542C7B681B681A0ABB6DF8
:100DBC000633D2B260333B4403F8542C7B681B6877
:100DCC001A0CBB6D0533D2B260333B4403F8542C80
:100DDC007B681B681A0EBB6D0433D2B260333B4484
:100DEC0003F8542C7B685A68BB6D0333D2B2603362
:100DFC003B4403F8542C7B685B681A0ABB6D0233C6
:100E0C00D2B260333B4403F8542C7B685B681A0CF9
:100E1C00BB6D0133D2B260333B4403F8542C7B6876
:100E2C005B681B0ED9B207F10C02BB6D13440A466A
:100E3C001A70BB6D03F1080207F10C0319467868B0
:100E4C00FFF708FF7B6DDA783B681A703B6801335B
:100E5C007A6D92781A703B6802337A6D52781A70F8
:100E6C003B6803337A6D12781A703B6804337A6DE1
:100E7C00D2791A703B6805337A6D92791A7000BF7B
:100E8C006037BD4680BD000080B483B000AF034620
:100E9C00FB71FA7913465B001344DB00034A1344DD
:100EAC0018460C37BD4680BC704700BFC8020020F6
:100EBC0080B483B000AF0346FB71FB7940F2231280
:100ECC0002FB03F3034A134418460C37BD4680BC9F
:100EDC00704700BF28030020B0B5A0B000AFF86089
:100EEC00B9607A60FB70FB68002B05D0FB681B783F
:100EFC0003F00103002B01D100234FE0FB685A786B
:100F0C00BB681A70FB68D3E90223C7E90423BB68EA
:100F1C00013307F11001062218460BF099F9FB6812
:100F2C00D3E90223541C43F10005FB68C3E90245D5
:100F3C0007F118031846FFF775FCFB6803F1100165
:100F4C0007F1180320221846FFF784FEFA7807F100
:100F5C00180379681846FFF77DFE97F8942007F17F
:100F6C001803D7F890101846FFF774FE07F1180312
:100F7C000222D7F898101846FFF76CFE07F11803F9
:100F8C000722B9681846FFF765FEBB68DA1D07F142
:100F9C00180311461846FFF7DFFE0D23184680375D
:100FAC00BD46B0BD80B483B000AF78600B46FB701B
:100FBC0002E0FB78013BFB70FB78012B06D9FB7838
:100FCC00013B7A6813441B78002BF2D0FB7818464F
:100FDC000C37BD4680BC7047B0B5AAB000AFF86006
:100FEC00B9607A60FB68002B01D101233EE17B687C
:100FFC000233C7F8A0307B6803F58B73C7F89C30BD
:10100C00D7F89C300733C7F8983007F12C031846F3
:10101C00FFF708FCFB6803F1100107F12C032022F9
:10102C001846FFF717FE07F12C030A22D7F8A01079
:10103C001846FFF70FFE7B6803F10C017B68DB7829
:10104C001A4607F12C031846FFF704FE7B6803F5DC
:10105C008A7107F12C0302221846FFF7FBFD07F1FA
:10106C002C030722D7F89C101846FFF7F3FD07F165
:10107C00240207F12C0311461846FFF76DFE07F109
:10108C0024030622D7F8981018460BF0A5F803464F
:10109C00002B05D0FB68022283F834200023E5E006
:1010AC00D7F89C301B7887F897304FF000024FF040
:1010BC000003C7E90623D7F89C30591C07F1180325
:1010CC00062218460BF0C4F8BB68002B05D1FB6850
:1010DC00032283F834200023C8E00023A7F8A630AD
:1010EC002BE07B68D979B7F8A620B8681346DB00EB
:1010FC001344034403331B78994219D17B68197A42
:10110C00B7F8A620B8681346DB0013440344043335
:10111C001B7899420CD1B7F8A620B9681346DB00AE
:10112C0013440B4402331B7897F897209A420BD048
:10113C00B7F8A6300133A7F8A630BB681B88B7F800
:10114C00A6209A42CDD300E000BFBB681B88B7F83D
:10115C00A6209A4246D1BB681B880F2B05D9FB6889
:10116C00042283F83420002380E0D7E90623414988
:10117C00541843F10005FB68D3E90223944275EB44
:10118C00030305D2FB68052283F8342000236DE0AD
:10119C00B7F8A6207B68D879B9681346DB001344EE
:1011AC000B44033302461A70B7F8A6207B68187AF2
:1011BC00B9681346DB0013440B44043302461A701F
:1011CC00B7F8A620B9681346DB0013440B4402336E
:1011DC0097F897201A70BB681B8801339AB2BB68CA
:1011EC001A8021E04FF000024FF00003C7E90423FE
:1011FC00B7F8A6201346DB001344BA681344591DF4
:10120C0007F11003062218460BF022F8D7E9062343
:10121C00D7E90401904271EB030305D3FB68062266
:10122C0083F83420002321E0B7F8A6201346DB0016
:10123C001344BA681344581DD7F89C300133062266
:10124C0019460BF005F8D7E90623F968D1E9020134
:10125C00904271EB030304D2D7E90623F968C1E984
:10126C000223FB68012283F8342001231846A83797
:10127C00BD46B0BD808D5B00F0B58FB004AFF8609B
:10128C007B600B46FB721346BB727B681B7B03F0C7
:10129C000203002B14BF0123002387F8263097F894
:1012AC00263083F00103DBB2002B0CD07B681B696A
:1012BC00002B08D07B681B691B7803F00103002B03
:1012CC0001D0012300E0002387F8253097F8253062
:1012DC0003F0010387F8253097F82530002B01D057
:1012EC000D2300E0002387F824300A2387F82730E9
:1012FC0097F82630002B06D0FB68FE229A70062346
:10130C0087F8273002E0FB68FD229A7097F82630A8
:10131C00002B0AD1FB680C3397F844201146184671
:10132C00FFF740FE03461A4601E097F84020FB68A1
:10133C00DA70FB68FA7ADA71FB68BA7A1A72FB68AF
:10134C0000221A7197F82530002B06D0FB681B7908
:10135C0043F00103DAB2FB681A71FB6800225A7180
:10136C007B689A79FB689A717B689B790133DAB256
:10137C007B689A71FB689B783B76FB68DB787B76A5
:10138C0097F82630002B13D0FB689B79BB76FB6853
:10139C00DB79FB76FB681B7A3B77FB685A7A997A88
:1013AC0009020A43DB7A1B041343DBB27B7730E080
:1013BC00FB681B79BB76FB685B79FB76FB689B79DA
:1013CC003B77FB68DB797B77FB681B7ABB77FB6829
:1013DC005A7A997A09020A43DB7A1B041343DBB26B
:1013EC00FB77FB685A7A997A09020A43DB7A1B0469
:1013FC0013431B12DBB287F82030FB685A7A997AB8
:10140C0009020A43DB7A1B0413431B14DBB287F873
:10141C00213097F827309BB2013B9AB207F11803A1
:10142C00013311461846FFF7C0F90346FB82FB68EF
:10143C0003F10C01FB68DB781A4607F1160318461A
:10144C00FFF7D3F907F1160297F848301146184602
:10145C00FFF76AF9F98AFB680C33FA68D2781344FF
:10146C00CAB21A70FB8A1B0A99B2FB6803F10C0210
:10147C00FB68DB7801331344CAB21A70FA8AFB6832
:10148C001A8097F82530002B1AD07B681C69FB68F2
:10149C0003F58B75FB680C33FA68D278F9680C315C
:1014AC00F868C078014497F8276007F1180002919A
:1014BC00019200933346024629462046FFF70CFD65
:1014CC00FB68DB781A4697F827309BB213449AB224
:1014DC0097F824309BB213449BB202339BB218464C
:1014EC002C37BD46F0BD80B588B004AF7860084697
:1014FC0011461A460346FB700B46BB7013467B70B5
:10150C007B781846FFF7C0FCF860BA78F97897F842
:10151C00203002933B7F01933B7E0093FB687868FD
:10152C00FFF7AAFE034618461037BD4680BD80B5AE
:10153C0086B004AF7860084611461A460346FB7025
:10154C000B46BB7013467B70BA78F9783B7D0293DF
:10155C003B7C01937B78009300237868FFF7C3FFF3
:10156C00034618460837BD4680BD80B483B000AF33
:10157C0078607B689B780133DAB27B689A7000BF25
:10158C000C37BD4680BC704780B586B000AF786024
:10159C0039603B68DB78FB733B689B78FE2B3AD158
:1015AC000023FB750523BB753B689A787B681A7022
:1015BC007B680133FA7B1A707B6802333A68927944
:1015CC001A707B6803333A68D2791A707B680433DB
:1015DC003A68127A1A703B685A7A997A09020A4365
:1015EC00DB7A1B0413431A467B680533D2B21A709C
:1015FC007B68981D3B6803F10C013B68DB781A464D
:10160C000AF026FEBB7D3A68D278134401337A681F
:10161C0013443B616CE03B680C33FA7B1146184673
:10162C00FFF7C0FC0346FB730923BB753B689A7834
:10163C007B681A707B680133FA7B1A707B68023303
:10164C003A6812791A707B6803333A6852791A70C7
:10165C007B6804333A6892791A707B6805333A6870
:10166C00D2791A707B6806333A68127A1A703B6822
:10167C005A7A997A09020A43DB7A1B0413431A46F5
:10168C007B680733D2B21A703B685A7A997A09028E
:10169C000A43DB7A1B0413431A0A7B680833D2B261
:1016AC001A703B685A7A997A09020A43DB7A1B044E
:1016BC0013431A0C7B680933D2B21A707B6803F19E
:1016CC000A003B680C33FA7B19460AF0C1FDBA7D5F
:1016DC00FB7B134401337A6813443B613B681B79F1
:1016EC0003F00103002B01D00D2300E00023FB7558
:1016FC003B681B889BB2DAB23B691A703B681B884B
:10170C009BB21B0A9AB23B690133D2B21A70FB7DB1
:10171C00002B08D03B69981C3B6803F58B73FA7D52
:10172C0019460AF095FDBB7D9AB2FB7B9BB2134424
:10173C009AB2FB7D9BB213449BB203339BB2184607
:10174C001837BD4680BD80B584B000AF78600023EB
:10175C00FB8107F10E031846FFF71AF8FA897B682C
:10176C001A8000BF1037BD4680BD80B584B000AF75
:10177C0078600B46FB707B681B889BB2FB8107F182
:10178C000E02FB7811461846FEF7CEFFFA897B68ED
:10179C001A8000BF1037BD4680BD000080B487B0F2
:1017AC0000AF786000237B6106233B6125E07A69FA
:1017BC003B69134401335B08FB601E49FA6813460E
:1017CC005B0013449B000B441B687A689A4203D25B
:1017DC00FB68013B3B6110E01649FA6813465B005D
:1017EC0013449B000B441B687A689A4202D9FB682D
:1017FC007B6102E0FB687B6103E07A693B699A429A
:10180C00D5D30C497A6913465B0013449B000B44F7
:10181C001B687A689A4201D0002306E07A69134665
:10182C005B0013449B00034A134418461C37BD4607
:10183C0080BC7047ACC3000880B588B000AFF860BE
:10184C00B9603B601346FB71BB6800221A70BB6821
:10185C00DB78102B00F27F8201A252F823F000BF3C
:10186C00B1180008B11800080F1900087519000804
:10187C00A9190008C1190008D9190008F1190008A4
:10188C00091A0008631A0008AF1A00080B1B00089D
:10189C00431B0008DB1B0008DB1B00089D1C000819
:1018AC009D1C0008FB79FD2B13D1BB680222DA705A
:1018BC00FB680022DA70FB68FA799A70BB681B7BB4
:1018CC0023F00103DAB2BB681A73F868FFF73BFF29
:1018DC0038E2FB79FE2B40F03582BB680222DA70CD
:1018EC00FB680022DA70FB68FA799A70BB681B7B84
:1018FC0043F00103DAB2BB681A73F868FFF723FFF1
:10190C0020E2BB681B78002B0FD0BB685B780133DF
:10191C00DAB2BB685A70B868FFF727FEBB680022C2
:10192C001A70BB680122DA7015E2FB68FA79DA707A
:10193C00BB6800221A71FB791946F868FFF715FF8E
:10194C00BB681B7B03F00103002B09D0FB68002252
:10195C001A71FB6800225A71BB680522DA70FAE131
:10196C00BB680322DA70F6E1FB68FA791A71FB683E
:10197C001B79012B09D9B868FFF7F7FDBB6800226A
:10198C001A70BB680122DA70E5E1FB791946F86838
:10199C00FFF7EBFEBB680422DA70DCE1FB68FA7936
:1019AC005A71FB791946F868FFF7DFFEBB68052210
:1019BC00DA70D0E1FB68FA799A71FB791946F8680C
:1019CC00FFF7D3FEBB680622DA70C4E1FB68FA7934
:1019DC00DA71FB791946F868FFF7C7FEBB68072276
:1019EC00DA70B8E1FB68FA791A72FB791946F86873
:1019FC00FFF7BBFEBB680822DA70ACE1FB7923F081
:101A0C007F43FA68D9B2002001435172190AC9B256
:101A1C000020014391721B0CDBB200210B43D372EB
:101A2C00FB791946F868FFF7A0FEBB681B7B03F037
:101A3C000103002B0BD0FB68DB78002B03D0BB68B9
:101A4C000B22DA7087E1BB680C22DA7083E1BB6889
:101A5C000922DA707FE1FB685A7A997A09020A4303
:101A6C00DB7A1B0413431A46FB791B02134323F046
:101A7C007F42FB68D1B2002001435972110AC9B2EE
:101A8C00002001439972120CD2B200210A43DA727F
:101A9C00FB791946F868FFF768FEBB680A22DA7012
:101AAC0059E1FB685A7A997A09020A43DB7A1B04DA
:101ABC0013431A46FB791B04134323F07F42FB6844
:101ACC00D1B2002001435972110AC9B2002001435E
:101ADC009972120CD2B200210A43DA72FB791946C0
:101AEC00F868FFF742FEFB68DB78002B03D0BB687D
:101AFC000B22DA702FE1BB680C22DA702BE1FB6849
:101B0C0003F10C02BB681B79591CC8B2B968087187
:101B1C001344FA791A70FB791946F868FFF725FE19
:101B2C00BB681A79FB68DB789A4240F00D81BB6880
:101B3C000C22DA7008E1FB685A7A997A09020A4396
:101B4C00DB7A1B0413431846FFF728FEB861BB6908
:101B5C00002B07D1BB680E22DA70FB68FA7983F888
:101B6C001421F3E0BB691B79FB75FB7D1946F86802
:101B7C00FFF7FBFDFA79FB681B889BB2DBB29A423C
:101B8C0003D0BB680E22DA7002E0BB680D22DA705B
:101B9C00FB68FA7983F81421BB69002B00F0D6801E
:101BAC00BB681A79BB699B799A4280F0CF80FB683D
:101BBC000C33BA6812799818BB699B791A46BB68C2
:101BCC001B79D31A1A4600210AF016FBBEE0BB683B
:101BDC00DB780E2B08D0FB799AB2FB681B889BB282
:101BEC001B0A9BB29A4203D0BB6802221A7002E015
:101BFC00BB6801221A70FB68FA7983F81521FB681F
:101C0C001B7903F00103002B11D0BB681B78022B4E
:101C1C0003D1BB681022DA7005E0BB680F22DA70C2
:101C2C00BB6800221A70BB680D225A7390E0BB6827
:101C3C001B69002B1FD0BB681B691B6B002B13D0BF
:101C4C00BB681B691A6BFB68597A987A00020143CE
:101C5C00DB7A1B040B431946B8689047034683F0A4
:101C6C000103DBB2002B06D0BB681B78022B02D021
:101C7C00BB6803221A70BB680122DA703B68002B28
:101C8C0066D040F22312F96838680AF0E1FA5FE096
:101C9C00BB685B7BC3F10D03FA681344FA7983F8D4
:101CAC001621BB685B7B013BDAB2BB685A73BB681D
:101CBC005B7B002B4ED1BB681869BB685B69FA680B
:101CCC001946FFF789F90346FB77FB7F83F0010385
:101CDC00DBB2002B17D0BB681B691B6B002B12D01F
:101CEC00BB681B691A6BFB68597A987A000201432E
:101CFC00DB7A1B040B431946B86890470346002B4C
:101D0C0001D00123FB77BB68DB78102B03D1BB68B8
:101D1C0002221A7009E0FB7F002B03D0BB68012262
:101D2C001A7002E0BB6803221A70BB680122DA70D9
:101D3C003B68002B0ED040F22312F96838680AF089
:101D4C0087FA07E000BF06E000BF04E000BF02E036
:101D5C0000BF00E000BFBB681B78012B10D1FB68F3
:101D6C009A79BB685A71BB681B89002B02D1BB687E
:101D7C0000225A81BB681B8901339AB2BB681A8155
:101D8C003B68002B03D0FB68DA783B68DA70BB6ADF
:101D9C00002B1AD0BB68DA78BB6ADA70BB681A7988
:101DAC00BB6A1A71BB685B790133DAB2BB6A5A71D0
:101DBC00BB681A89BB6A1A81BB689B781A46BB6AD6
:101DCC005A81BB681A7BBB6A1A73BB6800229A7073
:101DDC00BB681B78022B11D13B68002B0ED0FB6823
:101DEC0093F814311AB2FB6893F815311BB21B022D
:101DFC001BB213431BB29AB23B681A80BB681B78A8
:101E0C0018462037BD4680BD90B587B002AFBA608A
:101E1C007B600346FB730B46BB73FB7B1846FFF7DB
:101E2C0047F80446FB7B1846FFF72EF80146BA7BB1
:101E3C007B680093BB682046FFF7FEFC0346184600
:101E4C001437BD4690BD80B588B000AFBA607B60DA
:101E5C000346FB730B46BB73B97BF87B7B68BA6894
:101E6C00FFF7D2FF0346FB77FB7F022B02D0FB7FF1
:101E7C00032B20D1FB7B1846FFF71AF8B861FB7BCC
:101E8C001846FFF701F878617869FFF76EFB7B69FC
:101E9C0000221A707B690122DA70BB7BFD2B08D102
:101EAC007B690222DA70BB690022DA70B869FFF72D
:101EBC004AFC002300E0FB7F18462037BD4680BD5E
:101ECC0080B584B000AF786039607B68DB78092B13
:101EDC0028BF0923FB730922002138680AF08CF90A
:101EEC007B680C33FA7B194638680AF0B1F900BFED
:101EFC001037BD4680BD80B58EB002AF3A601A4631
:101F0C000346FB710B46BB7113467B717B6CFB600C
:101F1C00BB6C3B61FB6C7B613B6DBB617B6DFB61A7
:101F2C00BB6D3B62FB6D7B62BB8F3B857B7987F81E
:101F3C002A3097F8383087F82B3097F8403087F8EC
:101F4C002C303B680C3307F10C01212218460AF0A7
:101F5C007FF93B68002242F04C025A7200229A72BE
:101F6C000022DA72BA79F97998230193212300932C
:101F7C0021233868FFF7DBFA034618463037BD4695
:101F8C0080BD80B584B000AF786039607B68DB7849
:101F9C00212B28BF2123FB732122002138680AF052
:101FAC002BF97B680C33FA7B194638680AF050F928
:101FBC0000BF1037BD4680BD80B58AB002AF3A6015
:101FCC001A460346FB710B46BB7113467B71FB6BC8
:101FDC00BB603B6DFB60BB8E3B823B8F7B82B7F85B
:101FEC004030BB82B7F84430FB82B7F84C303B83AF
:101FFC007B79BB7697F82830FB7697F82C303B77BB
:10200C0097F830307B7797F84830BB773B680C33C8
:10201C0007F10801172218460AF01AF93B6800224A
:10202C0042F065025A7200229A720022DA72BA7970
:10203C00F979C22301931723009317233868FFF70C
:10204C0076FA034618462037BD4680BD80B586B06B
:10205C0002AF3A601A460346FB710B46BB7113463E
:10206C007B71BB69BB607B793B733B7F7B733B684C
:10207C000C3307F10801062218460AF0E9F83B6810
:10208C00002242F066025A7200229A720022DA7220
:10209C00BA79F979862301930623009306233868CD
:1020AC00FFF745FA034618461037BD4680BD80B58C
:1020BC0084B000AF786039607B68DB78062B28BF72
:1020CC000623FB730622002138680AF095F87B681A
:1020DC000C33FA7B194638680AF0BAF800BF10378F
:1020EC00BD4680BD80B586B002AF3A601A46034645
:1020FC00FB710B46BB7113467B717B793B733B7E4B
:10210C007B733B680C33BA891A803B68002242F01F
:10211C0067025A7200229A720022DA72BA79F9793D
:10212C00512301930223009302233868FFF7FFF930
:10213C00034618461037BD4680BD80B584B000AF4D
:10214C00786039607B68DB78022B28BF0223FB7335
:10215C000222002138680AF04FF87B680C33FA7BB6
:10216C00194638680AF074F800BF1037BD4680BDB8
:10217C0080B58AB002AFBA607B600346FB730B4636
:10218C00BB737B683B61BB6A7B61FB6ABB613B6B6E
:10219C00FB61BB680C3307F11001102218460AF0E2
:1021AC0057F8BB68002262F02F025A72002242F0EC
:1021BC0005029A720022DA72BA7BF97BAC23019386
:1021CC00102300931023B868FFF7B1F903461846A3
:1021DC002037BD4680BD80B584B000AF78603960D3
:1021EC007B68DB78102B28BF1023FB731022002197
:1021FC0038680AF001F87B680C33FA7B19463868AA
:10220C000AF026F800BF1037BD4680BD80B582B0FD
:10221C0000AF7860786800F03FF9274B1B78DBB291
:10222C00002B06D0244B00221A707968234800F04A
:10223C0045FA234B1B78DBB2002B06D0204B002237
:10224C001A7079681F4800F0B5FA1F4B1B78DBB287
:10225C00002B15D01C4B00221A701C494FF00000AB
:10226C0000F090F91A4B1B78FF2B09D0184B1B78F8
:10227C00012B05D94FF000014FF0000000F082F95E
:10228C00144B1B78DBB2002B07D0124B00221A70B8
:10229C00114B1B68184600F01FF9104B1B78DBB272
:1022AC00002B04D00D4B00221A7000F02BFD00BF48
:1022BC000837BD4680BD00BF480000204C00002000
:1022CC004900002070010020C402002000008A4256
:1022DC0000000020C502002040000020C6020020A3
:1022EC0080B485B000AF7860154B1B889BB2002B77
:1022FC0020D0134B1B889BB2013B9AB2104B1A8017
:10230C000F4B1B889BB2002B14D10E4B1B78FF2B51
:10231C0010D00C4B1B781A466FF00F031341FB6067
:10232C0072B600BF084B1A68FB681340064A13606C
:10233C0062B600BF00BF1437BD4680BC704700BFFB
:10234C0002000020000000204000002080B483B078
:10235C0000AF7860054B1B78002B02D0044B012298
:10236C001A7000BF0C37BD4680BC70473C00002083
:10237C00C402002080B582B000AF7860786800F0AD
:10238C0014FF0346012B17D10D4B1B889BB2002B5E
:10239C0006D00B4B1B889BB2013B9AB2084B1A80A0
:1023AC00074B1B889BB2002B07D1054B32221A809E
:1023BC00044B01221A7000E000BF0837BD4680BDF7
:1023CC0004000020C602002080B582B000AF786007
:1023DC00174B1B78012B22D1786800F0E6FE0346E0
:1023EC00012B1ED0134B1B78012B1CD1124B1B88BD
:1023FC009BB2002B06D0104B1B889BB2013B9AB2B0
:10240C000D4B1A800C4B1B889BB2002B0CD10A4B2A
:10241C004FF47A721A80094B01221A7004E000BF43
:10242C0002E000BF00E000BF0837BD4680BD00BF22
:10243C003C0000200000002006000020C502002007
:10244C0080B500AF0121022000F00EFD00BF80BD61
:10245C0080B582B000AF0346FB71084B1B68002BA4
:10246C0007D0064B1B68064A1178FA79184600F01B
:10247C00C9FC00BF0837BD4680BD00BF440000202A
:10248C000000002080B400AF024B1B781846BD46FC
:10249C0080BC70473C00002080B582B000AF7860F3
:1024AC000C4B1B78FF2B11D0786800F089FE03468B
:1024BC00002B05D0074B1B78184600F0EDFC06E00E
:1024CC00044B1B78184600F0FFFC00E000BF0837F7
:1024DC00BD4680BD00000020B0B5ADF51C7D0AAF37
:1024EC0007F51273A3F51173186007F51273A3F5B2
:1024FC0011731868FDF7DAFE044602F0DDF90346A5
:10250C001846FDF7D7FE05461C4B1B781846FDF701
:10251C00CDFE034607F590724FF000010991089328
:10252C000795174B069305944FF0000304934FF057
:10253C000003039300230293D3230193BE23009340
:10254C00FF23A9210120FFF7D6FC07F5907207F1B4
:10255C00080311461846FFF717F80346A7F846324A
:10256C00B7F8462207F108031146184601F064FF3C
:10257C0000BF07F51277BD46B0BD00BF00000020BC
:10258C0000509C4690B5ADF5177D04AF07F512735E
:10259C00A3F51173186007F51273A3F51273196084
:1025AC00254B1B781846FDF781FE0446234B1B6810
:1025BC001846FDF77BFE034607F59072029307F56C
:1025CC001273A3F512731B68019307F51273A3F52D
:1025DC0011731B6800932346A9210120FFF7C8FD46
:1025EC0007F5907207F1080311461846FEF7CCFF69
:1025FC000346A7F8463207F51273A3F51273186851
:10260C00FEF772F80346DBB2002B08D1B7F846226E
:10261C0007F108031146184601F00EFF07E0B7F862
:10262C00462207F108031146184601F04BFF00BF84
:10263C0007F51377BD4690BD000000204000002038
:10264C0080B582B000AF0346FB71F979074B084A9D
:10265C000020FFF7F8FB0346002B02D0054B0122AC
:10266C001A7000BF0837BD4680BD00BF9402002021
:10267C004C0000204800002080B582B000AF03461B
:10268C00FB71F9790A4B0B4A0120FFF7DCFB03467F
:10269C00002B09D0074B9B68C3F31723B3F5BA6F14
:1026AC0002D1054B01221A7000BF0837BD4680BD10
:1026BC00AC020020700100204900002080B582B0DF
:1026CC0000AF786039607B685A7A997A09020A43BC
:1026DC00DB7A1B041343B3F5BA6F4DD0B3F5BA6F65
:1026EC0062DC002B44D0002B5EDB672B5CDC4C2BBC
:1026FC005ADB4C3B1B2B57D801A252F823F000BFDE
:10270C008F270008B5270008B5270008B527000853
:10271C00B5270008B5270008B5270008B52700081D
:10272C00B5270008B5270008B5270008B52700080D
:10273C00B5270008B5270008B5270008B5270008FD
:10274C00B5270008B5270008B5270008B5270008ED
:10275C00B5270008B5270008B5270008B5270008DD
:10276C0099270008B5270008A3270008AB27000805
:10277C00786800F037F818E03968786800F04EF89F
:10278C0013E03968786800F0F7F80EE0396878687B
:10279C0000F072F909E0786800F086F905E0396814
:1027AC00786800F0E5F900E000BF00BF0837BD46CF
:1027BC0080BD00BF80B582B000AF786039607B68A7
:1027CC005A7A997A09020A43DB7A1B041343B3F54C
:1027DC00BA6F03D13968786800F020F800BF083769
:1027EC00BD4680BD80B586B000AF786007F10C03A4
:1027FC0019467868FFF764FB7B7C002B07D0064BEF
:10280C001B78002B03D10121012000F02DFB00BF10
:10281C001837BD4680BD00BF3C00002090B589B084
:10282C0000AF7860396007F1080319467868FFF744
:10283C00D2FC3B694B491846FDF724FF0346002B9D
:10284C0015D0494B1B78002B04D0484B1B78FF2B21
:10285C0040F08380BB681846FDF746FF0346DBB2A9
:10286C000133DBB21946012000F0FEFA75E03B693A
:10287C004FF000011846FDF705FF0346002B27D04B
:10288C003B4B4FF4FA621A80384B1B78FF2B19D054
:10289C00364B1B781A460F23D340BB6172B600BF70
:1028AC00BB69DA43334B1B6802EA03047B691846A5
:1028BC00FDF71AFF0246BB69134023432D4A1360F0
:1028CC0062B600BF2B4B1B681846FFF705FE45E0B0
:1028DC00386800F06AFC0346082B0CD1234B1B789C
:1028EC0001331846FDF7E6FC02463B6919461046D3
:1028FC00FFF748FE32E03B691846FDF7F5FE03464C
:10290C00FB77FC68194B1B781846FDF7D3FC034684
:10291C0019462046FDF7B6FE0346002B08D1FB688E
:10292C004FF000011846FDF7ADFE0346002B07D013
:10293C000E4B1B78FA7F1946386800F063FA0DE0ED
:10294C00FB7F052B02D0FB7F062B07D1FB683A6976
:10295C0011461846FFF716FE00E000BF2437BD46AF
:10296C0090BD00BF00008A423C0000200000002007
:10297C00020000204000002080B58CB000AF7860D1
:10298C00396007F1080319467868FFF7FAFABB8C2F
:10299C00D32B63D1344B1B681846FFF79DFD97F87A
:1029AC002730A92B5CD1314B1B78FF2B09D1FB694C
:1029BC001846FDF799FE0346DBB20133DAB22B4B16
:1029CC001A70BB681846FDF78FFE034687F82F3048
:1029DC00264B1B7897F82F209A4207D1234B1B7854
:1029EC0005221946386800F00DFA3AE01F4B1B78A7
:1029FC0097F82F209A420AD997F82F301846FDF7EE
:102A0C0055FC03461A491846FFF7BCFD29E097F818
:102A1C002F30002B25D1386800F0C7FB034687F810
:102A2C002E3097F82E30042B04D10621386800F094
:102A3C00ABFB16E097F82E30072B03D097F82E300F
:102A4C00082B0ED1094B1B7801331846FDF732FCCD
:102A5C00034608491846FFF795FD02E000BF00E069
:102A6C0000BF3037BD4680BD400000200000002074
:102A7C000000A0400000C04080B582B000AF78607C
:102A8C003960084B1B78002B03D10121012000F089
:102A9C00EBF90121386800F077FB00BF0837BD4621
:102AAC0080BD00BF3C00002080B586B000AF7860D0
:102ABC0007F1100319467868FFF7F9FA07F10803D4
:102ACC00184600F039FA3B7D032B45D801A252F889
:102ADC0023F000BFF12A0008172B00083D2B00083B
:102AEC005F2B00083B691846FDF7FEFD03469BB2C1
:102AFC003B8107F10803184600F030FA3B897A89CC
:102B0C001146184601F002FA27E03B691846FDF71A
:102B1C00EBFD03469BB27B8107F10803184600F0DE
:102B2C001DFA3B897A891146184601F0EFF914E039
:102B3C003B691846FDF7D8FD0346DBB23B7307F142
:102B4C000803184600F00AFA3B7B184600F03CFFDD
:102B5C0003E000F015FA00E000BF3B7D3A69114636
:102B6C00184600F094F800BF1837BD4680BD00BF72
:102B7C0080B584B000AF7860396007F10C0319465A
:102B8C007868FFF7DAFA3B7B0A2B48D801A252F897
:102B9C0023F000BFCD2B00082B2C0008D72B0008EE
:102BAC00E12B0008EB2B0008F52B0008FF2B00088D
:102BBC002B2C0008092C00081B2C0008232C0008C7
:102BCC004FF4C86001F070F92AE040F2145001F0A3
:102BDC006BF925E04FF4AF6001F048F920E040F2CA
:102BEC00DC5001F043F91BE04FF4C86001F03EF9F2
:102BFC0016E00521386800F0C7FA11E040F21450D5
:102C0C0001F052F940F2DC5001F030F908E00120FB
:102C1C0000F0F4FE04E0002000F0F0FE00E000BF45
:102C2C003B7B184600F004F800BF1037BD4680BD52
:102C3C0080B5ADF5147D02AF024607F51273A3F211
:102C4C0041231A7007F51273A3F241231B7807F581
:102C5C00907201210091A9210120FFF743FA07F599
:102C6C00907207F1080311461846FEF78DFC0346D7
:102C7C00A7F84632B7F8462207F108031146184662
:102C8C0001F0DAFB00BF07F51277BD4680BD80B5B9
:102C9C00ADF5147D02AF024607F51273A3F512735E
:102CAC00196007F51273A3F241231A7007F512731A
:102CBC00A3F24123197807F590720123019307F5CC
:102CCC001273A3F512731B6800930B46A921012004
:102CDC00FFF7BCF907F5907207F108031146184687
:102CEC00FEF752FC0346A7F84632B7F8462207F126
:102CFC0008031146184601F09FFB00BF07F5127739
:102D0C00BD4680BD2DE9F043ADF5277D0CAF01F03C
:102D1C00E5F9024607F51A73A3F511731A6007F566
:102D2C001A73A3F51373184600F006F907F51A7316
:102D3C00A3F5117393F8008007F51A73A3F51173BB
:102D4C005C7807F51A73A3F511739D7807F51A7360
:102D5C00A3F51173DE7801F0CFF80346DBB27B618B
:102D6C0001F0C0F80346DBB23B6101F003FB814686
:102D7C0007F51A73A3F513731A88FA6007F51A731B
:102D8C00A3F513735988B96007F51A73A3F5137378
:102D9C001879786000F054FE0346194607F5A072C6
:102DAC0044F628630A93099178680890B9680791EA
:102DBC00F9680691CDF81490396904917B690393F5
:102DCC000296019500944346A9210120FFF7F4F8DF
:102DDC0007F5A07207F1280311461846FEF7D4FB3D
:102DEC000346A7F86632B7F8662207F128031146A6
:102DFC00184601F021FB00BF07F51B77BD46BDE867
:102E0C00F083000090B585B000AF78600B46FB7086
:102E1C001346BB70786800F0C8F90346FB73FB7B64
:102E2C00042B05D1BB781946786800F0ADF915E094
:102E3C00FB7B072B02D0FB7B082B0FD1094B1B789C
:102E4C0001331846FDF736FA0446BB781846FDF7F1
:102E5C002DFA034619462046FFF794FB00BF1437A2
:102E6C00BD4690BD0000002080B483B000AF034687
:102E7C000A46FB711346BB71054AFB791370054A70
:102E8C00BB79137000BF0C37BD4680BC704700BFC8
:102E9C003C0000200000002080B483B000AF03464B
:102EAC00FB7172B600BFFB791022DA40054B1B6830
:102EBC001343044A136062B600BF00BF0C37BD4613
:102ECC0080BC70474000002080B483B000AF034644
:102EDC00FB7172B600BFFB796FF0100242FA03F37C
:102EEC001A46064B1B681340044A136062B600BFB7
:102EFC0000BF0C37BD4680BC704700BF40000020AF
:102F0C0080B584B000AF3B46184600F08BFC0346FE
:102F1C00002B0BD07B689AB2064B1A80BB689AB216
:102F2C00044B5A80FB68DAB2024B1A7100BF10379F
:102F3C00BD4680BD0800002080B483B000AF78602F
:102F4C007B68054A1068186092889A8078680C37FC
:102F5C00BD4680BC704700BF0800002080B483B021
:102F6C0000AF7860054B7A681068186092889A8078
:102F7C0000BF0C37BD4680BC704700BF0800002066
:102F8C0080B584B000AF4FF0A5333B60084B1B8875
:102F9C007B60074B5B88BB60054B1B79FB603B463A
:102FAC00184600F05BFC00BF1037BD4680BD00BF6B
:102FBC000800002080B582B000AFFFF763FA03462B
:102FCC00002B3BD103F054FE7860224B1B78022B74
:102FDC0025D0022B3BDC002B02D0012B09D036E094
:102FEC0000F038FD1C4A7B6813601A4B01221A70E2
:102FFC002DE0FFF747FA0346022B21D0164B1B6836
:10300C007A68D31AD22B1DD900F038FD01F000FAE2
:10301C00114A7B6813600F4B02221A7012E0FFF703
:10302C0031FA0346012B0FD00B4B1B687A68D31A6D
:10303C00642B0BD9074B00221A7007E000BF06E087
:10304C0000BF04E000BF02E000BF00E000BF083793
:10305C00BD4680BDB4070020B807002080B500AF86
:10306C00FFF710FA0346184680BD80B483B000AF5A
:10307C0078607B6800221A707B6800225A707B682B
:10308C0000229A707B680022DA707B6800225A60FA
:10309C007B6800229A607B6800221A737B6800228E
:1030AC005A737B6800229A7300BF0C37BD4680BCF4
:1030BC007047000080B584B000AF78607B689B7867
:1030CC00002B1DD07B6800229A707B685B78FB73A9
:1030DC00FB7B052B02D0FB7B062B09D17B681B7875
:1030EC00042B05D1FB7B1946786800F08AFB07E0BE
:1030FC00FB7B012B04D1FB7B1946786800F081FB2C
:10310C007B681B78082B39D801A252F823F000BF3A
:10311C00413100084931000851310008593100088B
:10312C0061310008693100087131000879310008FB
:10313C0081310008786800F053F820E0786800F0DE
:10314C0075F81CE0786800F0A5F818E0786800F0D5
:10315C00D3F814E0786800F077F910E0786800F0A4
:10316C00A3F90CE0786800F0ABF908E0786800F09F
:10317C00B3F904E0786800F005FA00E000BF00BF86
:10318C001037BD4680BD00BF80B483B000AF7860FF
:10319C000B46FB707B68FA785A707B6801229A7038
:1031AC0000BF0C37BD4680BC704780B483B000AF05
:1031BC0078607B681B7818460C37BD4680BC70471E
:1031CC0080B483B000AF78607B681B78042B01D18E
:1031DC00012300E0002318460C37BD4680BC704725
:1031EC0080B584B000AF7860FFF738FF0346002B42
:1031FC0018D000F073FF0346FB603B7B002B04D020
:10320C000221786800F0FDFA0DE07B7B002B04D0E6
:10321C000421786800F0F5FA05E00321786800F0E5
:10322C00F0FA00E000BF1037BD4680BD80B584B019
:10323C0000AF7860164B1B78002B0AD140F214506B
:10324C0000F032FE40F2DC5000F010FE104B012278
:10325C001A7000F043FF0346FB60BB7B002B05D0CC
:10326C0000F040FE0346B3F5AF6F08D0FB7B002B9C
:10327C0009D000F037FE0346B3F5C86F03D140F216
:10328C00DC5000F0F3FD00BF1037BD4680BD00BF21
:10329C00BC07002080B584B000AF786000F01EFF42
:1032AC000346FB60BB7B002B02D040F2DC5301E0F9
:1032BC004FF4AF63184600F0D9FD3B7B002B08D0D0
:1032CC004FF4C86000F0F0FD03F0D2FC02467B68BE
:1032DC005A6003F0CDFC02467B685B68D31A41F25E
:1032EC007072934203D90321786800F08AFA00BF08
:1032FC001037BD4680BD000080B584B000AF78604B
:10330C0000F0ECFE0346FB607B68DB78072B00F2D9
:10331C008D8001A252F823F0453300085F3300087A
:10332C0039340008393400083934000839340008BD
:10333C008B3300081534000840F2145000F0B4FD33
:10334C007B680122DA7003F093FC02467B685A60BA
:10335C0075E003F08DFC02467B685B68D31AB3F50D
:10336C00C87F67D34FF4C86000F080FD03F080FC89
:10337C0002467B685A607B680622DA705AE03B7B17
:10338C00002B04D00221786800F03BFA57E07B7BDD
:10339C00002B08D040F2DC5000F068FD0421786866
:1033AC0000F02FFA4BE0FB7B002B08D040F2DC50F6
:1033BC0000F05CFD0721786800F023FA3FE003F091
:1033CC0057FC02467B685B68D31AB3F57A5F33D936
:1033DC0040F2DC5000F04AFD7B681B7B002B07D0D1
:1033EC007B6801229A730821786800F00AFA23E0BE
:1033FC007B6801221A737B680722DA7003F038FCB1
:10340C0002467B685A6017E003F032FC02467B6888
:10341C005B68D31AB3F5FA7F10D37B680022DA709D
:10342C0003F026FC02467B685A6007E07B680022AA
:10343C00DA7004E000BF02E000BF00E000BF00BF94
:10344C001037BD4680BD00BF80B584B000AF78603A
:10345C0000F044FE0346FB603B7B002B04D00221B2
:10346C00786800F0CEF91CE000F03CFD03461A46EB
:10347C0040F2DC539A4208D040F2DC5000F0F6FCEB
:10348C0003F0F6FB02467B685A6003F0F1FB024640
:10349C007B685B68D31AC72B03D940F2145000F039
:1034AC0003FD1037BD4680BD80B582B000AF78609B
:1034BC000021786800F086F800BF0837BD4680BD53
:1034CC0080B582B000AF78600121786800F07AF89E
:1034DC0000BF0837BD4680BD80B584B000AF7860B2
:1034EC0000F0FCFD0346FB603B7B002B04D002216B
:1034FC00786800F086F941E04FF4C86000F0D4FC25
:10350C00FB7B002B0BD07B68DB78002B07D103F007
:10351C00AFFB02467B685A607B680122DA707B68DD
:10352C00DB78012B0FD103F0A3FB02467B685B68B1
:10353C00D31AB3F5FA7F06D94FF4AF6000F096FCBE
:10354C007B680222DA70BB7B002B09D0FB7B002B43
:10355C0006D17B6801225A734FF4C86000F086FCD8
:10356C00BB7B002B02D0FB7B002B07D07B685B7BEB
:10357C00002B03D040F2DC5000F078FC1037BD4635
:10358C0080BD000080B582B000AF786003F070FBA6
:10359C0002460A4B1B68D31AB3F5967F09D303F086
:1035AC0067FB0346054A13604FF40051044805F0CD
:1035BC006CF800BF0837BD4680BD00BFC0070020B7
:1035CC00000C014080B584B000AF78600B46FB70F6
:1035DC0000F084FD0346FB607B68DB78023B052B27
:1035EC0000F2E38001A252F823F000BF113600086C
:1035FC002B3600085D3600088B360008BD360008F7
:10360C009D3700084FF4AF6000F030FC03F030FB46
:10361C0002467B685A607B680322DA70D2E003F0C2
:10362C0027FB02467B685B68D31AC82B03D8BB7B8D
:10363C00002B00F0BE8040F2DC5000F017FC03F0D1
:10364C0017FB02467B685A607B680422DA70B0E094
:10365C0003F00EFB02467B685B68D31AB3F5967FCA
:10366C0040F2A9804FF4C86000F01EFC03F000FB90
:10367C0002467B685A607B680522DA709BE003F097
:10368C00F7FA02467B685B68D31AC82B40F2958028
:10369C004FF4C86000F0EAFB03F0EAFA02467B68DC
:1036AC009A604A4B00221A707B680622DA7084E01A
:1036BC00FB7B002B0ED040F2DC5000F0D7FB7B687C
:1036CC0000225A73414B00221A700721786800F0CF
:1036DC0098F877E07B7B002B0ED03C4B1B78002BB3
:1036EC000AD13A4B01221A70FB78002B04D003F05C
:1036FC00BFFA02467B689A607B7B002B06D1334B6A
:10370C001B78012B02D1314B02221A702F4B1B78E4
:10371C00022B15D12D4B00221A7040F2DC5000F018
:10372C00A5FBFB78002B03D07B680222DA7003E048
:10373C000421786800F065F87B6800221A7341E078
:10374C0003F096FA02467B689B68D31AB3F5FA5FCE
:10375C0035D91E4B00221A7040F2DC5000F086FB6B
:10376C007B681B7B002B07D07B6801229A73082196
:10377C00786800F046F822E07B6801221A737B68B7
:10378C000722DA7003F074FA02467B685A6016E07E
:10379C0003F06EFA02467B685B68D31AB3F5FA7FC6
:1037AC000FD97B680222DA700BE07B680222DA7098
:1037BC0008E000BF06E000BF04E000BF02E000BF6D
:1037CC0000E000BF00BF1037BD4680BDC40700201D
:1037DC0080B582B000AF78607B680022DA7003F0AD
:1037EC0047FA02467B685A607B6800229A607B68C5
:1037FC0000221A737B6800225A7300BF0837BD463B
:10380C0080BD80B582B000AF78600B46FB707B68E2
:10381C00FA781A707868FFF7DBFF00BF0837BD46EF
:10382C0080BD000090B484B000AF78600A4BFB60A0
:10383C00FB681B68B3F1A53F01D0002306E07A6852
:10384C00FB6814460FCB84E80F0001231846103791
:10385C00BD4690BC704700BF00FC0108B0B58AB0F3
:10386C0000AF786004F012FB07F10C0300221A6021
:10387C005A609A60DA601A4B7B610123BB610023AA
:10388C00BB6007F1080207F10C031146184604F05F
:10389C00E5FB7B683B620423FB6100237B6215E044
:1038AC007B6A03F1007303F5FE4399007B6A9B006E
:1038BC003A6A13441B6800221C46154622462B46C6
:1038CC00022004F073FA7B6A01337B627A6AFB692B
:1038DC009A42E5D304F000FB00BF2837BD46B0BDCB
:1038EC0000FC010880B483B000AF78607B689AB2AA
:1038FC00054B1A80054B1B687A689A6300BF0C371E
:10390C00BD4680BC704700BFC60700203C0B0020A2
:10391C0080B483B000AF7860074B1B78002B04D0C9
:10392C007B68C3F59C431F3300E07B6818460C375B
:10393C00BD4680BC704700BFC507002080B584B071
:10394C0000AF78601C497868FCF7C4FE0346002B76
:10395C0002D00023FB6023E018497868FCF7B0FE26
:10396C000346002B03D04FF4FA63FB6018E01449B4
:10397C007868FCF7A5FE0346002B03D04FF47A635E
:10398C00FB600DE00F497868FCF79AFE0346002BAC
:10399C0003D042F21073FB6002E044F26823FB6038
:1039AC00F868FFF7B5FF03461846FFF79BFF00BF0B
:1039BC001037BD4680BD00BF0000A0410000704123
:1039CC00000020410000A04080B582B000AF03464B
:1039DC00FB71094AFB791370074B1B78184602F0F0
:1039EC00D1FE0020FFF794FF03461846FFF77AFF3D
:1039FC0000BF0837BD4680BDC507002080B582B02A
:103A0C0000AF0346FB71FB79002B02D04FF48072A0
:103A1C0000E00022094B1A80FB79002B02D044F6FF
:103A2C001F6300E000231846FFF772FF0346184699
:103A3C00FFF758FF00BF0837BD4680BDC607002002
:103A4C0080B400AF024B1B881846BD4680BC704743
:103A5C00C607002080B500AF252003F088FE05487E
:103A6C0007F004FC044B00221A7000F039F900BF77
:103A7C0080BD00BF580D0020C807002080B500AFE6
:103A8C000C4B93F83D30DBB2012B11D1094805F0FA
:103A9C0021FD084B1B686FF001021A611E2003F018
:103AAC0066FE044805F066FC024802F033FE00E0B6
:103ABC0000BF80BDA40C002090B587B000AF78602B
:103ACC007B681B681E4A934234D17B681B7F012B99
:103ADC0032D10021786806F041FC786104217868C5
:103AEC0006F03CFC38617B685B6801331846FCF7D8
:103AFC00DDFB034613491846FCF730FC03461C4615
:103B0C00114B1B681846FCF7D1FB0346194620469F
:103B1C00FCF7D8FC0346FB603869FCF7C7FB03468F
:103B2C001946F868FCF71AFC0346BB60B86800F04D
:103B3C000DF802E000BF00E000BF1C37BD4690BD91
:103B4C0000080040002474491400002080B584B0A3
:103B5C0000AF7860FEF796FC0346FB72FB7A002BF5
:103B6C001FD144497868FCF7B5FD0346002B13D0F0
:103B7C0041497868FCF790FD0346002B0CD03F4B75
:103B8C001B780133DAB23D4B1A703C4B1B78092B76
:103B9C0006D9FEF755FC03E0384B00221A7065E09D
:103BAC0064E0374B1B6819467868FCF7CDFA03467E
:103BBC00FB604FF00001F868FCF76EFD0346002B2C
:103BCC0003D0FB6883F00043FB602E49F868FCF7D8
:103BDC0063FD0346002B0AD02B4B1B780133DAB262
:103BEC00294B1A70284B1B78042B07D83EE0244A2B
:103BFC007B681360244B00221A7037E0224B0022A2
:103C0C001A7040F24C424FF46171786800F040F841
:103C1C000346002B03D01D4B01221A7026E01B4BD0
:103C2C001B78002B21D04FF4C8624FF4AF61786839
:103C3C0000F02EF80346002B06D0144B00221A700D
:103C4C000520FEF705FC11E040F6340240F26C71E1
:103C5C00786800F01DF80346002B07D00B4B0022B0
:103C6C001A700620FEF7F4FB00E000BF1037BD46CB
:103C7C0080BD00BF0080474400A00945C907002053
:103C8C00CC07002000002041D0070020C8070020EE
:103C9C0080B582B000AF78600B467B8013463B80CA
:103CAC007B881846FCF702FB034619467868FCF73C
:103CBC0011FD0346002B0DD03B881846FCF7F6FA95
:103CCC00034619467868FCF7E7FC0346002B01D045
:103CDC00012300E0002318460837BD4680BD0000D4
:103CEC0080B590B000AF07F1300300221A605A6023
:103CFC009A60DA6007F11C0300221A605A609A601D
:103D0C00DA601A6107F10C0300221A605A609A609B
:103D1C00DA603B1D00221A605A60424B424A1A601C
:103D2C00404B3F225A603F4B00229A603D4B4FF66E
:103D3C00FF72DA603B4B00221A613A4B00229A6107
:103D4C00384805F0BBFA0346002B01D001F0BCF952
:103D5C004FF480533B6307F130031946314806F0AA
:103D6C00F3F90346002B01D001F0AEF92D4805F014
:103D7C004BFD0346002B01D001F0A6F90423FB6197
:103D8C0050233B6200237B620023BB620023FB6257
:103D9C0007F11C031946234806F09DFA0346002B35
:103DAC0001D001F091F90023FB6001233B6100235A
:103DBC007B610023BB6107F10C03002219461948F3
:103DCC0006F064F80346002B01D001F07DF90223C4
:103DDC00FB6002233B6107F10C03042219461148D6
:103DEC0006F054F80346002B01D001F06DF90023C6
:103DFC007B600023BB603B1D19460A4807F01CF989
:103E0C000346002B01D001F05FF90021054805F0B5
:103E1C0021FE0421034805F05DFD00BF4037BD467F
:103E2C0080BD00BFA40C00200008004080B582B00B
:103E3C0000AF3B461846FFF77FF83A88084B1A80CC
:103E4C007A88084B1A800021074805F0D7FB082117
:103E5C00054805F0D3FB00BF0837BD4680BD00BF49
:103E6C00D2070020D40700203C0B002080B485B082
:103E7C0000AF0346FB800A4B1B88FA889A4209D094
:103E8C00FB88FB60074B1B68FA68DA63044AFB8803
:103E9C00138000E000BF1437BD4680BC704700BFE4
:103EAC000E0000203C0B002080B485B000AF034610
:103EBC00FB800A4B1B88FA889A4209D0FB88FB606E
:103ECC00074B1B68FA685A63044AFB88138000E0AE
:103EDC0000BF1437BD4680BC704700BF10000020E7
:103EEC003C0B002080B400AF024B1B881846BD462B
:103EFC0080BC70470E00002080B400AF024B1B88C2
:103F0C001846BD4680BC70471000002080B483B0BA
:103F1C0000AF03460A46FB801346BB80104AFB8861
:103F2C001380104ABB8813800F4B1B88B3F5C86FE6
:103F3C0005D10B4B1A880D4B1B685A630AE00A4BD0
:103F4C001B8840F21452934204D1064B1A88074B3B
:103F5C001B685A6300BF0C37BD4680BC704700BF5E
:103F6C00D2070020D4070020100000203C0B0020BA
:103F7C0098B500AF524B1B785BB25B005CB24FF450
:103F8C008041504804F052FB0346002B0CBF012328
:103F9C000023DBB25BB223435BB2DAB2484B1A703C
:103FAC00474B1B7803F00F030F2B03D1464B012219
:103FBC001A7008E0424B1B7803F00F03002B02D160
:103FCC00414B00221A70414B1B785BB25B005CB218
:103FDC004FF400413B4804F029FB0346002B0CBF77
:103FEC0001230023DBB25BB223435BB2DAB2374B63
:103FFC001A70364B1B7803F00F030F2B03D1324B87
:10400C0001225A7008E0314B1B7803F00F03002B90
:10401C0002D12D4B00225A702D4B1B785BB25B00EA
:10402C005CB201212B4804F001FB0346002B0CBFB2
:10403C0001230023DBB25BB223435BB2DAB2244B25
:10404C001A70234B1B7803F00F030F2B03D11E4B5D
:10405C000122DA7008E01E4B1B7803F00F03002BD3
:10406C0002D1194B0022DA701B4B1B785BB25B0040
:10407C005CB24FF40051134804F0D8FA0346002BFD
:10408C000CBF01230023DBB25BB223435BB2DAB279
:10409C00114B1A70104B1B7803F00F030F2B03D12D
:1040AC00094B01229A7008E00B4B1B7803F00F03AD
:1040BC00002B02D1044B00229A7000BF98BD00BFA8
:1040CC00D607002000100140DC070020D707002095
:1040DC00D807002000140140D907002080B483B019
:1040EC0000AF0A4B1B687B6000233A7962F307032D
:1040FC007A7962F30F23BA7962F31743FA7962F390
:10410C001F6318460C37BD4680BC7047DC07002087
:10411C00B0B588B000AF194B07F108041D460FCDA0
:10412C000FC495E8030084E8030007F1080319465F
:10413C00134800F023FD124800F040FD00BF10486A
:10414C0000F02FFD0346002BF9D10E4A3B1D1268DF
:10415C00114619800233120C1A703B1D194608487F
:10416C0000F04FFD00BF064800F01BFD0346002B7E
:10417C00F9D100BF00BF2037BD46B0BD90C20008CA
:10418C00E0070020A8C2000880B582B000AF1B4831
:10419C0000F021FD00BF194800F003FD0346002B81
:1041AC00F9D100BF154800F098FD034683F00103D8
:1041BC00DBB2002BF6D10021104800F0A4FD00BFAB
:1041CC000E4800F0EEFC0346002BF9D10B4800F032
:1041DC00AFFD0346FB80B7F90630094A934208DB72
:1041EC00B7F9063043F2D302934202DC054AFB884E
:1041FC00138000BF0837BD4680BD00BFE00700201C
:10420C0085EAFFFF1200002080B582B000AF02F0FB
:10421C002FFD78603A4B1B78002B0DD1394B1B6866
:10422C007A68D31A41F28732934205D9344B012272
:10423C001A70344A7B681360314B1B78052B5BD8A2
:10424C0001A252F823F000BFFB4200086D420008A7
:10425C0085420008A3420008B3420008F34200085C
:10426C00294800F0B8FC02F003FD0346274A13600E
:10427C00234B02221A703FE002F0FAFC0246234B59
:10428C001B68D31A204AB2F87820934231D31C4BC6
:10429C0003221A702DE000211B4800F034FD184B4E
:1042AC0004221A7028E0184800F07BFC034683F0C7
:1042BC000103DBB2002B1ED0134800F039FD03467E
:1042CC007B80B7F90230124A934208DBB7F902300F
:1042DC0043F2D302934202DC0E4A7B881380084BD4
:1042EC0000221A7007E0064B00221A7004E000BF8F
:1042FC0002E000BF00E000BF00BF0837BD4680BD34
:10430C005C08002064080020E00700206008002002
:10431C0085EAFFFF1200002080B400AF00BFBD464D
:10432C0080BC704780B582B000AF7860034800F065
:10433C0013FF00BF0837BD4680BD00BFE00700205B
:10434C0080B400AF094BB3F90030094A934208DB43
:10435C00064BB3F9003043F2D302934201DC012344
:10436C0000E000231846BD4680BC704712000020B8
:10437C0085EAFFFF80B500AFFFF7E2FF0346002B95
:10438C0002D14FF000030BE0064BB3F90030184696
:10439C00FBF790FF034604491846FBF7DFFF034683
:1043AC00184680BD120000200AD7233C80B582B08D
:1043BC0000AF7860034800F0CFFE00BF0837BD4661
:1043CC0080BD00BFE007002080B500AF084A094956
:1043DC00094800F083F9094A09490A4800F07EF9B6
:1043EC00094B00221A70094B00221A7000BF80BDC5
:1043FC0069080020B9680008A00D0020680800209A
:10440C0065680008580D00206A0800206B08002021
:10441C0080B500AF044A0549054800F05FF9054B2B
:10442C0000221A7000BF80BD680800206568000873
:10443C00580D00206A08002080B586B000AF786067
:10444C000B467B807B88002B2FD07B88B3F58C7F31
:10445C002BD8EFF31083FB60FB687B6172B600BF57
:10446C00154B1B78FB74FB7C002B02D1124B0122E9
:10447C001A707B69BB60BB6883F3108800BFFB7C40
:10448C00002B14D17B881A4679680C4807F0E0FEA3
:10449C007B881A4609490A4806F0A5FF0346002BFB
:1044AC0006D0054B00221A7002E000BF00E000BFEE
:1044BC001837BD4680BD00BF6A0800206C0800207C
:1044CC00580D002080B586B000AF78600B467B801D
:1044DC007B88002B35D07B88B3F58C7F31D8EFF3FC
:1044EC001083FB60FB687B6172B600BF184B1B78B6
:1044FC00FB74FB7C002B02D1154B01221A707B69DB
:10450C00BB60BB6883F3108800BFFB7C002B1AD107
:10451C007B881A4679680F4807F09AFE7B881A4602
:10452C000C490D4806F0BAFF0346002B0CD07A88D4
:10453C000A230849084806F0CBFE054B00221A70E6
:10454C0002E000BF00E000BF1837BD4680BD00BFD1
:10455C006B08002084090020A00D002080B584B0D9
:10456C0000AF78607B681B68124A93420CD1124BE7
:10457C001B78BB7301221049104806F069FFBB7B06
:10458C001846FEF75DF810E07B681B680C4A9342F6
:10459C000BD10C4B1B78FB7301220A490A4806F01D
:1045AC0057FFFB7B1846FEF767F800BF1037BD4678
:1045BC0080BD00BF0038014068080020580D002065
:1045CC000044004069080020A00D002080B483B096
:1045DC0000AF78607B681B68094A934203D1094B92
:1045EC0000221A7007E07B681B68074A934202D1CD
:1045FC00064B00221A7000BF0C37BD4680BC7047BA
:10460C00003801406A080020004400406B0800207C
:10461C0080B586B000AF78607B685B6C03F00803F4
:10462C00002B0AD000237B617B681B681B687B61B5
:10463C007B681B685B687B617B697B685B6C03F0E8
:10464C000403002B0AD000233B617B681B681B68AA
:10465C003B617B681B685B683B613B697B685B6C9F
:10466C0003F00203002B0AD00023FB607B681B685D
:10467C001B68FB607B681B685B68FB60FB687B6886
:10468C001B680E4A934208D10D4B00221A7001226E
:10469C000C490D4806F0DCFE0CE07B681B680B4AED
:1046AC00934207D10A4B00221A70012209490A4889
:1046BC0006F0CEFE00BF1837BD4680BD0038014065
:1046CC006A08002068080020580D002000440040B3
:1046DC006B08002069080020A00D002080B586B072
:1046EC0000AFF860B9607A60FB68202283F8412043
:1046FC00FB68202283F84220FB689B6B002B04D0C4
:10470C00FB689B6B002283F82120FB68DB6B002B82
:10471C0004D0FB68DB6B002283F82120F86806F0DC
:10472C00A5FDBB689847FB681B681B687B61FB6831
:10473C001B685B687B617B69FB681B68104A934252
:10474C0008D1002200210E2002F0E7FF0E2003F01A
:10475C0000F80CE0FB681B680A4A934207D1002260
:10476C000021112002F0D9FF112002F0F2FF0122EA
:10477C007968F86806F06CFE00BF1837BD4680BD3E
:10478C00003801400044004080B400AF034B4FF0B0
:10479C0000021A6000BFBD4680BC70479C0A002016
:1047AC0080B582B000AF02F063FA78602EE000F0C2
:1047BC0007F903461846FBF779FD034636491846B8
:1047CC00FBF780FE034635491846FBF7C7FD034649
:1047DC0033491846FBF7C2FD03463B60314B1B685F
:1047EC0031491846FBF7BAFD034639681846FBF702
:1047FC00ADFC03464FF081411846FBF763FE0346C0
:10480C001A46284B1A600A2002F03CFA02F030FAE1
:10481C0002467B68D31AB3F5FA7FC8D3214B1B68C9
:10482C0021491846FBF756FF0346002B17D01D4BAA
:10483C001B681E491846FBF739FF0346002B0ED0A8
:10484C00002210211A4803F008FF1E2002F01AFA69
:10485C0001224FF40041174803F0FFFE17E0114B03
:10486C001B6812491846FBF735FF0346002B00D195
:10487C000DE0012210210E4803F0EFFE1E2002F085
:10488C0001FA00224FF400410A4803F0E6FE00BF93
:10489C000837BD4680BD00BF00F07F45CDCC04413C
:1048AC00333353409C0A0020000040403333F34024
:1048BC0000080140000C014080B400AF024B1B68A3
:1048CC001846BD4680BC70479C0A002080B584B059
:1048DC0000AF3B1D00221A605A609A60184B194AAF
:1048EC001A60174B00229A60154B00221A73144B56
:1048FC0000221A75124B4FF46022DA61104B002221
:10490C005A600F4B01221A610D4802F0DFF9034681
:10491C00002B01D000F0D8FB00237B600123BB608F
:10492C000023FB603B1D1946054802F067FC03465B
:10493C00002B01D000F0C8FB00BF1037BD4680BD76
:10494C00A00A00200024014080B588B000AF786038
:10495C0007F1100300221A605A609A60DA607B68D3
:10496C001B68144A934221D1134B9B69124A43F49E
:10497C0000739361104B9B6903F40073FB60FB683D
:10498C000D4B9B690C4A43F0040393610A4B9B69E2
:10499C0003F00403BB60BB6801233B6103237B6111
:1049AC0007F110031946054803F000FC00BF20373F
:1049BC00BD4680BD002401400010024000080140AB
:1049CC0080B500AF064802F059FA4FF0FF310448A9
:1049DC0002F002FB024802F005FC0346184680BDBB
:1049EC00A00A002080B500AFFEF78AFAFFF71EFA86
:1049FC00FFF7EAFCFFF78CFBFFF7C6FBFFF7C4FEE3
:104A0C00FFF7CEFE0248FEF730FB00BF80BD00BFB3
:104A1C00D00A002080B500AFFEF7CCFA1048FDF7A5
:104A2C00F5FBFFF7F1FBFFF78BFC0346002B11D0D6
:104A3C000B48FEF7BAFB0346042B05D00848FEF7DB
:104A4C00B4FB0346012B05D1FFF794FC0346184633
:104A5C00FEF774FF0248FEF72DFB00BF80BD00BFC0
:104A6C00D00A002080B500AF124B1B8801339AB2DC
:104A7C00104B1A80FFF77CFAFFF74EFC0E48FDF73F
:104A8C002FFC0C4B1B88B3F5FA7F0AD3094B002281
:104A9C001A804FF48041094803F0F7FD0648FDF7F2
:104AAC0055FC0548FDF766FC0348FDF78DFC00BF7F
:104ABC0080BD00BFE00A0020D00A0020000C01409D
:104ACC0080B582B000AF78607868FFF747FD00BF13
:104ADC000837BD4680BD80B582B000AF786078687D
:104AEC00FFF774FD00BF0837BD4680BD80B582B0AE
:104AFC0000AF78607868FFF78BFD00BF0837BD46C4
:104B0C0080BD80B582B000AF78607868FEF7D4FFC6
:104B1C0000BF0837BD4680BD80B582B000AF78605D
:104B2C007868FFF7FFFB00BF0837BD4680BD00006B
:104B3C0080B582B000AF104B5B690F4A43F00103A4
:104B4C0053610D4B5B6903F001037B607B680022B2
:104B5C0000210E2002F0E1FD0E2002F0FAFD0022F1
:104B6C000021112002F0D9FD112002F0F2FD00BF4E
:104B7C000837BD4680BD00BF0010024080B582B032
:104B8C0000AF786039607B684FF44872A3F87820E6
:104B9C007B683968184600F09DFA00BF0837BD469F
:104BAC0080BD80B582B000AF78607B68184601F09C
:104BBC00DEF8034618460837BD4680BD80B582B086
:104BCC0000AF78607B68184601F0E2F8034618469F
:104BDC000837BD4680BD80B584B002AF786002F066
:104BEC0047F802467B685A677868002300930023D5
:104BFC000022442101F001F9034618460837BD464E
:104C0C0080BD80B586B002AF786039607F23FB73BE
:104C1C003B689B780B2B14D00B2B1ADC092B02D086
:104C2C000A2B07D015E01F23FB737B686422A3F8C3
:104C3C00782016E03F23FB737B68C822A3F878200A
:104C4C000FE05F23FB737B684FF4C872A3F87820E6
:104C5C0007E07F23FB737B684FF44872A3F878203E
:104C6C0000BF3B6893F901307D2B02DD3B687D2250
:104C7C005A703B6893F9013013F1370F02DA3B6835
:104C8C00C9225A703B6893F900307D2B02DD3B68DA
:104C9C007D221A703B6893F9003013F1370F02DA5A
:104CAC003B68C9221A703B6893F90130DBB23B7345
:104CBC003B6893F90030DBB27B73FB7BBB7378688A
:104CCC0007F10C020023009303234E2101F095F809
:104CDC00034618461037BD4680BD80B582B000AF84
:104CEC00786001F0C5FF02467B685B6FD31A7A6867
:104CFC00B2F8782093422CBF01230023DBB2184674
:104D0C000837BD4680BD80B584B002AF78600B46D5
:104D1C00FB707868F9780923019300230093002332
:104D2C00BE2201F0D4F8034618460837BD4680BDB4
:104D3C0080B588B000AF78604B4BBB610123FB752D
:104D4C007B6807F10C010922184601F054F903465F
:104D5C00092B7FD107F10C030821184600F0D0FF76
:104D6C0003461A463B7D9A4276D13B7B1AB27B7B3B
:104D7C001BB21B021BB213431BB2FB83B7F91E30D1
:104D8C00002B04DAFB8B5B42FB83FF23FB753B7C24
:104D9C005B11DBB203F00303DBB20933BB75BB7DE4
:104DAC00093B032B4CD801A252F823F0C94D000843
:104DBC00E34D0008014E00082B4E0008FB8BDB086E
:104DCC009BB21A46322302FB03F3BB617B680922B8
:104DDC0083F87A2037E0FB8B9B089BB21A4613466C
:104DEC009B0013449A001344BB617B680A2283F82E
:104DFC007A2028E0FB8B5B089BB21A4613465B01BA
:104E0C009B1A9B001344194A82FB03129210DB1766
:104E1C00D31ABB617B680B2283F87A2013E0FB8BDF
:104E2C0040F2712202FB03F3114A82FB031252116E
:104E3C00DB17D31ABB617B680C2283F87A2002E063
:104E4C000123FB7500BF97F91720BB6902FB03F325
:104E5C00BB6102E000BF00E000BFBB691BB218469B
:104E6C002037BD4680BD00BFF0D8FFFF6766666681
:104E7C001F85EB5180B58AB000AF07F114030022F7
:104E8C001A605A609A60DA60504B9B694F4A43F043
:104E9C00100393614D4B9B6903F010033B613B691D
:104EAC004A4B9B69494A43F020039361474B9B69EA
:104EBC0003F02003FB60FB68444B9B69434A43F0BF
:104ECC0004039361414B9B6903F00403BB60BB6813
:104EDC003E4B9B693D4A43F0080393613B4B9B69F6
:104EEC0003F008037B607B6800221021384803F034
:104EFC00B4FB00224FF47441364803F0AEFB4FF480
:104F0C0060437B610023BB610123FB6107F1140348
:104F1C001946314803F04AF901237B610023BB6138
:104F2C000123FB6107F1140319462C4803F03EF9E9
:104F3C0010237B610123BB610023FB6102233B62D5
:104F4C0007F114031946224803F030F94FF480633B
:104F5C007B611123BB610023FB6102233B6207F1E0
:104F6C00140319461B4803F021F94FF4E0437B610D
:104F7C000123BB610023FB6102233B6207F1140395
:104F8C001946144803F012F94FF400437B610123D6
:104F9C00BB610223FB6102233B6207F11403194638
:104FAC000C4803F003F90E4B5B687B627B6A43F0A1
:104FBC00E0637B627B6A43F400437B62084A7B6A52
:104FCC00536000BF2837BD4680BD00BF00100240B3
:104FDC0000080140000C0140001001400014014089
:104FEC000000014080B500AF01F0EAFD00F015F8BB
:104FFC00FFF740FFFFF79CFD01F0BCF801F0E8F96A
:10500C0001F0A8FA01F028FC01F050FCFFF75EFC5F
:10501C00FFF7E8FCFFF7FEFCFCE780B594B000AFAF
:10502C0007F1280328220021184607F0E5F807F1BC
:10503C00140300221A605A609A60DA601A613B1DF0
:10504C0000221A605A609A60DA600223BB62012364
:10505C00BB631023FB6302237B640023BB644FF40C
:10506C006013FB6407F12803184603F027FB034683
:10507C00002B01D000F028F80F237B610223BB61C9
:10508C000023FB614FF480633B6200237B6207F1DA
:10509C0014030221184603F093FD0346002B01D0A4
:1050AC0000F012F802237B604FF44043FB603B1D81
:1050BC00184603F013FF0346002B01D000F004F850
:1050CC0000BF5037BD4680BD80B400AF72B600BF84
:1050DC0000BFFDE780B584B000AF786039603B68F5
:1050EC009B8A1A467B68DA603B689B8A1A047B6849
:1050FC001A613B689B8A1A467B685A613B681A693D
:10510C007B689A603B681A687B681A603B689A688F
:10511C007B685A603B681A7B7B6883F83C207B6811
:10512C0018683B685B681A460E2105F0A3F97B688A
:10513C00FB600123FB72FB7A002B02D0FB68DB685F
:10514C0001E0FB681B69FA689268136100BF00BF3D
:10515C001037BD4680BD000080B5AAB000AF7860A6
:10516C007B6893F83A30012B04D0022B00F061825B
:10517C0000F0BDBD7B68C7F8A430D7F8A43093F815
:10518C003230072B00F2508201A252F823F000BFFC
:10519C00BD5100081B52000875520008DF52000870
:1051AC008D530008B15400080355000855550008EC
:1051BC00D7F8A4301B681B6840F2F312DA62D7F8F8
:1051CC00A4301B6840F2F312DA60D7F8A430C7F8A9
:1051DC00A030002387F89F3097F89F30002B03D026
:1051EC00D7F8A030DB6802E0D7F8A0301B69D7F8FD
:1051FC00A0209268136100BFD7F8A43093F8323026
:10520C000133DAB2D7F8A43083F832200FE2D7F8A2
:10521C00A4301B681B686322DA62D7F8A4301B68C1
:10522C006322DA60D7F8A430C7F89830012387F8E6
:10523C00973097F89730002B03D0D7F89830DB686D
:10524C0002E0D7F898301B69D7F898209268136160
:10525C0000BFD7F8A43093F832300133DAB2D7F864
:10526C00A43083F83220E2E1D7F8A430C7F89030AC
:10527C00D7F890309B689A68D7F890305B691340E8
:10528C00002B14BF01230023DBB2002B09D0D7F86D
:10529C00A430032283F83B20D7F8A40000F03EFF93
:1052AC00C5E1D7F8A4301B681B6840F2F312DA6230
:1052BC00D7F8A4301B6840F2F312DA60D7F8A430A8
:1052CC0093F832300133DAB2D7F8A43083F83220B5
:1052DC00ADE1D7F8A4309B8E1A46D7F8A43013440E
:1052EC001B7E1A46D7F8A43093F8333042FA03F3F6
:1052FC0003F00103002B01D0092200E04522D7F86E
:10530C00A4301B681B68DA62D7F8A4309B8E1A464F
:10531C00D7F8A43013441B7E1A46D7F8A43093F860
:10532C00333042FA03F303F00103002B01D00922BE
:10533C0000E04522D7F8A4301B68DA60D7F8A43017
:10534C00C7F88C30002387F88B3097F88B30002B04
:10535C0003D0D7F88C30DB6802E0D7F88C301B69AF
:10536C00D7F88C209268136100BFD7F8A43093F85B
:10537C0032300133DAB2D7F8A43083F8322056E158
:10538C00D7F8A4309B8E1A46D7F8A43013441B7E52
:10539C001A46D7F8A43093F8333042FA03F303F0EB
:1053AC000103002B01D0452200E00922D7F8A430DC
:1053BC001B681B68DA62D7F8A4309B8E1A46D7F8A4
:1053CC00A43013441B7E1A46D7F8A43093F833301C
:1053DC0042FA03F303F00103002B01D0452200E055
:1053EC000922D7F8A4301B68DA60D7F8A430C7F8C4
:1053FC008430012387F8833097F88330002B03D057
:10540C00D7F88430DB6802E0D7F884301B69D7F812
:10541C0084209268136100BFD7F8A43093F833301E
:10542C000133DAB2D7F8A43083F83320D7F8A4309C
:10543C0093F83330082B2FD1D7F8A430002283F8FF
:10544C003320D7F8A4309B8E01339AB2D7F8A4300E
:10545C009A86D7F8A4309A8ED7F8A430DB8E9A426D
:10546C0014D1D7F8A4301B8F002B09D0D7F8A43057
:10547C00052283F83220D7F8A43000229A86D6E091
:10548C00D7F8A430032283F83A20D0E0D7F8A43020
:10549C00032283F83220CAE0D7F8A430032283F821
:1054AC003220C4E0D7F8A4301B681B680922DA62EA
:1054BC00D7F8A4301B680922DA60D7F8A430FB6750
:1054CC00002387F87B3097F87B30002B02D0FB6FE2
:1054DC00DB6801E0FB6F1B69FA6F9268136100BF18
:1054EC00D7F8A43093F832300133DAB2D7F8A430BD
:1054FC0083F832209BE0D7F8A4301B681B68092284
:10550C00DA62D7F8A4301B680922DA60D7F8A43025
:10551C007B67012387F8733097F87330002B02D028
:10552C007B6FDB6801E07B6F1B697A6F926813619C
:10553C0000BFD7F8A43093F832300133DAB2D7F881
:10554C00A43083F8322072E0D7F8A4301B681B68B3
:10555C003B22DA62D7F8A4301B683B22DA60D7F81A
:10556C00A430FB66FB6E9B689A68FB6E5B6913400C
:10557C00002B14BF01230023DBB2002B24D0D7F85F
:10558C00A430DB8E1A46D7F8A4309B8E1344D7F880
:10559C00A42013441B7E5AB2D7F8A43093F83330AE
:1055AC00194601238B405BB213435AB2D7F8A4308F
:1055BC00DB8E1946D7F8A4309B8E0B44D1B2D7F8AA
:1055CC00A42013440A461A76D7F8A430052283F88F
:1055DC003220D7F8A43093F833300133DAB2D7F84D
:1055EC00A43083F83320D7F8A43093F83330082B49
:1055FC001CD1D7F8A430002283F83320D7F8A4307C
:10560C009B8E01339AB2D7F8A4309A86D7F8A4307F
:10561C009A8ED7F8A4301B8F9A4207D1D7F8A430B2
:10562C00032283F83A2001E000BF00E000BF00BF76
:10563C0061E37B68BB66BB6E93F832300C2B00F2D7
:10564C00518301A252F823F089560008D556000860
:10565C001D57000873570008E75700087F580008CB
:10566C00C75800080F59000863590008AB590008C7
:10567C00F3590008E55A00087F5B0008BB6E1B68F5
:10568C001B6840F2F312DA62BB6E1B6840F2F31235
:10569C00DA60BB6E7B66002387F8633097F8633063
:1056AC00002B02D07B6EDB6801E07B6E1B697A6E8F
:1056BC009268136100BFBB6E93F832300133DAB2DB
:1056CC00BB6E83F8322010E3BB6E1B681B68632231
:1056DC00DA62BB6E1B686322DA60BB6EFB6501236A
:1056EC0087F85B3097F85B30002B02D0FB6DDB68E2
:1056FC0001E0FB6D1B69FA6D9268136100BFBB6E14
:10570C0093F832300133DAB2BB6E83F83220ECE21C
:10571C00BB6E7B657B6D9B689A687B6D5B69134088
:10572C00002B14BF01230023DBB2002B07D0BB6E70
:10573C00032283F83B20B86E00F0F0FCD5E2BB6E80
:10574C001B681B6840F2F312DA62BB6E1B6840F2F6
:10575C00F312DA60BB6E93F832300133DAB2BB6EFF
:10576C0083F83220C1E2BB6E1B7E1A46BB6E93F8E7
:10577C00333042FA03F303F00103002B09D0BB6E64
:10578C001B681B680922DA62BB6E1B680922DA608F
:10579C0008E0BB6E1B681B684522DA62BB6E1B6897
:1057AC004522DA60BB6E3B65002387F84F3097F8D3
:1057BC004F30002B02D03B6DDB6801E03B6D1B6969
:1057CC003A6D9268136100BFBB6E93F832300133AF
:1057DC00DAB2BB6E83F8322087E2BB6E1B7E1A46B0
:1057EC00BB6E93F8333042FA03F303F00103002B42
:1057FC0009D0BB6E1B681B684522DA62BB6E1B6846
:10580C004522DA6008E0BB6E1B681B680922DA626D
:10581C00BB6E1B680922DA60BB6EBB64012387F880
:10582C00473097F84730002B02D0BB6CDB6801E0A7
:10583C00BB6C1B69BA6C9268136100BFBB6E93F8AA
:10584C0033300133DAB2BB6E83F83320BB6E93F87E
:10585C003330082B08D1BB6E002283F83320BB6E8B
:10586C00052283F8322040E2BB6E032283F83220FB
:10587C003BE2BB6E1B681B680922DA62BB6E1B68BD
:10588C000922DA60BB6E3B64002387F83F3097F83F
:10589C003F30002B02D03B6CDB6801E03B6C1B699A
:1058AC003A6C9268136100BFBB6E93F832300133CF
:1058BC00DAB2BB6E83F8322017E2BB6E1B681B6832
:1058CC000922DA62BB6E1B680922DA60BB6EBB630D
:1058DC00012387F8373097F83730002B02D0BB6B99
:1058EC00DB6801E0BB6B1B69BA6B9268136100BF8C
:1058FC00BB6E93F832300133DAB2BB6E83F83220D0
:10590C00F3E1BB6E1B681B683B22DA62BB6E1B6843
:10591C003B22DA60BB6E3B633B6B9B689A683B6BCC
:10592C005B691340002B14BF01230023DBB2002B57
:10593C0004D0BB6E102283F8662003E0BB6E0022FD
:10594C0083F86620BB6E93F832300133DAB2BB6E4B
:10595C0083F83220C9E1BB6E1B681B680922DA622E
:10596C00BB6E1B680922DA60BB6EFB62002387F8F2
:10597C002B3097F82B30002B02D0FB6ADB6801E050
:10598C00FB6A1B69FA6A9268136100BFBB6E93F8DD
:10599C0032300133DAB2BB6E83F83220A5E1BB6E34
:1059AC001B681B680922DA62BB6E1B680922DA606D
:1059BC00BB6E7B62012387F8233097F82330002BD2
:1059CC0002D07B6ADB6801E07B6A1B697A6A9268A9
:1059DC00136100BFBB6E93F832300133DAB2BB6E89
:1059EC0083F8322081E1BB6E1B681B683B22DA62B4
:1059FC00BB6E1B683B22DA60BB6EFB61FB699B686C
:105A0C009A68FB695B691340002B14BF01230023C8
:105A1C00DBB2002B08D0BB6E93F8663043F0010369
:105A2C00DAB2BB6E83F86620BB6E93F8323001336A
:105A3C00DAB2BB6E83F83220BB6E93F8333001338D
:105A4C00FB76BB6E93F86630002B37D10023BB7608
:105A5C00BB6E93F86730FA7E9A4216D2BB6E93F8FF
:105A6C003330DB08DBB21A46BB6E134493F86A3052
:105A7C001A46BB6E93F8333003F0070342FA03F374
:105A8C00DBB203F00103BB760EE0BB6E93F867301C
:105A9C00FA7E9A4202D10123BB7605E00023BB7645
:105AAC00BB6EFA7E83F86820BB7E002B01D01022DF
:105ABC0000E00122BB6E83F8662015E1BB6E93F803
:105ACC006630112B40F01081BB6E052283F83B2011
