:020000040800F2
:1030000000500020819F0008E9960008F196000812
:10301000359700083D97000845970008000000001C
:103020000000000000000000000000004D970008B4
:103030005997000800000000659700087197000884
:10304000C99F0008C99F0008C99F0008C99F0008C0
:10305000C99F0008C99F0008C99F0008C99F0008B0
:10306000C99F0008C99F0008C99F0008C99F0008A0
:10307000C99F0008C99F000881970008C99F0008E0
:10308000C99F000895970008C99F0008C99F0008BC
:10309000C99F0008C99F0008C99F0008C99F000870
:1030A000C99F0008C99F0008C99F0008C99F000860
:1030B000A9970008C99F0008BD970008C99F00088C
:1030C000C99F0008C99F0008C99F0008C99F000840
:1030D000C99F0008D1970008E5970008C99F00081C
:1030E000C99F0008C99F0008C99F00080000000090
:1030F00000000000000000000000000000000000D0
:0C31000000000000000000005FF808F173
:10310C0010B5054C237833B9044B13B10448AFF315
:10311C0000800123237010BD20000020000000005F
:10312C0098FD000808B5034B1BB103490348AFF3E6
:10313C00008008BD000000002400002098FD00085D
:10314C0080F0004002E000BF81F0004142001FBF50
:10315C005FEA410392EA030F7FEA226C7FEA236C59
:10316C006AD04FEA1262D2EB1363C1BFD21841404E
:10317C0048404140B8BF5B42192B88BF704710F0E4
:10318C00004F40F4000020F07F4018BF404211F087
:10319C00004F41F4000121F07F4118BF494292EAEF
:1031AC00030F3FD0A2F1010241FA03FC10EB0C001B
:1031BC00C3F1200301FA03F100F0004302D54942A8
:1031CC0060EB4000B0F5000F13D3B0F1807F06D355
:1031DC0040084FEA310102F10102FE2A51D2B1F14D
:1031EC00004F40EBC25008BF20F0010040EA030042
:1031FC007047490040EB0000013A28BFB0F5000FC2
:10320C00EDD2B0FA80FCACF1080CB2EB0C0200FA77
:10321C000CF0AABF00EBC25052421843BCBFD040C6
:10322C001843704792F0000F81F4000106BF80F440
:10323C0000000132013BB5E74FEA41037FEA226C03
:10324C0018BF7FEA236C21D092EA030F04D092F0CE
:10325C00000F08BF0846704790EA010F1CBF002002
:10326C00704712F07F4F04D1400028BF40F000405F
:10327C00704712F100723CBF00F50000704700F07F
:10328C00004343F0FE4040F4000070477FEA2262A6
:10329C0016BF08467FEA23630146420206BF5FEA77
:1032AC00412390EA010F40F4800070474FF0000377
:1032BC0004E000BF10F0004348BF40425FEA000C3E
:1032CC0008BF704743F0964301464FF000001CE0E6
:1032DC0050EA010208BF70474FF000030AE000BF3C
:1032EC0050EA010208BF704711F0004302D540427A
:1032FC0061EB41015FEA010C02BF844601460020EC
:10330C0043F0B64308BFA3F18053A3F50003BCFA06
:10331C008CF2083AA3EBC25310DB01FA02FC6344B3
:10332C0000FA02FCC2F12002BCF1004F20FA02F2BA
:10333C0043EB020008BF20F00100704702F12002AD
:10334C0001FA02FCC2F1200250EA4C0021FA02F20E
:10335C0043EB020008BF20EADC7070474FF0FF0C13
:10336C001CEAD0521EBF1CEAD15392EA0C0F93EA0E
:10337C000C0F6FD01A4480EA010C400218BF5FEAB0
:10338C0041211ED04FF0006343EA501043EA511123
:10339C00A0FB01310CF00040B1F5000F3EBF49001D
:1033AC0041EAD3715B0040EA010062F17F02FD2A21
:1033BC001DD8B3F1004F40EBC25008BF20F0010004
:1033CC00704790F0000F0CF0004C08BF49024CEA1B
:1033DC00502040EA51207F3AC2BFD2F1FF0340EAAD
:1033EC00C250704740F400004FF00003013A5DDC1E
:1033FC0012F1190FDCBF00F000407047C2F100025F
:10340C00410021FA02F1C2F1200200FA02FC5FEA4B
:10341C00310040F1000053EA4C0308BF20EADC7095
:10342C00704792F0000F00F0004C02BF400010F407
:10343C00000F013AF9D040EA0C0093F0000F01F0B4
:10344C00004C02BF490011F4000F013BF9D041EAD6
:10345C000C018FE70CEAD15392EA0C0F18BF93EAD8
:10346C000C0F0AD030F0004C18BF31F0004CD8D102
:10347C0080EA010000F00040704790F0000F17BF89
:10348C0090F0004F084691F0000F91F0004F14D0CF
:10349C0092EA0C0F01D142020FD193EA0C0F03D127
:1034AC004B0218BF084608D180EA010000F000402A
:1034BC0040F0FE4040F40000704740F0FE4040F405
:1034CC00400070474FF0FF0C1CEAD0521EBF1CEAA4
:1034DC00D15392EA0C0F93EA0C0F69D0A2EB0302C2
:1034EC0080EA010C49024FEA402037D04FF080535C
:1034FC0043EA111143EA10130CF000408B4238BF21
:10350C005B0042F17D024FF4000C8B4224BF5B1A2E
:10351C0040EA0C00B3EB510F24BFA3EB510340EA7C
:10352C005C00B3EB910F24BFA3EB910340EA9C002A
:10353C00B3EBD10F24BFA3EBD10340EADC001B019A
:10354C0018BF5FEA1C1CE0D1FD2A3FF650AF8B423E
:10355C0040EBC25008BF20F0010070470CF0004C4B
:10356C004CEA50207F32C2BFD2F1FF0340EAC25076
:10357C00704740F400004FF00003013A37E792F037
:10358C00000F00F0004C02BF400010F4000F013A95
:10359C00F9D040EA0C0093F0000F01F0004C02BF90
:1035AC00490011F4000F013BF9D041EA0C0195E7F9
:1035BC000CEAD15392EA0C0F08D142027FF47DAF92
:1035CC0093EA0C0F7FF470AF084676E793EA0C0F82
:1035DC0004D14B023FF44CAF08466EE730F0004C80
:1035EC0018BF31F0004CCAD130F000427FF45CAF10
:1035FC0031F000437FF43CAF5FE700BF4FF0FF3C7E
:10360C0006E000BF4FF0010C02E000BF4FF0010CD0
:10361C004DF804CD4FEA40024FEA41037FEA226C99
:10362C0018BF7FEA236C11D001B052EA530C18BFBB
:10363C0090EA010F58BFB2EB030088BFC81738BF20
:10364C006FEAE17018BF40F0010070477FEA226C0E
:10365C0002D15FEA402C05D17FEA236CE4D15FEA0A
:10366C00412CE1D05DF8040B704700BF844608463E
:10367C006146FFE70FB5FFF7C9FF002848BF10F1FF
:10368C00000F0FBD4DF808EDFFF7F4FF0CBF012044
:10369C0000205DF808FB00BF4DF808EDFFF7EAFFCE
:1036AC0034BF012000205DF808FB00BF4DF808ED89
:1036BC00FFF7E0FF94BF012000205DF808FB00BF7E
:1036CC004DF808EDFFF7D2FF94BF012000205DF804
:1036DC0008FB00BF4DF808EDFFF7C8FF34BF012011
:1036EC0000205DF808FB00BF42000ED2B2F1FE4F85
:1036FC000BD34FF09E03B3EB126209D44FEA0023B5
:10370C0043F0004323FA02F070474FF0000070477B
:10371C0012F1610F01D1420202D14FF0FF3070471C
:10372C004FF00000704700BF80B485B000AF034677
:10373C003960FB713B681B88DAB2FB795340FB7331
:10374C0097F90F301B015AB297F90F3053405BB207
:10375C00FB733B681B881B0A9BB21AB2FB7B1BB228
:10376C001B021BB253401AB2FB7B1BB2DB001BB219
:10377C0053401AB2FB7B1B09DBB21BB253401BB28A
:10378C009AB23B681A8000BF1437BD4680BC7047A4
:10379C0080B483B000AF78607B684FF6FF721A80FC
:1037AC0000BF0C37BD4680BC704780B584B000AFFD
:1037BC0078600B467B8007F10E031846FFF7E8FF95
:1037CC0009E07B685A1C7A601B7807F10E021146DF
:1037DC001846FFF7A9FF7B885A1E7A80002BF0D180
:1037EC00FB8918461037BD4680BD80B586B000AF4A
:1037FC00F860B9601346FB80BB687B6107E07B69AE
:10380C005A1C7A611B78F9681846FFF78DFFFB8804
:10381C005A1EFA80002BF2D100BF00BF1837BD46EC
:10382C0080BD000080B483B000AF78607B6800225C
:10383C001A607B6800225A607B680E4A9A607B682B
:10384C000D4ADA607B680D4A1A617B680C4A5A6132
:10385C007B680C4A9A617B680B4ADA617B680B4A7D
:10386C001A627B680A4A5A6200BF0C37BD4680BC9C
:10387C00704700BF67E6096A85AE67BB72F36E3CA2
:10388C003AF54FA57F520E518C68059BABD9831F1F
:10389C0019CDE05B80B4CFB000AF07F59C73A3F5F6
:1038AC009A73186007F59C73A3F59C73196007F560
:1038BC009C73A3F59A731B689B68C7F8343107F5A2
:1038CC009C73A3F59A731B68DB68C7F8303107F556
:1038DC009C73A3F59A731B681B69C7F82C3107F509
:1038EC009C73A3F59A731B685B69C7F8283107F5BD
:1038FC009C73A3F59A731B689B69C7F8243107F571
:10390C009C73A3F59A731B68DB69C7F8203107F524
:10391C009C73A3F59A731B681B6AC7F81C3107F5D7
:10392C009C73A3F59A731B685B6AC7F81831002364
:10393C00C7F8143116E0D7F814319B0007F59C72C8
:10394C00A2F59C7212681344196807F59C73A3F5D1
:10395C009673D7F8142143F82210D7F81431013399
:10396C00C7F81431D7F814310F2BE4DD1023C7F846
:10397C00143169E0D7F814319A1E07F59C73A3F53E
:10398C00967353F822304FEA7342D7F81431991ECC
:10399C0007F59C73A3F5967353F821304FEAF34364
:1039AC005A40D7F81431991E07F59C73A3F59673FA
:1039BC0053F821309B0A5A40D7F81431D91F07F518
:1039CC009C73A3F5967353F821301A44D7F814312D
:1039DC00A3F10F0107F59C73A3F5967353F82130EF
:1039EC004FEAF311D7F81431A3F10F0007F59C73CC
:1039FC00A3F5967353F820304FEAB3435940D7F8E8
:103A0C001431A3F10F0007F59C73A3F5967353F8CB
:103A1C002030DB084B401A44D7F81431A3F11001C5
:103A2C0007F59C73A3F5967353F82130D11807F55D
:103A3C009C73A3F59673D7F8142143F82210D7F88A
:103A4C0014310133C7F81431D7F814313F2B91DD01
:103A5C000023C7F8143178E0D7F824314FEAB312B9
:103A6C00D7F824314FEAF3235A40D7F824314FEAE0
:103A7C0073635A40D7F818311A44D7F82411D7F881
:103A8C0020311940D7F82431D843D7F81C310340E2
:103A9C004B401A446E49D7F8143151F823301A446C
:103AAC0007F59C73A3F59673D7F8141153F82130CE
:103ABC001344C7F81031D7F834314FEAB302D7F8B2
:103ACC0034314FEA73335A40D7F834314FEAB35399
:103ADC005A40D7F83011D7F82C315940D7F8343137
:103AEC001940D7F83001D7F82C3103404B40134420
:103AFC00C7F80C31D7F81C31C7F81831D7F820317A
:103B0C00C7F81C31D7F82431C7F82031D7F8282151
:103B1C00D7F810311344C7F82431D7F82C31C7F833
:103B2C002831D7F83031C7F82C31D7F83431C7F8F1
:103B3C003031D7F81021D7F80C311344C7F8343191
:103B4C00D7F814310133C7F81431D7F814313F2B9F
:103B5C0082DD07F59C73A3F59A731B689A68D7F8F6
:103B6C0034311A4407F59C73A3F59A731B689A6059
:103B7C0007F59C73A3F59A731B68DA68D7F8303194
:103B8C001A4407F59C73A3F59A731B68DA6007F562
:103B9C009C73A3F59A731B681A69D7F82C311A44D5
:103BAC0007F59C73A3F59A731B681A6107F59C7350
:103BBC00A3F59A731B685A69D7F828311A4407F58C
:103BCC009C73A3F59A731B685A6107F59C73A3F554
:103BDC009A731B689A69D7F824311A4407F59C73B9
:103BEC00A3F59A731B689A6107F59C73A3F59A73F6
:103BFC001B68DA69D7F820311A4407F59C73A3F5D2
:103C0C009A731B68DA6107F59C73A3F59A731B68AA
:103C1C001A6AD7F81C311A4407F59C73A3F59A73EA
:103C2C001B681A6207F59C73A3F59A731B685A6A92
:103C3C00D7F818311A4407F59C73A3F59A731B68CF
:103C4C005A6200BF07F59E77BD4680BC704700BF27
:103C5C00CCFD000880B59CB000AFF860B9607A600C
:103C6C00BB68FB66FB681B68FB65FB681A687B68B6
:103C7C00DB001A44FB681A60FB681B68FA6D9A42F9
:103C8C0004D9FB685B685A1CFB685A60FB6DDB0847
:103C9C0003F03F03BB6657E0BB6EC3F140037B668A
:103CAC007A687B6E9A4201D27B687B66FB6803F173
:103CBC002802BB6E13447A6EF96E18460CF058F855
:103CCC00BA6E7B6E1344BB66FA6E7B6E1344FB6656
:103CDC007A687B6ED31A7B60BB6E402B34D1FB6849
:103CEC002833BB6500233B6623E03B6E9B00BA6D1B
:103CFC0013447B6507F110023B6E9B0013443B653C
:103D0C007B6D03331A783B6D1A707B6D9A1C3B6D7F
:103D1C00013312781A707B6D5A1C3B6D023312788A
:103D2C001A703B6D03337A6D12781A703B6E013347
:103D3C003B663B6E0F2BD8DD07F110031946F86874
:103D4C00FFF7A8FD0023BB667B68002BA4D100BF46
:103D5C0000BF7037BD4680BD80B598B000AF7860AD
:103D6C0039607B681B68DB0803F03F03FB65FB6D68
:103D7C00C3F1770303F03F030133BB657B68083362
:103D8C007B6580233B7307F10C0301334722002131
:103D9C0018460BF0C1FF7B681A68BB6D0733D2B2B3
:103DAC0060333B4403F8542C7B681B681A0ABB6DC8
:103DBC000633D2B260333B4403F8542C7B681B6847
:103DCC001A0CBB6D0533D2B260333B4403F8542C50
:103DDC007B681B681A0EBB6D0433D2B260333B4454
:103DEC0003F8542C7B685A68BB6D0333D2B2603332
:103DFC003B4403F8542C7B685B681A0ABB6D023396
:103E0C00D2B260333B4403F8542C7B685B681A0CC9
:103E1C00BB6D0133D2B260333B4403F8542C7B6846
:103E2C005B681B0ED9B207F10C02BB6D13440A463A
:103E3C001A70BB6D03F1080207F10C031946786880
:103E4C00FFF708FF7B6DDA783B681A703B6801332B
:103E5C007A6D92781A703B6802337A6D52781A70C8
:103E6C003B6803337A6D12781A703B6804337A6DB1
:103E7C00D2791A703B6805337A6D92791A7000BF4B
:103E8C006037BD4680BD000080B483B000AF0346F0
:103E9C00FB71FA7913465B001344DB00034A1344AD
:103EAC0018460C37BD4680BC704700BFC8020020C6
:103EBC0080B483B000AF0346FB71FB7940F2231250
:103ECC0002FB03F3034A134418460C37BD4680BC6F
:103EDC00704700BF28030020B0B5A0B000AFF86059
:103EEC00B9607A60FB70FB68002B05D0FB681B780F
:103EFC0003F00103002B01D100234FE0FB685A783B
:103F0C00BB681A70FB68D3E90223C7E90423BB68BA
:103F1C00013307F11001062218460BF029FFFB684C
:103F2C00D3E90223541C43F10005FB68C3E90245A5
:103F3C0007F118031846FFF775FCFB6803F1100135
:103F4C0007F1180320221846FFF784FEFA7807F1D0
:103F5C00180379681846FFF77DFE97F8942007F14F
:103F6C001803D7F890101846FFF774FE07F11803E2
:103F7C000222D7F898101846FFF76CFE07F11803C9
:103F8C000722B9681846FFF765FEBB68DA1D07F112
:103F9C00180311461846FFF7DFFE0D23184680372D
:103FAC00BD46B0BD80B483B000AF78600B46FB70EB
:103FBC0002E0FB78013BFB70FB78012B06D9FB7808
:103FCC00013B7A6813441B78002BF2D0FB7818461F
:103FDC000C37BD4680BC7047B0B5AAB000AFF860D6
:103FEC00B9607A60FB68002B01D101233EE17B684C
:103FFC000233C7F8A0307B6803F58B73C7F89C308D
:10400C00D7F89C300733C7F8983007F12C031846C3
:10401C00FFF708FCFB6803F1100107F12C032022C9
:10402C001846FFF717FE07F12C030A22D7F8A01049
:10403C001846FFF70FFE7B6803F10C017B68DB78F9
:10404C001A4607F12C031846FFF704FE7B6803F5AC
:10405C008A7107F12C0302221846FFF7FBFD07F1CA
:10406C002C030722D7F89C101846FFF7F3FD07F135
:10407C00240207F12C0311461846FFF76DFE07F1D9
:10408C0024030622D7F8981018460BF035FE034689
:10409C00002B05D0FB68022283F834200023E5E0D6
:1040AC00D7F89C301B7887F897304FF000024FF010
:1040BC000003C7E90623D7F89C30591C07F11803F5
:1040CC00062218460BF054FEBB68002B05D1FB688A
:1040DC00032283F834200023C8E00023A7F8A6307D
:1040EC002BE07B68D979B7F8A620B8681346DB00BB
:1040FC001344034403331B78994219D17B68197A12
:10410C00B7F8A620B8681346DB0013440344043305
:10411C001B7899420CD1B7F8A620B9681346DB007E
:10412C0013440B4402331B7897F897209A420BD018
:10413C00B7F8A6300133A7F8A630BB681B88B7F8D0
:10414C00A6209A42CDD300E000BFBB681B88B7F80D
:10415C00A6209A4246D1BB681B880F2B05D9FB6859
:10416C00042283F83420002380E0D7E90623414958
:10417C00541843F10005FB68D3E90223944275EB14
:10418C00030305D2FB68052283F8342000236DE07D
:10419C00B7F8A6207B68D879B9681346DB001344BE
:1041AC000B44033302461A70B7F8A6207B68187AC2
:1041BC00B9681346DB0013440B44043302461A70EF
:1041CC00B7F8A620B9681346DB0013440B4402333E
:1041DC0097F897201A70BB681B8801339AB2BB689A
:1041EC001A8021E04FF000024FF00003C7E90423CE
:1041FC00B7F8A6201346DB001344BA681344591DC4
:10420C0007F11003062218460BF0B2FDD7E906237E
:10421C00D7E90401904271EB030305D3FB68062236
:10422C0083F83420002321E0B7F8A6201346DB00E6
:10423C001344BA681344581DD7F89C300133062236
:10424C0019460BF095FDD7E90623F968D1E902016F
:10425C00904271EB030304D2D7E90623F968C1E954
:10426C000223FB68012283F8342001231846A83767
:10427C00BD46B0BD808D5B00F0B58FB004AFF8606B
:10428C007B600B46FB721346BB727B681B7B03F097
:10429C000203002B14BF0123002387F8263097F864
:1042AC00263083F00103DBB2002B0CD07B681B693A
:1042BC00002B08D07B681B691B7803F00103002BD3
:1042CC0001D0012300E0002387F8253097F8253032
:1042DC0003F0010387F8253097F82530002B01D027
:1042EC000D2300E0002387F824300A2387F82730B9
:1042FC0097F82630002B06D0FB68FE229A70062316
:10430C0087F8273002E0FB68FD229A7097F8263078
:10431C00002B0AD1FB680C3397F844201146184641
:10432C00FFF740FE03461A4601E097F84020FB6871
:10433C00DA70FB68FA7ADA71FB68BA7A1A72FB687F
:10434C0000221A7197F82530002B06D0FB681B79D8
:10435C0043F00103DAB2FB681A71FB6800225A7150
:10436C007B689A79FB689A717B689B790133DAB226
:10437C007B689A71FB689B783B76FB68DB787B7675
:10438C0097F82630002B13D0FB689B79BB76FB6823
:10439C00DB79FB76FB681B7A3B77FB685A7A997A58
:1043AC0009020A43DB7A1B041343DBB27B7730E050
:1043BC00FB681B79BB76FB685B79FB76FB689B79AA
:1043CC003B77FB68DB797B77FB681B7ABB77FB68F9
:1043DC005A7A997A09020A43DB7A1B041343DBB23B
:1043EC00FB77FB685A7A997A09020A43DB7A1B0439
:1043FC0013431B12DBB287F82030FB685A7A997A88
:10440C0009020A43DB7A1B0413431B14DBB287F843
:10441C00213097F827309BB2013B9AB207F1180371
:10442C00013311461846FFF7C0F90346FB82FB68BF
:10443C0003F10C01FB68DB781A4607F116031846EA
:10444C00FFF7D3F907F1160297F8483011461846D2
:10445C00FFF76AF9F98AFB680C33FA68D2781344CF
:10446C00CAB21A70FB8A1B0A99B2FB6803F10C02E0
:10447C00FB68DB7801331344CAB21A70FA8AFB6802
:10448C001A8097F82530002B1AD07B681C69FB68C2
:10449C0003F58B75FB680C33FA68D278F9680C312C
:1044AC00F868C078014497F8276007F1180002916A
:1044BC00019200933346024629462046FFF70CFD35
:1044CC00FB68DB781A4697F827309BB213449AB2F4
:1044DC0097F824309BB213449BB202339BB218461C
:1044EC002C37BD46F0BD80B588B004AF7860084667
:1044FC0011461A460346FB700B46BB7013467B7085
:10450C007B781846FFF7C0FCF860BA78F97897F812
:10451C00203002933B7F01933B7E0093FB687868CD
:10452C00FFF7AAFE034618461037BD4680BD80B57E
:10453C0086B004AF7860084611461A460346FB70F5
:10454C000B46BB7013467B70BA78F9783B7D0293AF
:10455C003B7C01937B78009300237868FFF7C3FFC3
:10456C00034618460837BD4680BD80B483B000AF03
:10457C0078607B689B780133DAB27B689A7000BFF5
:10458C000C37BD4680BC704780B586B000AF7860F4
:10459C0039603B68DB78FB733B689B78FE2B3AD128
:1045AC000023FB750523BB753B689A787B681A70F2
:1045BC007B680133FA7B1A707B6802333A68927914
:1045CC001A707B6803333A68D2791A707B680433AB
:1045DC003A68127A1A703B685A7A997A09020A4335
:1045EC00DB7A1B0413431A467B680533D2B21A706C
:1045FC007B68981D3B6803F10C013B68DB781A461D
:10460C000BF0B6FBBB7D3A68D278134401337A6861
:10461C0013443B616CE03B680C33FA7B1146184643
:10462C00FFF7C0FC0346FB730923BB753B689A7804
:10463C007B681A707B680133FA7B1A707B680233D3
:10464C003A6812791A707B6803333A6852791A7097
:10465C007B6804333A6892791A707B6805333A6840
:10466C00D2791A707B6806333A68127A1A703B68F2
:10467C005A7A997A09020A43DB7A1B0413431A46C5
:10468C007B680733D2B21A703B685A7A997A09025E
:10469C000A43DB7A1B0413431A0A7B680833D2B231
:1046AC001A703B685A7A997A09020A43DB7A1B041E
:1046BC0013431A0C7B680933D2B21A707B6803F16E
:1046CC000A003B680C33FA7B19460BF051FBBA7DA0
:1046DC00FB7B134401337A6813443B613B681B79C1
:1046EC0003F00103002B01D00D2300E00023FB7528
:1046FC003B681B889BB2DAB23B691A703B681B881B
:10470C009BB21B0A9AB23B690133D2B21A70FB7D81
:10471C00002B08D03B69981C3B6803F58B73FA7D22
:10472C0019460BF025FBBB7D9AB2FB7B9BB2134465
:10473C009AB2FB7D9BB213449BB203339BB21846D7
:10474C001837BD4680BD80B584B000AF78600023BB
:10475C00FB8107F10E031846FFF71AF8FA897B68FC
:10476C001A8000BF1037BD4680BD80B584B000AF45
:10477C0078600B46FB707B681B889BB2FB8107F152
:10478C000E02FB7811461846FEF7CEFFFA897B68BD
:10479C001A8000BF1037BD4680BD000080B487B0C2
:1047AC0000AF786000237B6106233B6125E07A69CA
:1047BC003B69134401335B08FB601E49FA681346DE
:1047CC005B0013449B000B441B687A689A4203D22B
:1047DC00FB68013B3B6110E01649FA6813465B002D
:1047EC0013449B000B441B687A689A4202D9FB68FD
:1047FC007B6102E0FB687B6103E07A693B699A426A
:10480C00D5D30C497A6913465B0013449B000B44C7
:10481C001B687A689A4201D0002306E07A69134635
:10482C005B0013449B00034A134418461C37BD46D7
:10483C0080BC7047CCFE000880B588B000AFF86033
:10484C00B9603B601346FB71BB6800221A70BB68F1
:10485C00DB78102B00F27F8201A252F823F000BF0C
:10486C00B1480008B14800080F4900087549000814
:10487C00A9490008C1490008D9490008F1490008B4
:10488C00094A0008634A0008AF4A00080B4B0008AD
:10489C00434B0008DB4B0008DB4B00089D4C000829
:1048AC009D4C0008FB79FD2B13D1BB680222DA70FA
:1048BC00FB680022DA70FB68FA799A70BB681B7B84
:1048CC0023F00103DAB2BB681A73F868FFF73BFFF9
:1048DC0038E2FB79FE2B40F03582BB680222DA709D
:1048EC00FB680022DA70FB68FA799A70BB681B7B54
:1048FC0043F00103DAB2BB681A73F868FFF723FFC1
:10490C0020E2BB681B78002B0FD0BB685B780133AF
:10491C00DAB2BB685A70B868FFF727FEBB68002292
:10492C001A70BB680122DA7015E2FB68FA79DA704A
:10493C00BB6800221A71FB791946F868FFF715FF5E
:10494C00BB681B7B03F00103002B09D0FB68002222
:10495C001A71FB6800225A71BB680522DA70FAE101
:10496C00BB680322DA70F6E1FB68FA791A71FB680E
:10497C001B79012B09D9B868FFF7F7FDBB6800223A
:10498C001A70BB680122DA70E5E1FB791946F86808
:10499C00FFF7EBFEBB680422DA70DCE1FB68FA7906
:1049AC005A71FB791946F868FFF7DFFEBB680522E0
:1049BC00DA70D0E1FB68FA799A71FB791946F868DC
:1049CC00FFF7D3FEBB680622DA70C4E1FB68FA7904
:1049DC00DA71FB791946F868FFF7C7FEBB68072246
:1049EC00DA70B8E1FB68FA791A72FB791946F86843
:1049FC00FFF7BBFEBB680822DA70ACE1FB7923F051
:104A0C007F43FA68D9B2002001435172190AC9B226
:104A1C000020014391721B0CDBB200210B43D372BB
:104A2C00FB791946F868FFF7A0FEBB681B7B03F007
:104A3C000103002B0BD0FB68DB78002B03D0BB6889
:104A4C000B22DA7087E1BB680C22DA7083E1BB6859
:104A5C000922DA707FE1FB685A7A997A09020A43D3
:104A6C00DB7A1B0413431A46FB791B02134323F016
:104A7C007F42FB68D1B2002001435972110AC9B2BE
:104A8C00002001439972120CD2B200210A43DA724F
:104A9C00FB791946F868FFF768FEBB680A22DA70E2
:104AAC0059E1FB685A7A997A09020A43DB7A1B04AA
:104ABC0013431A46FB791B04134323F07F42FB6814
:104ACC00D1B2002001435972110AC9B2002001432E
:104ADC009972120CD2B200210A43DA72FB79194690
:104AEC00F868FFF742FEFB68DB78002B03D0BB684D
:104AFC000B22DA702FE1BB680C22DA702BE1FB6819
:104B0C0003F10C02BB681B79591CC8B2B968087157
:104B1C001344FA791A70FB791946F868FFF725FEE9
:104B2C00BB681A79FB68DB789A4240F00D81BB6850
:104B3C000C22DA7008E1FB685A7A997A09020A4366
:104B4C00DB7A1B0413431846FFF728FEB861BB69D8
:104B5C00002B07D1BB680E22DA70FB68FA7983F858
:104B6C001421F3E0BB691B79FB75FB7D1946F868D2
:104B7C00FFF7FBFDFA79FB681B889BB2DBB29A420C
:104B8C0003D0BB680E22DA7002E0BB680D22DA702B
:104B9C00FB68FA7983F81421BB69002B00F0D680EE
:104BAC00BB681A79BB699B799A4280F0CF80FB680D
:104BBC000C33BA6812799818BB699B791A46BB6892
:104BCC001B79D31A1A4600210BF0A6F8BEE0BB687D
:104BDC00DB780E2B08D0FB799AB2FB681B889BB252
:104BEC001B0A9BB29A4203D0BB6802221A7002E0E5
:104BFC00BB6801221A70FB68FA7983F81521FB68EF
:104C0C001B7903F00103002B11D0BB681B78022B1E
:104C1C0003D1BB681022DA7005E0BB680F22DA7092
:104C2C00BB6800221A70BB680D225A7390E0BB68F7
:104C3C001B69002B1FD0BB681B691B6B002B13D08F
:104C4C00BB681B691A6BFB68597A987A000201439E
:104C5C00DB7A1B040B431946B8689047034683F074
:104C6C000103DBB2002B06D0BB681B78022B02D0F1
:104C7C00BB6803221A70BB680122DA703B68002BF8
:104C8C0066D040F22312F96838680BF071F85FE0D7
:104C9C00BB685B7BC3F10D03FA681344FA7983F8A4
:104CAC001621BB685B7B013BDAB2BB685A73BB68ED
:104CBC005B7B002B4ED1BB681869BB685B69FA68DB
:104CCC001946FFF789F90346FB77FB7F83F0010355
:104CDC00DBB2002B17D0BB681B691B6B002B12D0EF
:104CEC00BB681B691A6BFB68597A987A00020143FE
:104CFC00DB7A1B040B431946B86890470346002B1C
:104D0C0001D00123FB77BB68DB78102B03D1BB6888
:104D1C0002221A7009E0FB7F002B03D0BB68012232
:104D2C001A7002E0BB6803221A70BB680122DA70A9
:104D3C003B68002B0ED040F22312F96838680BF058
:104D4C0017F807E000BF06E000BF04E000BF02E078
:104D5C0000BF00E000BFBB681B78012B10D1FB68C3
:104D6C009A79BB685A71BB681B89002B02D1BB684E
:104D7C0000225A81BB681B8901339AB2BB681A8125
:104D8C003B68002B03D0FB68DA783B68DA70BB6AAF
:104D9C00002B1AD0BB68DA78BB6ADA70BB681A7958
:104DAC00BB6A1A71BB685B790133DAB2BB6A5A71A0
:104DBC00BB681A89BB6A1A81BB689B781A46BB6AA6
:104DCC005A81BB681A7BBB6A1A73BB6800229A7043
:104DDC00BB681B78022B11D13B68002B0ED0FB68F3
:104DEC0093F814311AB2FB6893F815311BB21B02FD
:104DFC001BB213431BB29AB23B681A80BB681B7878
:104E0C0018462037BD4680BD90B587B002AFBA605A
:104E1C007B600346FB730B46BB73FB7B1846FFF7AB
:104E2C0047F80446FB7B1846FFF72EF80146BA7B81
:104E3C007B680093BB682046FFF7FEFC03461846D0
:104E4C001437BD4690BD80B588B000AFBA607B60AA
:104E5C000346FB730B46BB73B97BF87B7B68BA6864
:104E6C00FFF7D2FF0346FB77FB7F022B02D0FB7FC1
:104E7C00032B20D1FB7B1846FFF71AF8B861FB7B9C
:104E8C001846FFF701F878617869FFF76EFB7B69CC
:104E9C0000221A707B690122DA70BB7BFD2B08D1D2
:104EAC007B690222DA70BB690022DA70B869FFF7FD
:104EBC004AFC002300E0FB7F18462037BD4680BD2E
:104ECC0080B584B000AF786039607B68DB78092BE3
:104EDC0028BF0923FB730922002138680AF01CFF44
:104EEC007B680C33FA7B194638680AF041FF00BF27
:104EFC001037BD4680BD80B58EB002AF3A601A4601
:104F0C000346FB710B46BB7113467B717B6CFB60DC
:104F1C00BB6C3B61FB6C7B613B6DBB617B6DFB6177
:104F2C00BB6D3B62FB6D7B62BB8F3B857B7987F8EE
:104F3C002A3097F8383087F82B3097F8403087F8BC
:104F4C002C303B680C3307F10C01212218460AF077
:104F5C000FFF3B68002242F04C025A7200229A72F8
:104F6C000022DA72BA79F9799823019321230093FC
:104F7C0021233868FFF7DBFA034618463037BD4665
:104F8C0080BD80B584B000AF786039607B68DB7819
:104F9C00212B28BF2123FB732122002138680AF022
:104FAC00BBFE7B680C33FA7B194638680AF0E0FECE
:104FBC0000BF1037BD4680BD80B58AB002AF3A60E5
:104FCC001A460346FB710B46BB7113467B71FB6B98
:104FDC00BB603B6DFB60BB8E3B823B8F7B82B7F82B
:104FEC004030BB82B7F84430FB82B7F84C303B837F
:104FFC007B79BB7697F82830FB7697F82C303B778B
:10500C0097F830307B7797F84830BB773B680C3398
:10501C0007F10801172218460AF0AAFE3B68002285
:10502C0042F065025A7200229A720022DA72BA7940
:10503C00F979C22301931723009317233868FFF7DC
:10504C0076FA034618462037BD4680BD80B586B03B
:10505C0002AF3A601A460346FB710B46BB7113460E
:10506C007B71BB69BB607B793B733B7F7B733B681C
:10507C000C3307F10801062218460AF079FE3B684A
:10508C00002242F066025A7200229A720022DA72F0
:10509C00BA79F9798623019306230093062338689D
:1050AC00FFF745FA034618461037BD4680BD80B55C
:1050BC0084B000AF786039607B68DB78062B28BF42
:1050CC000623FB730622002138680AF025FE7B6854
:1050DC000C33FA7B194638680AF04AFE00BF1037C9
:1050EC00BD4680BD80B586B002AF3A601A46034615
:1050FC00FB710B46BB7113467B717B793B733B7E1B
:10510C007B733B680C33BA891A803B68002242F0EF
:10511C0067025A7200229A720022DA72BA79F9790D
:10512C00512301930223009302233868FFF7FFF900
:10513C00034618461037BD4680BD80B584B000AF1D
:10514C00786039607B68DB78022B28BF0223FB7305
:10515C000222002138680AF0DFFD7B680C33FA7BF1
:10516C00194638680AF004FE00BF1037BD4680BDF2
:10517C0080B58AB002AFBA607B600346FB730B4606
:10518C00BB737B683B61BB6A7B61FB6ABB613B6B3E
:10519C00FB61BB680C3307F11001102218460AF0B2
:1051AC00E7FDBB68002262F02F025A72002242F027
:1051BC0005029A720022DA72BA7BF97BAC23019356
:1051CC00102300931023B868FFF7B1F90346184673
:1051DC002037BD4680BD80B584B000AF78603960A3
:1051EC007B68DB78102B28BF1023FB731022002167
:1051FC0038680AF091FD7B680C33FA7B19463868E5
:10520C000AF0B6FD00BF1037BD4680BD80B582B038
:10521C0000AF7860786800F049F9274B1B78DBB257
:10522C00002B06D0244B00221A707968234800F01A
:10523C0055FA234B1B78DBB2002B06D0204B0022F7
:10524C001A7079681F4800F0C5FA1F4B1B78DBB247
:10525C00002B15D01C4B00221A701C494FF000007B
:10526C0000F0A0F91A4B1B78FF2B09D0184B1B78B8
:10527C00012B05D94FF000014FF0000000F092F91E
:10528C00144B1B78DBB2002B07D0124B00221A7088
:10529C00114B1B68184600F02FF9104B1B78DBB232
:1052AC00002B04D00D4B00221A7000F015FE00BF2D
:1052BC000837BD4680BD00BF480000204C000020D0
:1052CC004900002070010020C402002000008A4226
:1052DC0000000020C502002040000020C602002073
:1052EC0080B485B000AF7860154B1B889BB2002B47
:1052FC0020D0134B1B889BB2013B9AB2104B1A80E7
:10530C000F4B1B889BB2002B14D10E4B1B78FF2B21
:10531C0010D00C4B1B781A466FF00F031341FB6037
:10532C0072B600BF084B1A68FB681340064A13603C
:10533C0062B600BF00BF1437BD4680BC704700BFCB
:10534C0002000020000000204000002080B483B048
:10535C0000AF7860054B1B78002B02D0044B012268
:10536C001A7000BF0C37BD4680BC70473C00002053
:10537C00C402002080B582B000AF7860786801F07C
:10538C004EF80346012B17D10D4B1B889BB2002BFB
:10539C0006D00B4B1B889BB2013B9AB2084B1A8070
:1053AC00074B1B889BB2002B07D1054B32221A806E
:1053BC00044B01221A7000E000BF0837BD4680BDC7
:1053CC0004000020C602002080B582B000AF7860D7
:1053DC00174B1B78012B22D1786801F020F803467B
:1053EC00012B1ED0134B1B78012B1CD1124B1B888D
:1053FC009BB2002B06D0104B1B889BB2013B9AB280
:10540C000D4B1A800C4B1B889BB2002B0CD10A4BFA
:10541C004FF4FA721A80094B01221A7004E000BF93
:10542C0002E000BF00E000BF0837BD4680BD00BFF2
:10543C003C0000200000002006000020C5020020D7
:10544C0080B500AF0121022000F0F6FD00BF80BD49
:10545C0080B582B000AF0346FB71084B1B68002B74
:10546C0007D0064B1B68064A1178FA79184600F0EB
:10547C00B1FD00BF0837BD4680BD00BF4400002011
:10548C000000002080B400AF024B1B781846BD46CC
:10549C0080BC70473C00002080B400AF024B1B78EE
:1054AC001846BD4680BC70470000002080B582B015
:1054BC0000AF78607B689B7B002B15D10D4B1B7864
:1054CC00FF2B13D0786800F0B5FF0346002B05D0F6
:1054DC00084B1B78184600F0C7FD08E0054B1B78FD
:1054EC00184600F0D9FD02E000BF00E000BF08370D
:1054FC00BD4680BD00000020B0B5ADF51C7D0AAFE7
:10550C0007F51273A3F51173186007F51273A3F561
:10551C0011731868FDF7CAFE044602F03FFB034600
:10552C001846FDF7C7FE05461C4B1B781846FDF7C1
:10553C00BDFE034607F590724FF0000109910893E8
:10554C000795174B069305944FF0000304934FF007
:10555C000003039300230293D3230193BE230093F0
:10556C00FF23A9210120FFF7C6FC07F5907207F174
:10557C00080311461846FFF707F80346A7F846320A
:10558C00B7F8462207F108031146184602F03AF91B
:10559C0000BF07F51277BD46B0BD00BF000000206C
:1055AC000064EA4690B5ADF5177D04AF07F51273AC
:1055BC00A3F51173186007F51273A3F51273196034
:1055CC00254B1B781846FDF771FE0446234B1B68D0
:1055DC001846FDF76BFE034607F59072029307F52C
:1055EC001273A3F512731B68019307F51273A3F5DD
:1055FC0011731B6800932346A9210120FFF7B8FD06
:10560C0007F5907207F1080311461846FEF7BCFF28
:10561C000346A7F8463207F51273A3F51273186800
:10562C00FEF762F80346DBB2002B08D1B7F846222E
:10563C0007F108031146184602F0E4F807E0B7F842
:10564C00462207F108031146184602F021F900BF63
:10565C0007F51377BD4690BD0000002040000020E8
:10566C0080B582B000AF0346FB71F979074B084A4D
:10567C000020FFF7E8FB0346002B02D0054B01226C
:10568C001A7000BF0837BD4680BD00BF94020020D1
:10569C004C0000204800002080B582B000AF0346CB
:1056AC00FB71F9790A4B0B4A0120FFF7CCFB03463F
:1056BC00002B09D0074B9B68C3F31723B3F5BA6FC4
:1056CC0002D1054B01221A7000BF0837BD4680BDC0
:1056DC00AC020020700100204900002080B582B08F
:1056EC0000AF786039607B685A7A997A09020A436C
:1056FC00DB7A1B041343B3F5BA6F4DD0B3F5BA6F15
:10570C0062DC002B44D0002B5EDB672B5CDC4C2B6B
:10571C005ADB4C3B1B2B57D801A252F823F000BF8D
:10572C00AF570008D5570008D5570008D5570008C3
:10573C00D5570008D5570008D5570008D55700088D
:10574C00D5570008D5570008D5570008D55700087D
:10575C00D5570008D5570008D5570008D55700086D
:10576C00D5570008D5570008D5570008D55700085D
:10577C00D5570008D5570008D5570008D55700084D
:10578C00B9570008D5570008C3570008CB57000875
:10579C00786800F037F818E03968786800F04EF84F
:1057AC0013E03968786800F0F3F80EE0396878682F
:1057BC0000F0D0F909E0786800F0E4F905E0396808
:1057CC00786800F04DFA00E000BF00BF0837BD4616
:1057DC0080BD00BF80B582B000AF786039607B6857
:1057EC005A7A997A09020A43DB7A1B041343B3F5FC
:1057FC00BA6F03D13968786800F020F800BF083719
:10580C00BD4680BD80B586B000AF786007F10C0353
:10581C0019467868FFF754FB7B7C002B07D0064BAE
:10582C001B78002B03D10121012000F005FC00BFE7
:10583C001837BD4680BD00BF3C00002090B589B034
:10584C0000AF7860396007F1080319467868FFF7F4
:10585C00C2FC3B6949491846FDF714FF0346002B6F
:10586C0014D0474B1B78002B03D0464B1B78FF2BD7
:10587C007DD1BB681846FDF737FF0346DBB2013319
:10588C00DBB21946012000F0D7FB70E03B694FF00A
:10589C0000011846FDF7F6FE0346002B22D03A4BCA
:1058AC004FF4FA621A80374B1B78FF2B61D0354BC3
:1058BC001B781A460F23D340BB6172B600BFBB697D
:1058CC00DA43324B1B6802EA03047B691846FDF786
:1058DC000BFF0246BB69134023432C4A136062B68C
:1058EC0000BF46E0386800F09AFD0346082B0CD147
:1058FC00244B1B7801331846FDF7DCFC02463B6950
:10590C0019461046FFF74EFE34E03B691846FDF78A
:10591C00EBFE0346FB77FC681A4B1B781846FDF729
:10592C00C9FC034619462046FDF7ACFE0346002B86
:10593C0008D1FB684FF000011846FDF7A3FE0346A3
:10594C00002B07D00F4B1B78FA7F1946386800F0F4
:10595C0041FB0FE0FB7F052B02D0FB7F062B09D10F
:10596C00FB683A6911461846FFF71CFE02E000BFBF
:10597C0000E000BF2437BD4690BD00BF00008A4246
:10598C003C0000200000002002000020400000200D
:10599C0090B591B000AF7860396007F108031946F3
:1059AC007868FFF7EEFABB8CD32B40F0C78097F8E2
:1059BC002730A92B40F0C480BB681846FDF794FE35
:1059CC00034687F83B307B691846FDF78DFE03468E
:1059DC007B635D4B1B781A46102313413B63FB68BA
:1059EC00012214464FF000011846FDF74BFE03460A
:1059FC00002B01D100231C46E3B287F82F3004237F
:105A0C00FB632DE01022FB6B42FA03F31A467B6B0F
:105A1C001340002B0CD097F82F30002B08D1F86BCB
:105A2C00FDF748FC0246FB6819461046FFF7BAFD25
:105A3C001022FB6B42FA03F31A467B6B1340002BCC
:105A4C000BD097F82F30002B07D0F86BFDF732FCFA
:105A5C0003463E491846FFF7A5FDFB6B013BFB6374
:105A6C00FB6B012BCEDC7A6B3B6B1340002B19D0FC
:105A7C0097F82F30002B0DD1334B1C78FB68184650
:105A8C00FDF732FE0346DBB21A462146386800F0B9
:105A9C00A1FA56E02C4B1B7805221946386800F009
:105AAC0099FA4EE07B6B002B4BD1386800F0B7FCB9
:105ABC00034687F82E3097F82E30042B19D197F81F
:105ACC002F30002B0DD1204B1C78FB681846FDF7AE
:105ADC000BFE0346DBB21A462146386800F07AFA10
:105AEC002FE0194B1B7806221946386800F072FA21
:105AFC0027E097F82E30072B03D097F82E30082B81
:105B0C001FD197F82F30002B0CD10F4B1B78013382
:105B1C001846FDF7CFFB0246FB6819461046FFF707
:105B2C0041FD0EE0084B1B7801331846FDF7C2FB14
:105B3C00034607491846FFF735FD02E000BF00E0B9
:105B4C0000BF4437BD4690BD000000200000A040BF
:105B5C000000C04080B582B000AF78603960084B5F
:105B6C001B78002B03D10121012000F065FA0121E3
:105B7C00386800F043FC00BF0837BD4680BD00BF4D
:105B8C003C00002080B586B000AF786007F11003B0
:105B9C0019467868FFF78BFA07F10803184600F0EE
:105BAC00B3FA3B7D042B50D801A252F823F000BF6E
:105BBC00D15B0008F75B00081D5C00083F5C000827
:105BCC00455C00083B691846FDF78EFD03469BB209
:105BDC003B8107F10803184600F0A8FA3B897A8943
:105BEC001146184601F066FB30E03B691846FDF79C
:105BFC007BFD03469BB27B8107F10803184600F03E
:105C0C0095FA3B897A891146184601F053FB1DE041
:105C1C003B691846FDF768FD0346DBB23B7307F1A1
:105C2C000803184600F082FA3B7B184601F032F864
:105C3C000CE000F08DFA09E000F04AFA3B897A8911
:105C4C001146184601F036FB00E000BF3B7D3A6977
:105C5C001146184600F005F900BF1837BD4680BD47
:105C6C0080B584B000AF7860396007F10C03194639
:105C7C007868FFF762FA3B7B332B00F2A78001A216
:105C8C0052F823F0615D0008D95D0008695D0008D9
:105C9C00715D0008795D0008815D0008895D000870
:105CAC00D95D0008935D0008A15D0008A95D00089E
:105CBC00D95D0008D95D0008D95D0008D95D0008E0
:105CCC00D95D0008D95D0008D95D0008D95D0008D0
:105CDC00D95D0008D95D0008D95D0008D95D0008C0
:105CEC00D95D0008D95D0008D95D0008D95D0008B0
:105CFC00D95D0008D95D0008D95D0008D95D0008A0
:105D0C00D95D0008D95D0008D95D0008D95D00088F
:105D1C00D95D0008D95D0008D95D0008D95D00087F
:105D2C00D95D0008D95D0008D95D0008D95D00086F
:105D3C00D95D0008D95D0008D95D0008D95D00085F
:105D4C00D95D0008D95D0008D95D0008B15D000877
:105D5C00C55D0008032001F06DFA38E0042001F065
:105D6C0069FA34E0012001F033FA30E0002001F050
:105D7C002FFA2CE0022001F02BFA28E005213868DC
:105D8C0000F03CFB23E0002001F054FA002001F06D
:105D9C001FFA1CE0012000F09DFF18E0002000F02D
:105DAC0099FF14E03B7B184600F02CF8642004F0BB
:105DBC0069F900F0FDF90AE03B7B184600F022F887
:105DCC00642004F05FF900F00DFA00E000BF3B7BAB
:105DDC00184600F017F801224FF48051084805F0DE
:105DEC003CFE4FF4FA7004F04DF900224FF4805150
:105DFC00034805F032FE00BF1037BD4680BD00BF22
:105E0C00000C014080B5ADF5147D02AF024607F5DC
:105E1C001273A3F241231A7007F51273A3F24123F4
:105E2C001B7807F5907201210091A9210120FFF741
:105E3C0059F907F5907207F1080311461846FEF759
:105E4C00A3FB0346A7F84632B7F8462207F108032E
:105E5C001146184601F0D6FC00BF07F51277BD4677
:105E6C0080BD80B5ADF5147D02AF024607F5127307
:105E7C00A3F51273196007F51273A3F241231A707C
:105E8C0007F51273A3F24123197807F590720123D9
:105E9C00019307F51273A3F512731B6800930B465D
:105EAC00A9210120FFF7D2F807F5907207F108033A
:105EBC0011461846FEF768FB0346A7F84632B7F8BA
:105ECC00462207F108031146184601F09BFC00BF5F
:105EDC0007F51277BD4680BD2DE9F043ADF5277D62
:105EEC000CAF01F0CBFA024607F51A73A3F5117348
:105EFC001A6007F51A73A3F51373184600F004F92A
:105F0C0007F51A73A3F5117393F8008007F51A734C
:105F1C00A3F511735C7807F51A73A3F511739D78CB
:105F2C0007F51A73A3F51173DE7801F0B9F903467E
:105F3C007B6101F0ABF903463B6101F0F1FB81465B
:105F4C0007F51A73A3F513731A88FA6007F51A7319
:105F5C00A3F513735988B96007F51A73A3F5137376
:105F6C001879786000F0D4FE0346194607F5A07244
:105F7C0047F232530A93099178680890B9680791EF
:105F8C00F9680691CDF81490396904917B690393F3
:105F9C000296019500944346A9210120FFF70CF8C5
:105FAC0007F5A07207F1280311461846FEF7ECFA24
:105FBC000346A7F86632B7F8662207F128031146A4
:105FCC00184601F01FFC00BF07F51B77BD46BDE866
:105FDC00F083000090B585B000AF78600B46FB7085
:105FEC001346BB70786800F01AFA0346FB73FB7B10
:105FFC00042B05D1BB781946786800F0FFF915E041
:10600C00FB7B072B02D0FB7B082B0FD1094B1B789A
:10601C0001331846FDF74EF90446BB781846FDF7D8
:10602C0045F9034619462046FFF7BCFA00BF143762
:10603C00BD4690BD0000002080B582B000AF034685
:10604C000A46FB711346BB71054AFB791370054A6E
:10605C00BB79137000F024F900BF0837BD4680BD32
:10606C003C0000200000002080B483B000AF034649
:10607C00FB7172B600BFFB791022DA40054B1B682E
:10608C001343044A136062B600BF00BF0C37BD4611
:10609C0080BC70474000002080B483B000AF034642
:1060AC00FB7172B600BFFB796FF0100242FA03F37A
:1060BC001A46064B1B681340044A136062B600BFB5
:1060CC0000BF0C37BD4680BC704700BF40000020AD
:1060DC0080B584B000AF3B46184600F00BFD03467C
:1060EC00002B0BD07B689AB2064B1A80BB689AB215
:1060FC00044B5A80FB68DAB2024B1A7100BF10379E
:10610C00BD4680BD0800002080B483B000AF78602D
:10611C007B68054A1068186092889A8078680C37FA
:10612C00BD4680BC704700BF0800002080B483B01F
:10613C0000AF7860054B7A681068186092889A8076
:10614C0000BF0C37BD4680BC704700BF0800002064
:10615C0080B584B000AF4FF0A5333B60084B1B8873
:10616C007B60074B5B88BB60054B1B79FB603B4638
:10617C00184600F0DBFC00BF1037BD4680BD00BFE9
:10618C000800002080B400AFBFF34F8F00BF064B58
:10619C00DB6803F4E0620449044B1343CB60BFF3A8
:1061AC004F8F00BF00BFFDE700ED00E00400FA05D3
:1061BC0080B500AF084BDB69074A43F0C053D3618D
:1061CC00064B1B68054A43F480731360044B4DF671
:1061DC00AD625A60FFF7D6FF00100240007000401D
:1061EC00006C004080B500AF024B00225A60FFF7F4
:1061FC00C9FF00BF006C004080B582B000AFFFF754
:10620C0041F90346002B3BD103F032FF7860224B5F
:10621C001B78022B25D0022B3BDC002B02D0012B50
:10622C0009D036E000F0C6FD1C4A7B6813601A4B9F
:10623C0001221A702DE0FFF725F90346022B21D01D
:10624C00164B1B687A68D31AD22B1DD900F0C6FDE9
:10625C0001F0C0FA114A7B6813600F4B02221A70CE
:10626C0012E0FFF70FF90346012B0FD00B4B1B6805
:10627C007A68D31A642B0BD9074B00221A7007E0EB
:10628C0000BF06E000BF04E000BF02E000BF00E07A
:10629C0000BF0837BD4680BDB4070020B8070020FA
:1062AC0080B582B000AFFFF7EDF80346FB71FB79C8
:1062BC00012B02D0022B05D007E000F08FFD01F07E
:1062CC0089FA02E000F076FD00BF00BF0837BD463A
:1062DC0080BD80B500AFFFF7D5F80346184680BDEA
:1062EC0080B483B000AF78607B6800221A707B6842
:1062FC0000225A707B6800229A707B680022DA7048
:10630C007B6800225A607B6800229A607B680022BE
:10631C001A737B6800225A737B6800229A7300BF41
:10632C000C37BD4680BC704780B584B000AF786038
:10633C007B689B78002B1DD07B6800229A707B6851
:10634C005B78FB73FB7B052B02D0FB7B062B09D107
:10635C007B681B78042B05D1FB7B1946786800F011
:10636C00B8FB07E0FB7B012B04D1FB7B194678685B
:10637C0000F0AFFB7B681B78082B39D801A252F8D0
:10638C0023F000BFB5630008BD630008C5630008B7
:10639C00CD630008D5630008DD630008E5630008E1
:1063AC00ED630008F5630008786800F05BF820E006
:1063BC00786800F07DF81CE0786800F0A7F818E029
:1063CC00786800F0D1F814E0786800F06FF910E00C
:1063DC00786800F096F90CE0786800F09EF908E017
:1063EC00786800F0A6F904E0786800F0F3F900E0B2
:1063FC0000BF00BF1037BD4680BD00BF80B483B066
:10640C0000AF78600B46FB707B68FA785A707B683B
:10641C0001229A7000BF0C37BD4680BC704780B417
:10642C0083B000AF78607B681B7818460C37BD468C
:10643C0080BC704780B483B000AF78607B681B78F9
:10644C00042B07D07B681B78052B03D07B681B784B
:10645C00062B01D1012300E0002318460C37BD4662
:10646C0080BC704780B584B000AF7860FFF731FF17
:10647C000346002B18D001F001F80346FB603B7B70
:10648C00002B04D00221786800F023FB0DE07B7B0D
:10649C00002B04D00421786800F01BFB05E00321DD
:1064AC00786800F016FB00E000BF1037BD4680BDD9
:1064BC0080B584B000AF7860134B1B78002B08D1EB
:1064CC00042000F0B7FE002000F082FE0E4B0122EB
:1064DC001A7000F0D3FF0346FB60BB7B002B04D08B
:1064EC0000F0D4FE0346012B07D0FB7B002B07D01A
:1064FC0000F0CCFE0346022B02D1002000F068FE17
:10650C0000BF1037BD4680BDBC07002080B584B0ED
:10651C0000AF786000F0B2FF0346FB60BB7B002B42
:10652C000CBF01230023DBB2184600F051FE3B7B6D
:10653C00002B07D0032000F07DFE03F099FD0246EE
:10654C007B685A6003F094FD02467B685B68D31A43
:10655C0041F27072934203D90321786800F0B9FAC2
:10656C0000BF1037BD4680BD80B584B000AF7860E9
:10657C0000F084FF0346FB607B68DB78072B00F29E
:10658C00888001A252F823F0B5650008CD6500089B
:10659C009F6600089F6600089F6600089F660008BB
:1065AC00F76500087B660008042000F043FE7B685A
:1065BC000122DA7003F05CFD02467B685A6071E0E0
:1065CC0003F056FD02467B685B68D31AB3F5C87FAF
:1065DC0063D3022000F0FCFD03F04AFD02467B6809
:1065EC005A607B680622DA7057E03B7B002B04D0A4
:1065FC000221786800F06DFA54E07B7B002B07D009
:10660C00002000F0E5FD0421786800F062FA49E012
:10661C00FB7B002B07D0002000F0DAFD0721786807
:10662C0000F057FA3EE003F023FD02467B685B68FE
:10663C00D31AB3F57A5F32D9002000F0C9FD7B681C
:10664C001B7B002B07D07B6801229A73082178688A
:10665C0000F03FFA23E07B6801221A737B68072263
:10666C00DA7003F005FD02467B685A6017E003F010
:10667C00FFFC02467B685B68D31AB3F5FA7F10D334
:10668C007B680022DA7003F0F3FC02467B685A60E8
:10669C0007E07B680022DA7004E000BF02E000BF74
:1066AC0000E000BF00BF1037BD4680BD80B584B090
:1066BC0000AF786000F0E2FE0346FB603B7B002BF2
:1066CC0004D00221786800F004FA17E000F0DEFD37
:1066DC000346002B07D0002000F07AFD03F0C8FC25
:1066EC0002467B685A6003F0C3FC02467B685B6819
:1066FC00D31AC72B02D9042000F09CFD1037BD46DD
:10670C0080BD80B582B000AF78600021786800F061
:10671C00BBF800BF0837BD4680BD80B582B000AF66
:10672C0078600121786800F0AFF800BF0837BD46EB
:10673C0080BD80B584B000AF786000F09FFE03464A
:10674C00FB603B7B002B04D00221786800F0C1F980
:10675C003DE0032000F06EFDFB7B002B0BD07B6833
:10676C00DB78002B07D103F083FC02467B685A6070
:10677C007B680122DA707B68DB78012B0ED103F089
:10678C0077FC02467B685B68D31AB3F5FA7F05D9B0
:10679C00012000F01DFD7B680222DA70BB7B002B10
:1067AC0008D0FB7B002B05D17B6801225A73022099
:1067BC0000F00EFDBB7B002B02D0FB7B002B06D028
:1067CC007B685B7B002B02D0002000F001FD1037B2
:1067DC00BD4680BD80B584B000AF7860FEF75CFE2E
:1067EC000346FB7303F044FC0246244B1B68D31A8C
:1067FC00B3F5967F2AD303F03BFC03461F4A136084
:10680C004FF400511E4805F040F91E4B1B78002B2D
:10681C000ED0FB7B1846FFF727FC1A4B1B78002B7E
:10682C000CBF01230023DBB21A46164B1A700DE085
:10683C00FB7B1846FFF730FC124B1B78002B0CBF70
:10684C0001230023DBB21A460E4B1A7000F016FE21
:10685C000346BB603B7A002B0CD07B6800229A73FA
:10686C000221786800F035F900224FF440610448A9
:10687C0005F0F3F800BF1037BD4680BDC0070020FF
:10688C00000C0140C407002080B584B000AF7860D4
:10689C000B46FB7000F0F2FD0346FB607B68DB7877
:1068AC00023B052B00F2E98001A252F823F000BF55
:1068BC00D5680008ED6800081D69000849690008E2
:1068CC00796900086D6A0008012000F081FC03F072
:1068DC00CFFB02467B685A607B680322DA70D9E0F2
:1068EC0003F0C6FB02467B685B68D31AC82B03D83F
:1068FC00BB7B002B00F0C580002000F069FC03F08E
:10690C00B7FB02467B685A607B680422DA70B8E0F9
:10691C0003F0AEFB02467B685B68D31AB3F5967F37
:10692C0040F2B180032000F085FC03F0A1FB02468D
:10693C007B685A607B680522DA70A4E003F098FB50
:10694C0002467B685B68D31AC82B40F29E800220FB
:10695C0000F03EFC03F08CFB02467B689A604F4BC8
:10696C0000221A707B680622DA708EE0FB7B002B0B
:10697C000DD0002000F02CFC7B6800225A73474B92
:10698C0000221A700721786800F0A3F882E07B7B64
:10699C00002B0ED0414B1B78002B0AD13F4B012210
:1069AC001A70FB78002B04D003F062FB02467B6864
:1069BC009A607B7B002B0BD1384B1B78012B07D1BA
:1069CC00364B02221A7003F053FB02467B689A6026
:1069DC007B7B002B1DD0314B1B78022B19D1FB7804
:1069EC00002B08D02D4B00221A7003F041FB0246FD
:1069FC007B689A6009E0294B00221A70002000F095
:106A0C00E7FB0421786800F064F87B6800221A73B5
:106A1C0040E003F02DFB02467B689B68D31AB3F56C
:106A2C00FA5F34D91D4B00221A70002000F0D0FB05
:106A3C007B681B7B002B07D07B6801229A73082193
:106A4C00786800F046F822E07B6801221A737B68B4
:106A5C000722DA7003F00CFB02467B685A6016E0E2
:106A6C0003F006FB02467B685B68D31AB3F5FA7F2A
:106A7C000FD97B680222DA700BE07B680222DA7095
:106A8C0008E000BF06E000BF04E000BF02E000BF6A
:106A9C0000E000BF00BF1037BD4680BDC507002019
:106AAC0080B582B000AF78607B680022DA7003F0AA
:106ABC00DFFA02467B685A607B6800229A607B682A
:106ACC0000221A737B6800225A7300BF0837BD4638
:106ADC0080BD80B582B000AF78600B46FB707B68E0
:106AEC00FA781A707868FFF7DBFF00BF0837BD46ED
:106AFC0080BD000090B484B000AF78600A4BFB609E
:106B0C00FB681B68B3F1A53F01D0002306E07A684F
:106B1C00FB6814460FCB84E80F000123184610378E
:106B2C00BD4690BC704700BF00240108B0B58AB0C8
:106B3C0000AF786004F0AAFB07F10C0300221A6086
:106B4C005A609A60DA601A4B7B610123BB610023A7
:106B5C00BB6007F1080207F10C031146184604F05C
:106B6C007DFC7B683B620423FB6100237B6215E0A8
:106B7C007B6A03F1007303F5924399007B6A9B00D7
:106B8C003A6A13441B6800221C46154622462B46C3
:106B9C00022004F00BFB7B6A01337B627A6AFB698F
:106BAC009A42E5D304F098FB00BF2837BD46B0BD30
:106BBC000024010880B582B000AF3B461846FFF7B1
:106BCC00A3FA3A79084B1A70084B00221A80064B2C
:106BDC001B78184600F0BCF8002000F0A3F800BFAA
:106BEC000837BD4680BD00BFC6070020C80700207F
:106BFC0080B584B000AF7860396000F0BBFD03460F
:106C0C00002B3BD03868FFF70AFC0346FB721D498A
:106C1C007868FCF75FFD0346002B02D1FB7A042B4E
:106C2C0002D00023FB6023E017497868FCF748FD8D
:106C3C000346002B03D04FF4FA63FB6018E01349B2
:106C4C007868FCF73DFD0346002B03D04FF47A63C4
:106C5C00FB600DE00E497868FCF732FD0346002B13
:106C6C0003D042F21073FB6002E044F26823FB6035
:106C7C00F86800F057F800F087FD00E000BF10370F
:106C8C00BD4680BD0000A0410000704100002041C5
:106C9C000000A04080B582B000AF0346FB710B4AE8
:106CAC00FB791370094B1B78184600F051F8084B10
:106CBC001B88002B02D044F61F6300E0002318460B
:106CCC0000F030F800BF0837BD4680BDC607002075
:106CDC00C807002080B582B000AF0346FB71FB797A
:106CEC00002B02D04FF4807200E00022074B1A8078
:106CFC00FB79002B02D044F61F6300E000231846FA
:106D0C0000F010F800BF0837BD4680BDC807002052
:106D1C0080B400AF024B1B881846BD4680BC704740
:106D2C00C807002080B582B000AF78600421074806
:106D3C0006F096FA054B1B687A689A63042103489F
:106D4C0006F0ECF900BF0837BD4680BD540B00209F
:106D5C0080B58AB000AF0346FB710421144806F0DD
:106D6C007FFA07F10C0300221A605A609A60DA600D
:106D7C001A615A619A616023FB6000233B61FB79C5
:106D8C00002B01D0022300E000237B610023FB6178
:106D9C0007F10C0304221946054806F0A3FE042152
:106DAC00034806F0BBF900BF2837BD4680BD00BFC5
:106DBC00540B002080B500AF252003F0D8FE054809
:106DCC0007F0E4FF044B00221A7000F03BF900BFFF
:106DDC0080BD00BF700D0020CA07002080B500AF39
:106DEC000C4B93F83D30DBB2012B11D1094806F066
:106DFC0001F9084B1B686FF001021A611E2003F0A9
:106E0C00B6FE044806F046F8024802F0EDFE00E03B
:106E1C0000BF80BDBC0C002090B587B000AF78607F
:106E2C007B681B681E4A934234D17B681B7F012B05
:106E3C0032D10021786807F021F878610421786854
:106E4C0007F01CF838617B685B6801331846FCF767
:106E5C002DFA034613491846FCF780FA03461C46E4
:106E6C00114B1B681846FCF721FA034619462046BD
:106E7C00FCF728FB0346FB603869FCF717FA03465E
:106E8C001946F868FCF76AFA0346BB60B86800F06C
:106E9C000DF802E000BF00E000BF1C37BD4690BDFE
:106EAC0000080040002474491000002080B584B014
:106EBC0000AF7860FEF7E6FA0346FB72FB7A002B14
:106ECC0021D145497868FCF705FC0346002B15D009
:106EDC0042497868FCF7E0FB0346002B0ED0404B90
:106EEC001B780133DAB23E4B1A703D4B1B78092BE1
:106EFC0008D9FEF7A5FAFFF7D3F903E0384B0022C7
:106F0C001A7065E064E0374B1B6819467868FCF72B
:106F1C001BF90346FB604FF00001F868FCF7BCFB63
:106F2C000346002B03D0FB6883F00043FB602E4923
:106F3C00F868FCF7B1FB0346002B0AD02B4B1B78EF
:106F4C000133DAB2294B1A70284B1B78042B07D863
:106F5C003EE0244A7B681360244B00221A7037E011
:106F6C00224B00221A7040F24C424FF46171786847
:106F7C0000F040F80346002B03D01D4B01221A7081
:106F8C0026E01B4B1B78002B21D04FF4C8624FF42A
:106F9C00AF61786800F02EF80346002B06D0144B36
:106FAC0000221A700520FEF753FA11E040F6340265
:106FBC0040F26C71786800F01DF80346002B07D086
:106FCC000B4B00221A700620FEF742FA00E000BFBD
:106FDC001037BD4680BD00BF0080474400A0094566
:106FEC00CB070020CC07002000002041D007002058
:106FFC00CA07002080B582B000AF78600B467B805A
:10700C0013463B807B881846FCF750F9034619461B
:10701C007868FCF75FFB0346002B0DD03B881846C5
:10702C00FCF744F9034619467868FCF735FB034630
:10703C00002B01D0012300E0002318460837BD4681
:10704C0080BD000080B590B000AF07F13003002286
:10705C001A605A609A60DA6007F11C0300221A6009
:10706C005A609A60DA601A6107F10C0300221A6008
:10707C005A609A60DA603B1D00221A605A60424BDB
:10708C00424A1A60404B3F225A603F4B00229A60A2
:10709C003D4B4FF6FF72DA603B4B00221A613A4BC4
:1070AC0000229A61384805F099FE0346002B01D066
:1070BC0001F07DF94FF480533B6307F1300319461F
:1070CC00314806F0D1FD0346002B01D001F06FF9D9
:1070DC002D4806F029F90346002B01D001F067F981
:1070EC000423FB6150233B6200237B620023BB62C1
:1070FC000023FB6207F11C031946234806F07BFEB4
:10710C000346002B01D001F052F90023FB60012350
:10711C003B6100237B610023BB6107F10C03002260
:10712C001946194806F042FC0346002B01D001F029
:10713C003EF90223FB6002233B6107F10C0304229E
:10714C001946114806F032FC0346002B01D001F021
:10715C002EF900237B600023BB603B1D19460A48B7
:10716C0007F0FAFC0346002B01D001F020F90021B6
:10717C00054806F0FFF90421034806F03BF900BF6F
:10718C004037BD4680BD00BFBC0C0020000800404D
:10719C0080B582B000AF3B461846FEF7B5FF3A8883
:1071AC00084B1A807A88084B1A800021074805F092
:1071BC00B5FF0821054805F0B1FF00BF0837BD46F3
:1071CC0080BD00BFD4070020D6070020540B002040
:1071DC0080B483B000AF0346FB71144B1B78FA7973
:1071EC009A421DD0FB79012B05D1114B1B684FF432
:1071FC007A72DA6310E0FB79022B05D10C4B1B6819
:10720C004FF4FA62DA6307E0FB79002B04D1084BE8
:10721C001B6840F2DC52DA63044AFB79137000E01D
:10722C0000BF0C37BD4680BC704700BFD1070020A3
:10723C00540B002080B483B000AF0346FB710F4B9E
:10724C001B78FA799A4214D0FB79032B05D10C4B9D
:10725C001A880C4B1B685A6307E0FB79042B04D18A
:10726C00094B1A88074B1B685A63044AFB79137045
:10727C0000E000BF0C37BD4680BC7047D207002031
:10728C00D4070020540B0020D607002080B400AF98
:10729C00024B1B781846BD4680BC7047D1070020B6
:1072AC0080B400AF024B1B781846BD4680BC7047BB
:1072BC00D207002080B483B000AF03460A46FB809F
:1072CC001346BB800E4AFB8813800E4ABB88138082
:1072DC000D4B1B78032B05D1094B1A880B4B1B68E4
:1072EC005A6308E0084B1B78042B04D1054B1A8811
:1072FC00064B1B685A6300BF0C37BD4680BC7047F9
:10730C00D4070020D6070020D2070020540B002001
:10731C0098B500AF524B1B785BB25B005CB24FF47C
:10732C008041504804F082FB0346002B0CBF012324
:10733C000023DBB25BB223435BB2DAB2484B1A7068
:10734C00474B1B7803F00F030F2B03D1464B012245
:10735C001A7008E0424B1B7803F00F03002B02D18C
:10736C00414B00221A70414B1B785BB25B005CB244
:10737C004FF400413B4804F059FB0346002B0CBF73
:10738C0001230023DBB25BB223435BB2DAB2374B8F
:10739C001A70364B1B7803F00F030F2B03D1324BB3
:1073AC0001225A7008E0314B1B7803F00F03002BBD
:1073BC0002D12D4B00225A702D4B1B785BB25B0017
:1073CC005CB201212B4804F031FB0346002B0CBFAF
:1073DC0001230023DBB25BB223435BB2DAB2244B52
:1073EC001A70234B1B7803F00F030F2B03D11E4B8A
:1073FC000122DA7008E01E4B1B7803F00F03002B00
:10740C0002D1194B0022DA701B4B1B785BB25B006C
:10741C005CB24FF40051134804F008FB0346002BF8
:10742C000CBF01230023DBB25BB223435BB2DAB2A5
:10743C00114B1A70104B1B7803F00F030F2B03D159
:10744C00094B01229A7008E00B4B1B7803F00F03D9
:10745C00002B02D1044B00229A7000BF98BD00BFD4
:10746C00D807002000100140DC070020D9070020BD
:10747C00DA07002000140140DB07002080B483B041
:10748C0000AF0A4B1B687B6000233A7962F3070359
:10749C007A7962F30F23BA7962F31743FA7962F3BC
:1074AC001F6318460C37BD4680BC7047DC070020B4
:1074BC00B0B588B000AF194B07F108041D460FCDCD
:1074CC000FC495E8030084E8030007F1080319468C
:1074DC00134800F0BBFC124800F0D8FC00BF104869
:1074EC0000F0C7FC0346002BF9D10E4A3B1D126875
:1074FC00114619800233120C1A703B1D19460848AC
:10750C0000F0E7FC00BF064800F0B3FC0346002B7C
:10751C00F9D100BF00BF2037BD46B0BDB0FD00089B
:10752C00E0070020C8FD000880B582B000AF1B4802
:10753C0000F0B9FC00BF194800F09BFC0346002B7F
:10754C00F9D100BF154800F030FD034683F001036C
:10755C00DBB2002BF6D10021104800F03CFD00BF3F
:10756C000E4800F086FC0346002BF9D10B4800F0C6
:10757C0047FD0346FB80B7F90630094A934208DB06
:10758C00B7F9063043F2D302934202DC054AFB887A
:10759C00138000BF0837BD4680BD00BFE007002048
:1075AC0085EAFFFF0E00002080B582B000AF02F02C
:1075BC005FFD78603C4B1B78002B0DD13B4B1B685F
:1075CC007A68D31A41F28732934205D9364B01229D
:1075DC001A70364A7B681360334B1B78052B5ED8C8
:1075EC0001A252F823F000BFA17600080D76000826
:1075FC002576000843760008537600089976000833
:10760C002B4800F050FC02F033FD0346294A13606E
:10761C00254B02221A7042E002F02AFD0246254B4D
:10762C001B68D31A224AB2F87820934234D31E4BEB
:10763C0003221A7030E000211D4800F0CCFC1A4BDC
:10764C0004221A702BE01A4800F013FC034683F056
:10765C000103DBB2002B21D0154800F0D1FC03460E
:10766C007B80B7F90230144A934208DBB7F9023039
:10767C0043F2D302934202DC104A7B8813800A4BFC
:10768C0000221A700E4B01221A7007E0064B0022E2
:10769C001A7004E000BF02E000BF00E000BF00BFB2
:1076AC000837BD4680BD00BF5C0800206408002080
:1076BC00E00700206008002085EAFFFF0E00002094
:1076CC006808002080B400AF00BFBD4680BC704786
:1076DC0080B582B000AF7860034800F0AFFE00BF09
:1076EC000837BD4680BD00BFE007002080B400AF66
:1076FC00094BB3F90030094A934208DB064BB3F946
:10770C00003043F2D302934201DC012300E000235A
:10771C001846BD4680BC70470E00002085EAFFFF6E
:10772C0080B500AFFFF7E2FF0346002B02D14FF00C
:10773C0000030BE0064BB3F900301846FBF7BAFD1B
:10774C00034604491846FBF709FE0346184680BD5C
:10775C000E0000200AD7233C80B582B000AF7860C1
:10776C00034800F06BFE00BF0837BD4680BD00BF6C
:10777C00E007002080B400AF024B1B781846BD46D2
:10778C0080BC70476808002080B400AF034B002217
:10779C001A7000BFBD4680BC704700BF680800204F
:1077AC0080B500AF02F082FA074800F04DF9074BA4
:1077BC0000221A7001220649034807F0D9FB00F099
:1077CC0009F800BF80BD00BFB80D00206C08002078
:1077DC006A08002080B500AF02F03EFA064800F0BF
:1077EC0033F9064B00221A7001220549024807F0B2
:1077FC00BFFB00BF80BD00BF700D00206B080020D8
:10780C006908002080B586B000AF78600B467B809D
:10781C007B88002B2FD07B88B3F58C7F2BD8EFF394
:10782C001083FB60FB687B6172B600BF154B1B7845
:10783C00FB74FB7C002B02D1124B01221A707B696A
:10784C00BB60BB6883F3108800BFFB7C002B14D19A
:10785C007B881A4679680C4808F08AFA7B881A46A5
:10786C0009490A4807F04FFB0346002B06D0054B8D
:10787C0000221A7002E000BF00E000BF1837BD46BE
:10788C0080BD00BF6B08002070080020700D002028
:10789C0080B586B000AF78600B467B807B88002B70
:1078AC0035D07B88B3F58C7F31D8EFF31083FB6038
:1078BC00FB687B6172B600BF184B1B78FB74FB7CBA
:1078CC00002B02D1154B01221A707B69BB60BB687F
:1078DC0083F3108800BFFB7C002B1AD17B881A46DF
:1078EC0079680F4808F044FA7B881A460C490D4811
:1078FC0007F064FB0346002B0CD07A880A23084956
:10790C00084807F075FA054B00221A7002E000BF18
:10791C0000E000BF1837BD4680BD00BF6C080020DA
:10792C0088090020B80D002080B584B000AF7860C5
:10793C007B681B68124A93420CD1124B1B78BB73A9
:10794C0001221049104807F013FBBB7B1846FDF7CA
:10795C0087FE10E07B681B680C4A93420BD10C4BE2
:10796C001B78FB7301220A490A4807F001FBFB7BD9
:10797C001846FDF791FE00BF1037BD4680BD00BF15
:10798C000038014069080020700D002000440040C0
:10799C006A080020B80D002080B483B000AF786076
:1079AC007B681B68094A934203D1094B00221A7069
:1079BC0007E07B681B68074A934202D1064B002202
:1079CC001A7000BF0C37BD4680BC704700380140B0
:1079DC006B080020004400406C08002080B582B089
:1079EC0000AF7860786800F02FF87B681B680E4A4F
:1079FC00934208D10D4B00221A7001220C490D48FC
:107A0C0007F0B6FA0CE07B681B680B4A934207D16F
:107A1C000A4B00221A70012209490A4807F0A8FAF9
:107A2C0000BF0837BD4680BD003801406B08002000
:107A3C0069080020700D0020004400406C080020F4
:107A4C006A080020B80D002080B485B000AF7860C3
:107A5C007B681B681B68FB607B681B685B68FB6052
:107A6C00FB6800BF1437BD4680BC704780B400AFC4
:107A7C00034B4FF000021A6000BFBD4680BC70473C
:107A8C00A00A002080B582B000AF02F0F1FA786055
:107A9C002EE000F007F903461846FBF707FC0346F7
:107AAC0036491846FBF70EFD034635491846FBF7D9
:107ABC0055FC034633491846FBF750FC03463B6024
:107ACC00314B1B6831491846FBF748FC03463968B3
:107ADC001846FBF73BFB03464FF081411846FBF77A
:107AEC00F1FC03461A46284B1A600A2002F0CAFA27
:107AFC0002F0BEFA02467B68D31AB3F5FA7FC8D3FC
:107B0C00214B1B6821491846FBF7E4FD0346002B6B
:107B1C0017D01D4B1B681E491846FBF7C7FD0346C3
:107B2C00002B0ED0002210211A4803F096FF1E20C5
:107B3C0002F0A8FA01224FF40041174803F08DFF20
:107B4C0017E0114B1B6812491846FBF7C3FD03469F
:107B5C00002B00D10DE0012210210E4803F07DFF17
:107B6C001E2002F08FFA00224FF400410A4803F065
:107B7C0074FF00BF0837BD4680BD00BF00F07F45D5
:107B8C00CDCC044133335340A00A002000004040C8
:107B9C003333F34000080140000C014080B400AFC7
:107BAC00024B1B681846BD4680BC7047A00A0020DB
:107BBC0080B584B000AF3B1D00221A605A609A60F9
:107BCC00184B194A1A60174B00229A60154B002269
:107BDC001A73144B00221A75124B4FF46022DA619F
:107BEC00104B00225A600F4B01221A610D4802F013
:107BFC006DFA0346002B01D000F0D9FB00237B600B
:107C0C000123BB600023FB603B1D1946054802F0B5
:107C1C00F5FC0346002B01D000F0C9FB00BF103768
:107C2C00BD4680BDA40A00200024014080B588B068
:107C3C0000AF786007F1100300221A605A609A6056
:107C4C00DA607B681B68144A934221D1134B9B6901
:107C5C00124A43F400739361104B9B6903F4007355
:107C6C00FB60FB680D4B9B690C4A43F0040393616A
:107C7C000A4B9B6903F00403BB60BB6801233B61A7
:107C8C0003237B6107F110031946054803F08EFCB2
:107C9C0000BF2037BD4680BD0024014000100240CB
:107CAC000008014080B500AF064802F0E7FA4FF03B
:107CBC00FF31044802F090FB024802F093FC0346AB
:107CCC00184680BDA40A002080B500AFFEF700FA6C
:107CDC00FFF75EFAFFF764FDFFF7EAFBFFF724FC02
:107CEC00FFF7C4FEFFF7CEFEFEF764FF0248FEF777
:107CFC00F7FA00BF80BD00BFD40A002080B500AFEA
:107D0C00FEF77AFA0A48FDF781FAFFF74DFCFFF708
:107D1C00EDFC0346002B06D0FFF702FD0346044999
:107D2C001846FEF765FF0248FEF7FEFA00BF80BD5D
:107D3C00D40A002080B500AF124B1B8801339AB2D5
:107D4C00104B1A80FFF7E4FAFFF7BCFC0E48FDF766
:107D5C00C7FA0C4B1B88B3F5FA7F0AD3094B0022E8
:107D6C001A804FF48041094803F08FFE0648FDF756
:107D7C00EDFA0548FDF7FEFA0348FDF725FB00BFB9
:107D8C0080BD00BFE40A0020D40A0020000C014092
:107D9C0080B582B000AF78607868FFF7C5FD00BF92
:107DAC000837BD4680BD80B582B000AF786078687A
:107DBC00FFF7F2FD00BF0837BD4680BD80B582B02D
:107DCC0000AF78607868FFF709FE00BF0837BD4642
:107DDC0080BD80B582B000AF78607868FFF71CF882
:107DEC0000BF0837BD4680BD80B582B000AF78605B
:107DFC007868FFF76DFC00BF0837BD4680BD0000FA
:107E0C0080B582B000AF104B5B690F4A43F00103A1
:107E1C0053610D4B5B6903F001037B607B680022AF
:107E2C0000210E2002F079FE0E2002F092FE0022BC
:107E3C000021112002F071FE112002F08AFE00BF19
:107E4C000837BD4680BD00BF0010024080B582B02F
:107E5C0000AF786039607B684FF44872A3F87820E3
:107E6C007B683968184600F0A8FA00BF0837BD4691
:107E7C0080BD80B582B000AF78607B68184601F099
:107E8C00E8F8034618460837BD4680BD80B582B079
:107E9C0000AF78607B68184601F0ECF80346184692
:107EAC000837BD4680BD80B584B002AF786002F063
:107EBC00DFF802467B685A6778680023009300233A
:107ECC000022442101F00BF9034618460837BD4641
:107EDC0080BD80B586B002AF786039607F23FB73BC
:107EEC003B689B780B2B14D00B2B1ADC092B02D084
:107EFC000A2B07D015E01F23FB737B686422A3F8C1
:107F0C00782016E03F23FB737B68C822A3F8782007
:107F1C000FE05F23FB737B684FF4C872A3F87820E3
:107F2C0007E07F23FB737B684FF44872A3F878203B
:107F3C0000BF3B6893F901307D2B02DD3B687D224D
:107F4C005A703B6893F9013013F1370F02DA3B6832
:107F5C00C9225A703B6893F900307D2B02DD3B68D7
:107F6C007D221A703B6893F9003013F1370F02DA57
:107F7C003B68C9221A703B6893F90130DBB23B7342
:107F8C003B6893F90030DBB27B73FB7BBB73786887
:107F9C0007F10C020023009303234E2101F09FF8FC
:107FAC00034618461037BD4680BD80B582B000AF81
:107FBC00786002F05DF802467B685B6FD31A7A68D2
:107FCC00B2F8782093422CBF01230023DBB2184671
:107FDC000837BD4680BD80B584B002AF78600B46D3
:107FEC00FB707868F9780923019300230093002330
:107FFC00BE2201F0DEF8034618460837BD4680BDA8
:10800C0080B588B000AF78604B4BBB610123FB752A
:10801C007B6807F10C010922184601F05EF9034652
:10802C00092B7FD107F10C030821184600F0DAFF69
:10803C0003461A463B7D9A4276D13B7B1AB27B7B38
:10804C001BB21B021BB213431BB2FB83B7F91E30CE
:10805C00002B04DAFB8B5B42FB83FF23FB753B7C21
:10806C005B11DBB203F00303DBB20933BB75BB7DE1
:10807C00093B032B4CD801A252F823F0998000083D
:10808C00B3800008D1800008FB800008FB8BDB0864
:10809C009BB21A46322302FB03F3BB617B680922B5
:1080AC0083F87A2037E0FB8B9B089BB21A46134669
:1080BC009B0013449A001344BB617B680A2283F82B
:1080CC007A2028E0FB8B5B089BB21A4613465B01B7
:1080DC009B1A9B001344194A82FB03129210DB1764
:1080EC00D31ABB617B680B2283F87A2013E0FB8BDD
:1080FC0040F2712202FB03F3114A82FB031252116C
:10810C00DB17D31ABB617B680C2283F87A2002E060
:10811C000123FB7500BF97F91720BB6902FB03F322
:10812C00BB6102E000BF00E000BFBB691BB2184698
:10813C002037BD4680BD00BFF0D8FFFF676666667E
:10814C001F85EB5180B58AB000AF07F114030022F4
:10815C001A605A609A60DA60504B9B694F4A43F040
:10816C00100393614D4B9B6903F010033B613B691A
:10817C004A4B9B69494A43F020039361474B9B69E7
:10818C0003F02003FB60FB68444B9B69434A43F0BC
:10819C0004039361414B9B6903F00403BB60BB6810
:1081AC003E4B9B693D4A43F0080393613B4B9B69F3
:1081BC0003F008037B607B6800221021384803F031
:1081CC004CFC00224FF47441364803F046FC4FF44B
:1081DC0060437B610023BB610123FB6107F1140346
:1081EC001946314803F0E2F901237B610023BB619E
:1081FC000123FB6107F1140319462C4803F0D6F94F
:10820C0010237B610123BB610023FB6102233B62D2
:10821C0007F114031946224803F0C8F94FF48063A0
:10822C007B611123BB610023FB6102233B6207F1DD
:10823C00140319461B4803F0B9F94FF4E0437B6172
:10824C000123BB610023FB6102233B6207F1140392
:10825C001946144803F0AAF94FF400437B6101233B
:10826C00BB610223FB6102233B6207F11403194635
:10827C000C4803F09BF90E4B5B687B627B6A43F006
:10828C00E0637B627B6A43F400437B62084A7B6A4F
:10829C00536000BF2837BD4680BD00BF00100240B0
:1082AC0000080140000C0140001001400014014086
:1082BC000000014080B500AF62B600BF01F080FE47
:1082CC0000F019F8FFF73EFFFFF79AFD01F032F9C5
:1082DC0001F09AFA01F0EAFC01F0BEFC01F0A2FBFD
:1082EC0001F054FBFFF764FC01F0B6F8FFF7ECFC6F
:1082FC00FFF704FDFCE780B594B000AF07F128034D
:10830C0028220021184607F007FD07F1140300226C
:10831C001A605A609A60DA601A613B1D00221A607A
:10832C005A609A60DA600A23BB620123BB63102394
:10833C00FB6301233B6402237B640023BB644FF487
:10834C006013FB6407F12803184603F0C3FB0346D4
:10835C00002B01D000F02BF80F237B610223BB61B3
:10836C000023FB614FF480633B6200237B6207F1C7
:10837C0014030221184603F02FFE0346002B01D0F4
:10838C0000F015F803237B604FF40073BB604FF4CF
:10839C004043FB603B1D184603F0ACFF0346002B2B
:1083AC0001D000F004F800BF5037BD4680BD80B44A
:1083BC0000AF72B600BF00BFFDE780B584B000AF60
:1083CC00786039603B689B8A1A467B68DA603B6848
:1083DC009B8A1A047B681A613B689B8A1A467B68E5
:1083EC005A613B681A697B689A603B681A687B68BB
:1083FC001A603B689A687B685A603B681A7B7B689A
:10840C0083F83C207B6818683B685B681A460E2131
:10841C0005F0C0FD7B68FB600123FB72FB7A002B2F
:10842C0002D0FB68DB6801E0FB681B69FA689268A4
:10843C00136100BF00BF1037BD4680BD80B5AAB028
:10844C0000AF78607B6893F83A30012B04D0022B94
:10845C0000F0618200F0BDBD7B68C7F8A430D7F88E
:10846C00A43093F83230072B00F2508201A252F85C
:10847C0023F000BFA1840008FF8400085985000880
:10848C00C38500087186000895870008E7870008F7
:10849C0039880008D7F8A4301B681B6840F2F31227
:1084AC00DA62D7F8A4301B6840F2F312DA60D7F81E
:1084BC00A430C7F8A030002387F89F3097F89F307E
:1084CC00002B03D0D7F8A030DB6802E0D7F8A0303F
:1084DC001B69D7F8A0209268136100BFD7F8A430AD
:1084EC0093F832300133DAB2D7F8A43083F8322063
:1084FC000FE2D7F8A4301B681B686322DA62D7F846
:10850C00A4301B686322DA60D7F8A430C7F898301F
:10851C00012387F8973097F89730002B03D0D7F8C2
:10852C009830DB6802E0D7F898301B69D7F89820B0
:10853C009268136100BFD7F8A43093F8323001333E
:10854C00DAB2D7F8A43083F83220E2E1D7F8A430BD
:10855C00C7F89030D7F890309B689A68D7F890306D
:10856C005B691340002B14BF01230023DBB2002BEB
:10857C0009D0D7F8A430032283F83B20D7F8A40005
:10858C0000F03EFFC5E1D7F8A4301B681B6840F231
:10859C00F312DA62D7F8A4301B6840F2F312DA60F7
:1085AC00D7F8A43093F832300133DAB2D7F8A430CC
:1085BC0083F83220ADE1D7F8A4309B8E1A46D7F859
:1085CC00A43013441B7E1A46D7F8A43093F83330EA
:1085DC0042FA03F303F00103002B01D0092200E05F
:1085EC004522D7F8A4301B681B68DA62D7F8A43090
:1085FC009B8E1A46D7F8A43013441B7E1A46D7F824
:10860C00A43093F8333042FA03F303F00103002B48
:10861C0001D0092200E04522D7F8A4301B68DA60AB
:10862C00D7F8A430C7F88C30002387F88B3097F834
:10863C008B30002B03D0D7F88C30DB6802E0D7F8F6
:10864C008C301B69D7F88C209268136100BFD7F867
:10865C00A43093F832300133DAB2D7F8A43083F86F
:10866C00322056E1D7F8A4309B8E1A46D7F8A430A6
:10867C0013441B7E1A46D7F8A43093F8333042FAD1
:10868C0003F303F00103002B01D0452200E0092283
:10869C00D7F8A4301B681B68DA62D7F8A4309B8E1D
:1086AC001A46D7F8A43013441B7E1A46D7F8A430C8
:1086BC0093F8333042FA03F303F00103002B01D09B
:1086CC00452200E00922D7F8A4301B68DA60D7F8FD
:1086DC00A430C7F88430012387F8833097F88330AF
:1086EC00002B03D0D7F88430DB6802E0D7F8843055
:1086FC001B69D7F884209268136100BFD7F8A430A7
:10870C0093F833300133DAB2D7F8A43083F833203E
:10871C00D7F8A43093F83330082B2FD1D7F8A430E6
:10872C00002283F83320D7F8A4309B8E01339AB201
:10873C00D7F8A4309A86D7F8A4309A8ED7F8A430FC
:10874C00DB8E9A4214D1D7F8A4301B8F002B09D0A2
:10875C00D7F8A430052283F83220D7F8A4300022B1
:10876C009A86D6E0D7F8A430032283F83A20D0E0DA
:10877C00D7F8A430032283F83220CAE0D7F8A4300B
:10878C00032283F83220C4E0D7F8A4301B681B689E
:10879C000922DA62D7F8A4301B680922DA60D7F80C
:1087AC00A430FB67002387F87B3097F87B30002BD5
:1087BC0002D0FB6FDB6801E0FB6F1B69FA6F9268FC
:1087CC00136100BFD7F8A43093F832300133DAB21A
:1087DC00D7F8A43083F832209BE0D7F8A4301B687C
:1087EC001B680922DA62D7F8A4301B680922DA6008
:1087FC00D7F8A4307B67012387F8733097F8733070
:10880C00002B02D07B6FDB6801E07B6F1B697A6FFA
:10881C009268136100BFD7F8A43093F8323001335B
:10882C00DAB2D7F8A43083F8322072E0D7F8A4304B
:10883C001B681B683B22DA62D7F8A4301B683B220A
:10884C00DA60D7F8A430FB66FB6E9B689A68FB6E07
:10885C005B691340002B14BF01230023DBB2002BF8
:10886C0024D0D7F8A430DB8E1A46D7F8A4309B8ED0
:10887C001344D7F8A42013441B7E5AB2D7F8A43063
:10888C0093F83330194601238B405BB213435AB231
:10889C00D7F8A430DB8E1946D7F8A4309B8E0B4446
:1088AC00D1B2D7F8A42013440A461A76D7F8A430CC
:1088BC00052283F83220D7F8A43093F833300133F3
:1088CC00DAB2D7F8A43083F83320D7F8A43093F871
:1088DC003330082B1CD1D7F8A430002283F8332076
:1088EC00D7F8A4309B8E01339AB2D7F8A4309A866D
:1088FC00D7F8A4309A8ED7F8A4301B8F9A4207D1A0
:10890C00D7F8A430032283F83A2001E000BF00E03E
:10891C0000BF00BF61E37B68BB66BB6E93F832306F
:10892C000C2B00F2518301A252F823F06D89000840
:10893C00B9890008018A0008578A0008CB8A000808
:10894C00638B0008AB8B0008F38B0008478C000886
:10895C008F8C0008D78C0008C98D0008638E000826
:10896C00BB6E1B681B6840F2F312DA62BB6E1B68AD
:10897C0040F2F312DA60BB6E7B66002387F863303B
:10898C0097F86330002B02D07B6EDB6801E07B6EC6
:10899C001B697A6E9268136100BFBB6E93F832301C
:1089AC000133DAB2BB6E83F8322010E3BB6E1B6866
:1089BC001B686322DA62BB6E1B686322DA60BB6ED3
:1089CC00FB65012387F85B3097F85B30002B02D0F6
:1089DC00FB6DDB6801E0FB6D1B69FA6D926813613E
:1089EC0000BFBB6E93F832300133DAB2BB6E83F842
:1089FC003220ECE2BB6E7B657B6D9B689A687B6D6D
:108A0C005B691340002B14BF01230023DBB2002B46
:108A1C0007D0BB6E032283F83B20B86E00F0F0FC4D
:108A2C00D5E2BB6E1B681B6840F2F312DA62BB6EB8
:108A3C001B6840F2F312DA60BB6E93F832300133EC
:108A4C00DAB2BB6E83F83220C1E2BB6E1B7E1A46D3
:108A5C00BB6E93F8333042FA03F303F00103002B9F
:108A6C0009D0BB6E1B681B680922DA62BB6E1B68DF
:108A7C000922DA6008E0BB6E1B681B684522DA62CB
:108A8C00BB6E1B684522DA60BB6E3B65002387F822
:108A9C004F3097F84F30002B02D03B6DDB6801E074
:108AAC003B6D1B693A6D9268136100BFBB6E93F806
:108ABC0032300133DAB2BB6E83F8322087E2BB6E00
:108ACC001B7E1A46BB6E93F8333042FA03F303F065
